:020000040800F2
:1000000018260020C1010008A15C0008395300082F
:100010001D5C0008C90B00085F900008000000008C
:10002000000000000000000000000000F16C00086B
:1000300047160008000000008F5D0008AD6D000845
:10004000DB010008DB010008DB010008DB01000820
:10005000DB010008DB0100084916000877160008DC
:10006000DB010008DB010008DB010008DB01000800
:10007000CD140008DB010008DB010008DD140008D6
:10008000ED140008FD140008DB010008DD0B00087A
:10009000CD0B0008DB010008DB0100088116000819
:1000A000DB010008DB010008DB010008DB010008C0
:1000B000E16E0008196F0008516F0008DB010008AD
:1000C000DB010008DB010008DB010008DB010008A0
:1000D000DB010008DB010008DB010008197E0008D5
:1000E00053160008DB010008DB010008DB010008F3
:1000F000DB010008DB010008DB010008DB01000870
:10010000DB010008DB010008616F0008DB0100086B
:10011000DB010008DB010008DB010008DB0100084F
:10012000DB0100080D1500081D150008DB010008A3
:10013000DB010008DB010008DB010008DB0100082F
:10014000DB010008DB010008DB010008DD5C0008C2
:10015000DB010008DB010008DB010008DB0100080F
:10016000DB010008DB010008DB010008DB010008FF
:10017000DB010008DB010008DB01000800000000D3
:10018000DB010008DB010008DB010008DB010008DF
:10019000DB010008DB010008DB010008DB010008CF
:1001A0000000000000000000DB010008DFF80CD0B8
:1001B00000F048FB004800477D9D000818260020FD
:1001C0000648804706480047FEE7FEE7FEE7FEE7F1
:1001D000FEE7FEE7FEE7FEE7FEE7FEE77D6E0008CE
:1001E000AD01000840EA01039B0703D009E008C9FC
:1001F000121F08C0042AFAD203E011F8013B00F8EC
:10020000013B521EF9D27047D2B201E000F8012B37
:10021000491EFBD270470022F6E710B513460A4686
:1002200004461946FFF7F0FF204610BD2DE9FE4FAA
:10023000804681EA0300C00F0C46009021F0004187
:1002400023F00045B8EB0200A94105D24046214603
:1002500090461C460B46024623F00040104347D010
:10026000270DC7F30A00C3F30A510290401A019008
:1002700040286BDAC3F3130040F4801B00989246C9
:1002800020B10023D2EB030A63EB0B0B0198594614
:10029000C0F14002504600F0CFF906460D465046E8
:1002A0005946019A00F0D7F910EB0800614100248B
:1002B00087EA115284EAE7731A4340D0009A62B386
:1002C000019A012A4FEA075215DC001B61EB02017B
:1002D0004FF0004202EA0752CDE90042001C41F50E
:1002E000801132462B4600F00EFA03B0BDE8F08FC5
:1002F00040462146F9E7001B61EB0201001C41F575
:10030000801300185B412018A2F5001747EB03018A
:1003100040EAD570B6196D4111E06D084FEA360616
:1003200045EAC0754FEA0752001B61EB0201001C51
:1003300041F5801149084FEA300000195141324619
:100340002B4603B0BDE8F04F00F0CEB90098012273
:1003500040000023D0EB020263EBE07300982146DB
:100360004FEAE074B8EB000061EB0401E9E783F0C9
:1003700000435BE781F0004158E72DE9FE4F81EA39
:10038000030404F0004421F0004100944FF0000BFE
:1003900023F0004350EA01045ED052EA03045BD02C
:1003A000C3F30A54C1F30A552C44A4F2F334019464
:1003B000A0FB0254C1F3130141F48011C3F31303F2
:1003C00043F4801301FB024400FB034E840A970AA6
:1003D00044EA815447EA8357A4FB076802958D0AD3
:1003E00005FB07854FEA932C04FB0C542705029D5F
:1003F0004FEA065847EA1637B5EB08056EEB070CCF
:10040000870E920E47EA811742EA8312A7FB020188
:10041000B6EB0B0164EB00042B0D43EA0C335E18C2
:1004200044EB1C50DA465146E7FB0201C5F31304C6
:100430004FEA0B3343EA14534FEA0432019C43EA78
:100440000603A4F10C040294009CCDE900B400F072
:100450005AF903B0BDE8F08F00200146F9E72DE915
:10046000F04D81EA030404F0004B21F000451446EE
:100470004FF0000A23F0004150EA050220D054EA70
:1004800001021DD0C5F30A570246C5F31303C1F399
:100490001300C1F30A5640F4801543F48013A7EB10
:1004A0000608101BD64608F2FD3873EB050002D390
:1004B00008F1010801E092185B41B8F1000F03DA7E
:1004C00000200146BDE8F08D00204FF48011064663
:1004D00084460EE0171B73EB050705D3121B63EB75
:1004E000050306434CEA010C49084FEA3000921814
:1004F0005B4150EA0107EDD152EA030012D082EAD3
:10050000040083EA0501084305D0101BAB4106D265
:100510000122002306E000224FF0004302E06FF0CA
:10052000010253101AEB06004CEB085110EB0A00C5
:1005300041EB0B01BDE8F04D00F0D6B80EB5C10F90
:1005400080EAE0700844CA07002140F233438DE896
:100550000E000A460B4600F0D6F803B000BD0EB5FB
:1005600040F2334102910021CDE900110A460B46C9
:1005700000F0C9F803B000BD00F0004230F00040C8
:100580000AD0C10D01F56071C0F3160042EA0151B5
:10059000C208400711437047002001467047000021
:1005A00030B5041E71F1000404DB4FF000444042FA
:1005B00064EB0101141E73F1000405DB1C464FF0CF
:1005C0000043524263EB04038B4208BF824230BDBA
:1005D00030B5041E71F1000404DB4FF000444042CA
:1005E00064EB0101141E73F1000405DB1C464FF09F
:1005F0000043524263EB0403994208BF904230BD6E
:1006000001F0004330B421F0004150EA010206D06D
:100610000A0DA2F56072C1F31301002A02DC30BC9E
:1006200000207047440F44EAC104C100E01830BC08
:1006300000EBC25000F021B8202A04DB203A00FA77
:1006400002F1002070479140C2F1200320FA03F329
:10065000194390407047202A06DBCB17203A41FA15
:1006600002F043EAE07306E041FA02F3D040C2F13F
:10067000200291400843194670470029A8BF7047DF
:10068000401C490008BF20F00100704710B4B0FAC8
:1006900080FC00FA0CF050EA010404BF10BC704763
:1006A00049B1CCF1200421FA04F411FA0CF118BF7D
:1006B000012121430843A3EB0C01CB1D4FEA00614C
:1006C0004FEA102042BF002010BC704700EBC3501F
:1006D00010440029A4BF10BC7047401C490008BF4B
:1006E00020F0010010BC704710B5141E73F1000417
:1006F00008DA401C41F1000192185B411A4301D114
:1007000020F0010010BD2DE9F04D92469B4611B13D
:10071000B1FA81F202E0B0FA80F220329046FFF79F
:100720008BFF04460F4640EA0A0041EA0B0153469C
:100730005A46084313D0114653EA010019D0C8F1B4
:100740004002504600F090F805460E465046594685
:100750004246FFF771FF084305D0012004E0204620
:100760003946BDE8F08D0020054346EAE0762C438B
:1007700037430A986305E40AA0EB08000022FD0A4B
:1007800044EA47540A3002D500200146E9E7010552
:1007900010196941DDE9084500196941BDE8F04DCE
:1007A000A2E72DE9F04D00231A461B1A8A4103DB0C
:1007B00000200146BDE8F08DC1F30A52C1F31301D8
:1007C00041F480154FF0000BD10702D100186D41A4
:1007D000521E0027044640F2FF11384601EB620A20
:1007E0003E468046024600204FF4801100F03CF85F
:1007F000C2197141BB1846EB0100B4EB030C75EB59
:10080000000C04D3E41A65EB000517460E462419C4
:1008100008F101006D4180463428E3DDF91946EB0B
:100820000600091BA84103D24FF0FF32134601E036
:10083000002213461BEB070046EB0A51BDE8F04DC2
:10084000FFF752BF064C074D06E0E06840F0010399
:1008500094E8070098471034AC42F6D3FFF7AAFC9F
:100860000CA600082CA60008202A04DB203A21FA56
:1008700002F00021704721FA02F3D040C2F12002B9
:10088000914008431946704730B58C1810F8012B79
:1008900012F00F0301D110F8013B120906D110F834
:1008A000012B03E010F8015B01F8015B5B1EF9D13D
:1008B00001E001F8013B521EFBD1A142E6D300202A
:1008C00030BDD0ED000AF4EEC00AF1EE10FA01DD01
:1008D00080ED000AD0ED000AB1EE401AF4EEC10A34
:1008E000F1EE10FA03D2F1EE400AC0ED000A7047B3
:1008F00010B508F0EFFB0B48016888470A480078FC
:10090000012802D106F0ECF808E007480078022838
:1009100004D19FED060A064880ED0F0A09F08EFB10
:1009200010BD00000C000020780000200000000036
:10093000A405002010B59248407904281ED19148A2
:10094000407C012812D18F48406800EE900A8D4803
:10095000806800EE100A04F04BFE012806D100204A
:100960008949C87001208949087007E0012086493B
:10097000C870002085490870834908718248C07892
:1009800070B9834890ED000AF7EE000AB4EE600AF1
:10099000F1EE10FA04D1B7EE000A7E4880ED000AAD
:1009A0007948C07800287AD177484079002876D1F4
:1009B00075488078022819D174480078012809D038
:1009C000714890ED070AF7EE000AB4EE600AF1EE06
:1009D00010FA05D19FED700A704880ED5F0A8AE039
:1009E0009FED6F0A6D4880ED5F0A84E0664880786D
:1009F000032841D16448007940B99FED670A6748F0
:100A000080ED5F0A01206049087174E05E4800795A
:100A1000012870D1634890ED000AF7EE000A30EE2D
:100A2000200A80ED000A90ED000ADFED5F0AB4EEC7
:100A3000600AF1EE10FA09D1B7EE000A5B4880EDCA
:100A4000000A9FED570A574880ED000A574890ED7D
:100A5000000AF7EE000AB4EE600AF1EE10FA05D1D2
:100A60009FED4D0A4D4880ED5F0A44E09FED4C0A32
:100A70004A4880ED5F0A3EE043488078A8BB45487D
:100A800090ED000AF7EE000AB4EE600AF1EE10FAFB
:100A900006D19FED410A414880ED5F0A2BE00DE051
:100AA0003C4890ED000AB5EEC00AF1EE10FA22D1F2
:100AB0009FED3B0A394880ED5F0A1CE032484079DF
:100AC000012813D19FED3A0A344880ED5F0A394876
:100AD0000078401C374908700846007896280AD1EB
:100AE0000020294948713349087004E09FED2C0A21
:100AF0002A4880ED5F0A294890ED610ADFED2C0A53
:100B0000B4EE600AF1EE10FA22D190ED5F0ADFED4B
:100B1000220AB4EE600AF1EE10FA19D1264890EDDF
:100B2000000AF7EE000A30EE200A80ED000A90ED90
:100B3000000ADFED220AB4EE600AF1EE10FA07D1E6
:100B40000120114948719FED160A1B4880ED000AEB
:100B50000D48C07800EE100AB8EE400A0C4880ED4F
:100B6000000A1748007828B10C4890ED5F0AB1EEF2
:100B7000400A01E09FED0A0A124880ED000A10BD0C
:100B80000C000020B4160020340500204904002089
:100B9000400400203804002000401C46C40B002004
:100BA000000000003C0400200080BB44340400200E
:100BB00000401CC6480400204404002000007A4481
:100BC000290400202C04002000BFFEE710B50248D5
:100BD00001F050F910BD00005417002010B5024874
:100BE00001F048F910BD00005417002010B58AB07C
:100BF00004460020059006900120079000200090F8
:100C000001900290039004900E200990012008901A
:100C10006946204601F096F80448844203D104480E
:100C20002063044860630AB010BD00005417002020
:100C3000D4170020F017002070B504460D46206838
:100C400000F5D87000EB0510006800F00400616B3F
:100C50008860606B806860B9206800F5D87000EB30
:100C60000510006840F2FF7101EA5050616B0860A6
:100C70000BE0206800F5D87000EB051000686FF0FD
:100C8000604101EAD000616B4860206800F5D870CF
:100C900000EB0510006800F00200616BC86020687E
:100CA00000F5D87000EB0510406800F00F00616B94
:100CB0000861606B0562206800F5D87000EB0510D4
:100CC0004068C0F30720616BC861206800F5D870E8
:100CD00000EB05108068616B0875206800F5D8701E
:100CE00000EB05108068010A606B4175206800F513
:100CF000D87000EB05108068010C606B817520686E
:100D000000F5D87000EB05108068000E616BC875A7
:100D1000206800F5D87000EB0510C068C1B2606BA8
:100D20000176206800F5D87000EB0510C068010A54
:100D3000606B4176206800F5D87000EB0510C06844
:100D4000010C606B8176206800F5D87000EB05100F
:100D5000C068000E616BC8764DB920202168C8605C
:100D60002068406920F002002168486108E02020E6
:100D7000216808612068406920F0100021684861FE
:100D800094F8380022281DD12068406920F4807032
:100D9000216848612068406920F40070216848613A
:100DA0002068406920F480602168486120684069BB
:100DB00020F40060216848612068406920F4004008
:100DC0002168486194F83800322803D1122084F851
:100DD000380002E0012084F83800204601F0A6FA2D
:100DE000002070BD10B504462068406920F0010065
:100DF0002168486194F8380012281DD120684069A4
:100E000020F48070216848612068406920F40070F7
:100E1000216848612068406920F480602168486149
:100E20002068406920F400602168486120684069BA
:100E300020F400402168486194F83800322803D13A
:100E4000222084F8380002E0012084F8380020468F
:100E500001F08EFC002010BD10B52DED068B044670
:100E600006F066FCFE4991F8280000EBD0714910AD
:100E7000A0EB4101FA4A82F82910104690F82900A7
:100E800020B1012807D1F749086004E04FF0FF3096
:100E9000F449086000BF00BFF348408BB0F5AF7F56
:100EA00003DA0220EE49887702E00320EC498877D4
:100EB000EB48807F022873D1EC4890ED000ADFED0B
:100EC000EC0AB4EEE00AF1EE10FA0ED2E548006842
:100ED00041F65831484300EE900AF8EEE00AB0EED1
:100EE000600AE44809F026F9D5E2E04890ED000AEE
:100EF000DFEDE10AB4EEE00AF1EE10FA0ED2D948C5
:100F000000684FF4FA51484300EE900AF8EEE00A08
:100F1000B0EE600AD74809F00DF9BCE2D34890ED75
:100F2000000ADFEDD60AB4EEE00AF1EE10FA0ED2B6
:100F3000CC48006842F22831484300EE900AF8EEAF
:100F4000E00AB0EE600ACB4809F0F4F8A3E2C74823
:100F500090ED000ADFEDCA0AB4EEE00AF1EE10FAF5
:100F60000ED2C048006842F22831484300EE900A91
:100F7000F8EEE00AB0EE600ABE4809F0DBF88AE25B
:100F8000BA4890ED000ADFEDBE0AB4EEE00AF1EED9
:100F900010FAA9DD9FEDBB0A80ED000A7BE2FFE7B6
:100FA000AF48807F032803D0AD48807F01289BD1C4
:100FB000AB48407F98B90020B3490870B349087026
:100FC000A848006841F28831484300EE900AF8EEE4
:100FD000E00AB0EE600AA74809F0ACF857E2A04872
:100FE000407F01281BD19F48006841F28831484367
:100FF00000EE900AF8EEE00AB0EE600A9D4809F0B3
:1010000099F8A14800780028E8D19A4890ED0F0A95
:101010009F4880ED000A01209B49087037E2904804
:10102000407F0228DADB9B48007868B98D48006869
:1010300041F28831484300EE900AF8EEE00AB0EE43
:10104000600A8C4809F076F89048007830BB8948EF
:1010500090ED0F0A904880ED000A90ED000A8C4850
:10106000D0ED000A30EE600A10EE101A0846FFF7C5
:1010700083FA41EC190BB0EE490AF0EE690A08F068
:101080009DFAB0EE408AF0EE608A51EC180BFFF743
:10109000B7FA8249086001207C4908707248408B89
:1010A0007F490988884202DA7A48007850B1794845
:1010B0000078012841D16C48418B7A4800881E385D
:1010C00081423ADA0020784908700120714908709D
:1010D0006548408B73490880704890ED000ADFED49
:1010E000730A20EE200A10EE101A0846FFF744FAA1
:1010F00041EC180B5F4890ED0F0A6548D0ED000AEF
:1011000030EE600A10EE101A0846FFF735FA41EC8F
:101110001A0BB0EE4A0AF0EE6A0A08F04FFAB0EE87
:10112000409AF0EE609A53EC182B51EC190BFFF734
:1011300037FA03D202205E49087062E0574890ED0A
:10114000000ADFED5C0A20EE200A10EE101A0846B5
:10115000FFF712FA41EC180B464890ED0F0A4C4885
:10116000D0ED000A30EE600A10EE101A0846FFF7C4
:1011700003FA41EC1A0BB0EE4A0AF0EE6A0A08F0E4
:101180001DFAB0EE409AF0EE609A53EC182B51EC39
:10119000190BFFF705FA31D2404890ED000ADFED58
:1011A000430A20EE200A10EE101A0846FFF7E4F971
:1011B00041EC180B2F4890ED0F0A3548D0ED000A8E
:1011C00030EE600A10EE101A0846FFF7D5F941EC30
:1011D0001A0BB0EE4A0AF0EE6A0A08F0EFF9B0EE28
:1011E000409AF0EE609A53EC182B51EC190BFFF774
:1011F000EFF903D201202E49087002E001202C49AA
:10120000087024480078012878D1294800780128FE
:1012100004D0022874D003286FD1EFE01F4890ED6E
:10122000000ADFED250A20EE200A10EE101A08460B
:10123000FFF7A2F941EC180B0E4890ED0F0A144885
:10124000D0ED000A30EE600A10EE101A0846FFF7E3
:1012500093F941EC1A0BB0EE4A0AF0EE6A0A2DE05F
:101260004C030020D80300201C1600208C03002013
:101270000000FA44A405002000007A4500A08C4537
:101280000000FA4500000000A4030020A503002090
:1012900098030020AA0300209C030020A003002044
:1012A000A6030020A8030020B0030020CDCC4C3EB4
:1012B000B8030020CDCC4C3FCDCCCC3D08F07EF91E
:1012C000B0EE409AF0EE609A53EC182B51EC190BEB
:1012D000FFF77EF903D20120704981F82800704899
:1012E000006841F28831484300EE900AF8EEE00AC7
:1012F000B0EE600A6B4808F01DFFC0E0C0E0FFE7F9
:10130000694890ED000ADFED690A20EE200A10EE30
:10131000101A0846FFF730F941EC180B614890EDC0
:101320000F0A6348D0ED000A30EE600A10EE101A82
:101330000846FFF721F941EC1A0BB0EE4A0AF0EE2D
:101340006A0A08F03BF9B0EE409AF0EE609A53EC6E
:10135000182B51EC190BFFF73BF904D201204F4930
:1013600081F828003BE0504890ED000ADFED510A7B
:1013700020EE200A10EE101A0846FFF7FDF841ECA7
:10138000180B484890ED0F0A4948D0ED000A30EE9E
:10139000600A10EE101A0846FFF7EEF841EC1A0B3F
:1013A000B0EE4A0AF0EE6A0A08F008F9B0EE409A88
:1013B000F0EE609A53EC182B51EC190BFFF7F0F894
:1013C0000DD201213C4801F031FD40B102213A48E3
:1013D00001F02CFD18B10220304981F82800304876
:1013E000006841F28831484300EE900AF8EEE00AC6
:1013F000B0EE600A2B4808F09DFE40E02A4890EDD0
:10140000000A5FED540A20EE200A10EE101A08467A
:10141000FFF7B2F841EC180B224890ED0F0A244870
:10142000D0ED000A30EE600A10EE101A0846FFF701
:10143000A3F841EC1A0BB0EE4A0AF0EE6A0A08F083
:10144000BDF8B0EE409AF0EE609A53EC182B51ECD8
:10145000190BFFF7A5F803D20220104981F82800E4
:101460000F48006841F28831484300EE900AF8EED8
:10147000E00AB0EE600A0B4808F05CFE00BF00BF57
:101480000E480078012802D100200D4908700D484F
:10149000408B0D490880BDEC068B10BD4C0300202D
:1014A000D8030020A4050020A00300203333333FDD
:1014B000980300209A99993E00140240B00300203E
:1014C000AA0300201C160020A603002010B5024825
:1014D00001F094F910BD0000D418002010B50248A6
:1014E00001F08CF910BD0000D418002010B502489E
:1014F00001F084F910BD00007418002010B50248F6
:1015000001F07CF910BD0000B41A002010B50248AB
:1015100001F074F910BD00009419002010B50248C4
:1015200001F06CF910BD0000141800200146087885
:1015300010381823B0FBF3F20848805CC865032A12
:1015400005D908686FF30900001D886503E0086885
:101550006FF309008865886D7047000000A30008DC
:10156000014600208A6A8B6903BB32B1012A0CD084
:10157000022A10D0032A17D115E0CB6A03F080733A
:10158000B3F1807F00D101200FE0CB6AB3F1C07FBF
:1015900000D1012009E0CB6A03F08073B3F1807FB2
:1015A00000D1012001E000E000BF35E08B69B3F518
:1015B000005F1BD132B1012A06D0022A0CD0032AC7
:1015C00012D10BE0012010E0CB6A03F08073B3F17D
:1015D000807F00D1012008E0012006E0CB6AB3F152
:1015E000C07F00D1012000E000BF15E032B1012A28
:1015F00005D0022A04D0032A0CD103E000BF00BFAB
:10160000012008E0CB6A03F08073B3F1807F00D142
:10161000012000E000BF00BF704730B504682468B7
:1016200024F4802405682C60046863608468402C7E
:1016300004D10468A2600468E16003E00468A1606A
:101640000468E26030BD704710B5012001F0D2FAA5
:1016500010BD10B54FF4805001F0CCFA4FF400509B
:1016600001F0C8FA4FF4804001F0C4FA4FF48060F2
:1016700001F0C0FA10BD10B5022001F0BBFA10BD98
:1016800010B54FF4007001F0B5FA10BDAFF20301D0
:10169000016006494160002180F8241080F825107F
:1016A0009FED030A80ED0A0A70470000E519000863
:1016B0000000000000BFFEE701460E4800688842B7
:1016C00004D20C480068401C0A4A106009480068AF
:1016D000884204D907480068401E064A1060054841
:1016E0000068B0F57A7F02D24FF47A7070470148F3
:1016F0000068FBE7AC0000200FB410B52DED088B9F
:10170000199C9DF86100022858D1002035490870C5
:10171000012035490877BDF8320008B3BDF8320022
:10172000FEF71DFF41EC1B0B9FED300B53EC102B14
:10173000FEF71DFE41EC1A0B9FED2E0B53EC102B08
:10174000FEF78DFE41EC190B9FED2C0B53EC102B8B
:10175000FEF713FE41EC180BFEF752FF206003E08A
:101760009FED280A84ED000ABDF8300008B3BDF8EB
:101770003000FEF7F4FE41EC1B0B9FED1C0B53EC0D
:10178000102BFEF7F4FD41EC1A0B9FED1A0B53ECF6
:10179000102BFEF764FE41EC190B9FED1B0B53EC75
:1017A000102BFEF7EAFD41EC180BFEF729FF6060F5
:1017B00012E09FED140A84ED000A0DE09DF861002F
:1017C000012802D10749087006E09DF8610004284D
:1017D00002D1022003490870BDEC088B10BC5DF8F3
:1017E00014FB0000780000204C03002000000000E3
:1017F000000090400000000000A0844000000000B5
:101800000070A74000000000000000000070C7400A
:1018100010B50D9C08F05AFC02200B4988709DF809
:10182000300002280AD10020C870B7EE000A08462E
:1018300080ED070A01200549087004E001200249F3
:10184000C8700249087010BD340500203004002023
:101850000FB410B52DED0A8B1B9CBDF8360028B3D4
:10186000BDF83600FEF77BFE41EC1C0B9FED4D0BE7
:1018700053EC102BFEF77BFD41EC1B0B81F000417C
:1018800041EC1A0B9FED490B53EC102BFEF7E7FDD3
:1018900041EC190B9FED470B53EC102BFEF76DFD40
:1018A00041EC180BFEF7ACFE206003E09FED430A0D
:1018B00084ED000ABDF8340008B3BDF83400FEF72B
:1018C0004EFE41EC1B0B9FED370B53EC102BFEF73C
:1018D0004EFD41EC1A0B9FED350B53EC102BFEF730
:1018E000BEFD41EC190B9FED360B53EC102BFEF7B0
:1018F00044FD41EC180BFEF783FEE06003E09FED32
:101900002F0A84ED030A304890ED070AB3EE0E1A51
:10191000C0EE010A2D4890ED050A30EE800A80EDF8
:10192000050A294890ED0A0ADFED290A80EE201AFF
:10193000264890ED030A30EE410A80ED030A90ED4F
:10194000050ADFED240AB4EEE00AF1EE10FA04D243
:101950009FED200A80ED050A0DE01C4890ED050A78
:10196000DFED1D0AB4EEE00AF1EE10FA03DD9FEDA3
:101970001A0A80ED050A1548D0ED050AB0EE600A96
:1019800004F0E0FD114890ED030AF0EE400A9FEDEF
:10199000130A134807F04EFDBDEC0A8B10BC5DF82E
:1019A00014FB000000000000000090400000000058
:1019B00000A08440000000000080514000000000B2
:1019C0000000000000C062400C0000204C0300201A
:1019D000000020420000FFC30000024300007A44E0
:1019E000D40E002090F8242002BB10F8252F521CA2
:1019F000027010F82529322A03DD012280F8242004
:101A000011E04A6B527D4B6B1B7D42EA0322C2847C
:101A1000C28C00EE102AB8EE400ADFED5E0A80EEBE
:101A2000201A80ED0D1AC28C0283B1E04A6B527D00
:101A30004B6B1B7D42EA0322C2824A6BD37D927DAF
:101A400043EA022212B200EE102AB8EEC00A80ED7C
:101A5000030A90ED030A80ED020A4A6B537E127E60
:101A600043EA022212B200EE102AB8EEC00A80ED5C
:101A7000040A4A6B927E0275C28A038BD21AB2F5AF
:101A8000805F08DD90ED0A0AF7EE000A30EE600A8A
:101A900080ED0A0A0DE0C28A038BD21A12F5805F2C
:101AA00007DA90ED0A0AF7EE000A30EE200A80ED20
:101AB0000A0AC28A00EE102AB8EE400AD0ED0A0ADD
:101AC0009FED341A00EE810AC28C00EE902AF8EEE7
:101AD000600A30EE600A80ED0F0AC28A00EE102A1A
:101AE000B8EE400A9FED2B1AC0EE010A90ED0A0AEB
:101AF00030EE800AD0ED0D0A30EE600A80ED0E0A5D
:101B0000C28A00EE102AF8EE400A9FED221A80EEFB
:101B1000810AD0ED0A0A30EE200A80ED0C0AC28A52
:101B200000EE102AB8EE400AD0ED0A0A9FED191A0D
:101B300000EE810ABDEEC00A80ED0B0AC28A028364
:101B400090ED040ADFED140A20EE200AD0ED020A1F
:101B500020EE200AB5EEC00AF1EE10FA0ADD90ED93
:101B6000040ADFED0D0A20EE200AD0ED020A20EE75
:101B7000200A0BE090ED040AB1EE400ADFED060A00
:101B800020EE200AD0ED020A20EE200A80ED100A95
:101B900070470000000000467538843670B5044672
:101BA00001212D4801F042F9054602212A4801F0A1
:101BB0003DF9064629480078854220D0002C02DDF8
:101BC0006FF0360001E06FF0710000EE100AB8EE21
:101BD000C00A2348D0ED0F0A30EE600ABDEEC00AFD
:101BE00010EE100A00B21F4908801D4890ED0F0A40
:101BF000BDEEC00A10EE100A00B21B4908801B4857
:101C00000078864220D0002C02DD6FF0EA0001E06F
:101C10006FF4897000EE100AB8EEC00A1048D0EDDB
:101C20000F0A30EE600ABDEEC00A10EE100A00B2D4
:101C30000C4908800A4890ED0F0ABDEEC00A10EE6C
:101C4000100A00B208490880044805700748067069
:101C50000448B0F9000070BD0014024024040020C4
:101C6000A4050020260400200204002025040020F2
:101C700010B58CB00446231D1B48001D07C805F095
:101C800067F804F108000B90A088ADF8280028221E
:101C9000154910316846FEF7A5FA13480FC8FFF73B
:101CA0002BFD04F11C000B90A088ADF82800282221
:101CB0000D4910316846FEF795FA0B480FC8FFF73B
:101CC000C7FD04F138000B90A088ADF82800282249
:101CD000054910316846FEF785FA03480FC8FFF73B
:101CE00097FD0CB010BD00006C05002030B5034618
:101CF00013B94FF6FF7030BD09E013F8014B82EACB
:101D00000400C0B2054D35F8100080EA2222081EFA
:101D1000A1F10101F1D11046EDE700000AA400088D
:101D200030B5034605E013F8010B80EA02040448CD
:101D3000025D081EA1F10101F5D1104630BD000081
:101D400009A3000830B5034600220C7D012000FAEB
:101D500004F24648006840F00100444C20602046F0
:101D6000006820F47C502060204600684C6A40EAFD
:101D700004203E4C20603D481C30006890433B4CA2
:101D80001C342060C869D8B938480C3000689043CA
:101D9000364C0C342060888880B28C8940EA044438
:101DA000324840304D6940F83540088880B20C898F
:101DB00040EA04442D4840304D6900EBC5004460C2
:101DC000C86901281BD129480C3000681043274CF2
:101DD0000C342060888880B20C8840EA0444234890
:101DE00040304D6940F83540888980B20C8940EA1E
:101DF00004441E4840304D6900EBC50044608869CA
:101E000038B91A48001D00689043184C241D206002
:101E100006E01648001D00681043144C241D206085
:101E2000086930B911481430006890430F4C1434DD
:101E300020600869012806D10C481430006810435E
:101E40000A4C14342060086A012806D107481C3067
:101E500000681043054C1C3420600448006820F0E2
:101E60000100024C2060002030BD000000660040F0
:101E7000704700002DE9F0410446002500260027A8
:101E80002068406900F0010018B320688068694943
:101E90000840884201D1012000E00020054620686A
:101EA000806865490840884201D1012000E0002097
:101EB00006462068806861490840884201D10120B7
:101EC00000E0002007460DB906B917B12046FEF71D
:101ED00089FF2068C06800F0030520684069C0F3EE
:101EE000400625B11EB100212046FEF7A5FE206860
:101EF000006900F0030520684069C0F3001625B1B1
:101F00001EB101212046FEF797FE2068806900F08F
:101F1000010520684069C0F3002620684069C0F3CD
:101F2000C0372DB126B11FB1E06B40F00100E06376
:101F300020688069C0F3400520684069C0F34026EE
:101F400020684069C0F3C0372DB126B11FB1E06BE6
:101F500040F00200E06320688069C0F380052068DB
:101F60004069C0F3802620684069C0F3C0372DB1B6
:101F700026B11FB1E06B40F00400E0632068806987
:101F800000F0700008B9012000E00020054620683C
:101F90004069C0F3C02620684069C0F3C03795BBD4
:101FA0008EB387B32068806900F07005402D1BD088
:101FB00006DC102D09D0202D0CD0302D24D10EE0C0
:101FC000502D16D0602D1FD118E0E06B40F00800B6
:101FD000E0631AE0E06B40F01000E06315E0E06BB6
:101FE00040F02000E06310E0E06B40F04000E06370
:101FF0000BE0E06B40F08000E06306E0E06B40F453
:102000008070E06301E007E000BF00BF20688069E6
:1020100020F0700021688861E06B40B104202168E5
:102020004860012084F838002046FFF721FFBDE812
:10203000F08100000300000400030008000003100A
:1020400070B50446032600250CB9012070BD94F834
:10205000380028B9002084F83900204600F0D0F874
:10206000022084F838002068006820F0020021680F
:1020700008602068006840F001002168086000F0F6
:10208000E3FE05460EE000F0DFFE401B0A2809D9FA
:10209000032084F8380000BF002084F8390000BF16
:1020A0000320D3E72068406800F001000028EAD050
:1020B0002068406800F0010008B9002692E0A0699D
:1020C000012806D12068006840F08000216808607F
:1020D00005E02068006820F0800021680860E06961
:1020E000012806D12068006840F04000216808609F
:1020F00005E02068006820F0400021680860206A40
:10210000012806D12068006840F02000216808609E
:1021100005E02068006820F0200021680860606AFF
:10212000012806D12068006840F01000216808608E
:1021300005E02068006820F0100021680860A06AAF
:10214000012806D12068006840F008002168086076
:1021500005E02068006820F0080021680860E06A57
:10216000012806D12068006840F00400216808605A
:1021700005E02068006820F0040021680860D4E9C8
:102180000201084321690843616908436168491EE7
:1021900008432168C8612068006820F001002168B8
:1021A000086000F051FE05460EE000F04DFE401BB9
:1021B0000A2809D9032084F8380000BF002084F8D9
:1021C000390000BF032041E72068406800F00100AB
:1021D0000028EAD12068406800F0010008B100261C
:1021E00000E00126012E06D10020E063012084F8E2
:1021F000380000202AE7042084F83800012025E771
:1022000010B586B004461A49206888422DD100BF17
:10221000002000901748006840F0007015490860E1
:102220000846006800F00070009000BF00BF032067
:1022300001900220029000200390032004900920C6
:10224000059001A90C4800F0E3FC012202211320B3
:1022500000F0BFFE132000F0AFFE00220221142088
:1022600000F0B7FE142000F0A7FE06B010BD00007D
:102270000064004040380240000C024010B50246A5
:10228000002392F83830012B01D0122B49D100BF26
:1022900092F83900012801D1022010BD012082F8F6
:1022A000390000BF92F83800122803D1322082F89A
:1022B000380002E0222082F838000020D063106845
:1022C000406940F48070146860611068406940F4AF
:1022D0000070146860611068406940F480601468A0
:1022E00060611068406940F40060146860611068C3
:1022F000406940F400401468606100BF002082F82B
:10230000390000BF31B91068406940F0020014681C
:10231000606108E01068406940F010001468606176
:1023200001E00220B9E70020B7E7000070B50446DD
:102330006A48844271D1606B0068A0F201200828CD
:102340005ED2DFE800F0040506071E244A5500BFF0
:1023500000BF00BF00BF606B0068A0F2012505EB65
:10236000051101EB45115E4B03EBC101081D05EBA7
:10237000051101EB451103EBC1018A682146904725
:102380003EE0584821468268001D904738E0564894
:1023900021468268001D9047534890ED0C0AB8EE24
:1023A000C00ADFED520AB4EEE00AF1EE10FA0BDDDE
:1023B00090ED0C0AB8EEC00ADFED4D0A30EE600A6F
:1023C000BDEEC00A80ED0C0A474890ED0C0AB8EE4D
:1023D000C00A484880ED020A12E047482146826858
:1023E000001D90479FED450A454880ED020A07E031
:1023F00041482146D0F8902100F5C670904700BFB3
:1024000000BF606B4068A0F59850143800285AD07F
:10241000012803D0022857D149E056E0002039496D
:102420000860606B407D616B097D40EA012000B26D
:1024300000EE100AB8EEC00ADFED330A80EE201A73
:10244000324880ED021A606BC17D807D41EA002038
:1024500000B200EE100AB8EEC00ADFED2B0A80EEE3
:10246000201A2A4880ED031A606B417E007E41EA03
:10247000002000B200EE100AB8EEC00ADFED220A1A
:1024800080EE201A214880ED041A606BC17E807EA8
:1024900041EA002000B200EE100AB8EEC00ADFEDFB
:1024A0001A0A80EE201A194880ED051A0CE0002067
:1024B00014490860606B017D14484171606B407D78
:1024C0001249087100E000BF00BF0448006840697D
:1024D00040F0020001490968486170BD54170020AE
:1024E000A4050020D40E00205C10002000008045D0
:1024F00000000046B4000020C40B002000000000D3
:102500004C030020E00400200000C8420C00002022
:102510002DE9F04104460E46052500272068806815
:1025200000F08060B0F1806F0DD02068806800F00E
:102530000060B0F1006F06D02068806800F0805025
:10254000B0F1805F7ED100BF94F83900012802D13C
:102550000220BDE8F081012084F8390000BF94F822
:102560003800222803D1322084F8380002E01220FB
:1025700084F838002068806800F08060B0F1806FD7
:1025800001D1002509E02068806800F00060B0F10A
:10259000006F01D1012500E00225206800F5C07020
:1025A00000EB0510006800F00101206800F5C07024
:1025B00000EB05100160206B806898B9206800F579
:1025C000C07000EB05100068216BC968226B12888F
:1025D00041EA42510843216801F5C07101EB051140
:1025E000086015E0206800F5C07000EB0510006879
:1025F000216B8968226B526841EAC201226BD26862
:1026000011430843216801F5C07101EB0511086011
:10261000206B007C00F00F00216B0861206800F542
:10262000C07000EB0510406820F00F01206800F535
:10263000C07000EB05104160206800F5C07000EB31
:10264000051000E088E04068216B096908432168B3
:1026500001F5C07101EB05114860206BC07D0106DA
:10266000206B807D41EA0041206B407D41EA0020E3
:10267000216B097D0843216801F5C07101EB05114B
:102680008860206BC07E0106206B807E41EA00419D
:10269000206B407E41EA0020216B097E08432168BF
:1026A00001F5C07101EB0511C860206800F5C0702C
:1026B00000EB0510006840F00101206800F5C070D3
:1026C00000EB0510016000F0BFFB074611E0701C35
:1026D00078B126B100F0B8FBC01BB04209D9032085
:1026E00084F8380000BF002084F8390000BF0320C0
:1026F0002FE74DB9206880681A490840884201D107
:10270000012016E0002014E0012D09D12068806826
:1027100015490840884201D101200AE0002008E064
:102720002068806811490840884201D1012000E0FA
:1027300000200028CBD094F83800322803D1222082
:1027400084F8380002E0012084F8380000BF00203F
:1027500084F8390000BFFCE6042084F8380001202A
:10276000F7E6000003000004000300080000031067
:102770007047014691F83500022803D08020486553
:1027800001207047052081F835000868006820F0B6
:1027900001000A6810600020F3E770B504460CB928
:1027A000012070BD94F83500022800D1F9E72068B7
:1027B000006820F00100216808600020216808609E
:1027C00021684860216888602168C86021680861C4
:1027D0002120216848612046FEF7A8FE054694F8AE
:1027E0005C103F208840A8600020606584F83500B8
:1027F00000BF84F8340000BF00BFD2E7F8B504463C
:10280000002000908D4800684FF41651B0FBF1F79E
:10281000A56D2E6894F85C1008208840304098B16F
:102820002068006800F0040070B12068006820F0A3
:1028300004002168086094F85C1008208840A860B3
:10284000606D40F00100606594F85C107C48884041
:10285000304068B12068406900F0800040B194F8D1
:102860005C1077488840A860606D40F002006065A9
:1028700094F85C107248C01C8840304070B12068E9
:10288000006800F0020048B194F85C106C48C01C6D
:102890008840A860606D40F00400606594F85C10AA
:1028A00010208840304078B32068006800F00800AD
:1028B00050B394F85C1010208840A860206800682D
:1028C00000F4802080B12068006800F4002028B95E
:1028D000206CC8B12046216C884715E0A06C98B1E7
:1028E0002046A16C88470FE02068006800F48070E3
:1028F00028B92068006820F0080021680860206C72
:1029000010B12046216C884794F85C102020884044
:102910003040002865D02068006800F010000028D2
:102920005FD094F85C1020208840A86094F83500AF
:10293000052828D12068006820F01600216808606A
:102940002068406920F0800021684861206C08B947
:10295000A06C28B12068006820F008002168086099
:1029600094F85C103F208840A86000BF002084F8E5
:10297000340000BF012084F83500206D10B12046DE
:10298000216D8847F8BD2068006800F4802080B180
:102990002068006800F4002028B9606C10B120465F
:1029A000616C88471DE0E06BD8B12046E16B884739
:1029B00017E02068006800F4807068B9206800683B
:1029C00020F010002168086000BF002084F8340067
:1029D00000BF012084F83500E06B10B12046E16BA8
:1029E0008847606D38B3606D00F00100F0B10520DC
:1029F00084F835002068006820F001002168086034
:102A000000BF0098401C0090B84200D905E0206843
:102A1000006800F001000028F3D100BF00BF0020D3
:102A200084F8340000BF012084F83500E06C10B158
:102A30002046E16C884700BFA4E7000008000020A2
:102A4000010080002DE9F0410446002500F0FCF96A
:102A5000074614B90120BDE8F081606A00B100BFEB
:102A600000BF002084F8340000BF022084F8350045
:102A70002068006820F00100216808600AE000F08A
:102A8000E3F9C01B052805D920206065032084F8E0
:102A90003500E0E72068006800F001000028EED172
:102AA0002068056820480540D4E901010843E16831
:102AB00008432169084361690843A1690843E16942
:102AC0000843216A08430543606A042803D1D4E916
:102AD0000B0108430543206805602068456925F01F
:102AE0000705606A0543606A04280BD1A06A0543A4
:102AF0002046FEF735FD28B140206065012084F8AE
:102B00003500A8E7206845612046FEF70FFD064620
:102B100094F85C103F208840B06000206065012080
:102B200084F83500002096E73F8010F02DE9F0474B
:102B300004460D4616461F464FF00008D4F858903C
:102B400000BF94F83400012802D10220BDE8F087CC
:102B5000012084F8340000BF94F8350001282BD1FF
:102B6000022084F83500002060653B463246294645
:102B70002046FEF752FD94F85C103F208840C9F8CB
:102B800008002068006840F016002168086020688E
:102B9000406940F0800021684861206C28B12068BD
:102BA000006840F00800216808602068006840F074
:102BB00001002168086006E000BF002084F83400AE
:102BC00000BF4FF002084046C0E70000B0F5804F5C
:102BD00009D19FED050A054981ED000A9FED020A22
:102BE000034981ED000A7047000000003404002012
:102BF0003804002010B5044604480068204020B185
:102C0000024804602046FFF7E1FF10BD143C01407C
:102C1000F8B502460B460025002400200021E6E01E
:102C2000012606FA01F51E6806EA0504AC4273D1D6
:102C30005E68022E02D05E68122E13D1CF0802F118
:102C4000200656F827004E07F70E0F26BE40B04369
:102C50004F07FF0E1E69BE403043CF0802F1200629
:102C600046F8270010684F000326BE40B0431E7987
:102C700006F003064F00BE40304310605E68012E30
:102C800008D05E68022E05D05E68112E02D05E6804
:102C9000122E13D190684F000326BE40B0434F0060
:102CA000DE68BE4030439060506801268E40B043DD
:102CB0001E79C6F300168E4030435060D0684F0036
:102CC0000326BE40B0434F009E68BE403043D060F4
:102CD0005E6806F08056B6F1805FA8D100BF00267E
:102CE0000096454E366846F48046434F3E603E4669
:102CF000366806F48046009600BF00BF3F4E8F083E
:102D000056F827008E07370F0F26BE40B0433C4EC3
:102D1000B24202D100262EE068E03A4EB24201D122
:102D2000012628E0384EB24201D1022623E0374E78
:102D3000B24201D103261EE0354EB24201D1042633
:102D400019E0344EB24201D1052614E0324EB242AF
:102D500001D106260FE0314EB24201D107260AE02A
:102D60002F4EB24201D1082605E02E4EB24201D1CB
:102D7000092600E00A268F073F0FBE4030431F4E52
:102D80008F0846F82700284E3068A0435E6806F496
:102D90008036B6F5803F00D12043234E3060361D8B
:102DA0003068A0435E6806F40036B6F5003F00D1F7
:102DB00020431D4E361D3060361D3068A0435E68CE
:102DC00006F48016B6F5801F00D12043164E083653
:102DD0003060361D3068A0435E6806F40016B6F514
:102DE000001F00D12043104E0C363060491C1029C2
:102DF000FFF416AFF8BD0000443802400838014027
:102E0000000002400004024000080240000C0240A2
:102E1000001002400014024000180240001C024052
:102E20000020024000240240003C01400246136999
:102E30000B400BB1012000E0002070470AB1816116
:102E400001E00B048361704701480068704700008F
:102E50000000002002480068401C014908607047DB
:102E60000000002010B50D48006840F400700B49C8
:102E700008600846006840F4806008600846006802
:102E800040F480700860032000F0E2F8002000F0B9
:102E900007F800F019F8002010BD0000003C0240C7
:102EA00070B50446074800684FF47A71B0FBF1F53D
:102EB000284601F056F900222146501E00F089F8FC
:102EC000002070BD0800002010B5052000F0C0F8FB
:102ED000002211466FF00B0000F07BF80022114633
:102EE0006FF00A0000F075F8002211466FF009003B
:102EF00000F06FF800221146501F00F06AF800221F
:102F00001146101F00F065F800221146901E00F0D7
:102F100060F800221146501E00F05BF810BD70B53D
:102F200004460D4616460CB9012070BD94F83900D0
:102F300028B9002084F83800204601F071FE2420D2
:102F400084F839002068C06820F400502168C86007
:102F5000204604F079FD2068006920F49040216843
:102F600008612068406920F02A00216848612068D3
:102F7000006920F00F00216808612068006928437B
:102F8000216808612068C06820F400602168C8607A
:102F90002068C06830432168C8602068C06840F479
:102FA00000502168C8600020E063202084F83900C8
:102FB00084F83A000020B8E700BF00F01F020121AA
:102FC00091404209920002F1E022C2F8001100BFD4
:102FD00070472DE9F05F80460D461646002702F047
:102FE00061FE074639462A46334601F00700C0F124
:102FF000070ABAF1040F02D94FF0040A01E0C0F148
:10300000070AD14600F1040ABAF1070F02D24FF0C5
:10301000000A01E0A0F1030AD4464FF0010A0AFABF
:1030200009FAAAF1010A0AEA020A0AFA0CFA4FF0AE
:10303000010B0BFA0CFBABF1010B0BEA030B4AEA99
:103040000B042146404602F035FEBDE8F09F00002B
:1030500000BF00F00702064B19684FF6FF03194046
:10306000044B0B4343EA0221014B196000BF704738
:103070000CED00E00000FA0510B50446D4F8B403E6
:1030800005F0F6F810BD70B504460D46C5EBC50356
:1030900004F1380101EB8301CA682946D4F8B4036E
:1030A00005F036F870BD70B504460D46C5EBC50396
:1030B00004F5EE7101EB8301CA682946D4F8B40324
:1030C00005F093F870BD10B50446D4F8B40305F0CC
:1030D000D2F810BD70B504460D4605F0800080287A
:1030E00008D105F07F00C0EBC00104F1380000EB0F
:1030F000810605E0C5EBC50104F5EE7000EB810625
:103100000020B07005F07F003070C5F3C010707003
:1031100000BF94F88003012801D1022070BD012076
:1031200084F8800300BF3146206805F0F3FC00BF3F
:10313000002084F8800300BF00BFEFE72DE9F047CF
:1031400005460E4690461F464FF0000906F08000E7
:10315000802808D106F07F00C0EBC00105F13800DF
:1031600000EB810407E006F07F00C0EBC00105F52D
:10317000EE7000EB810406F07F00207006F0800006
:10318000C0096070C4F80880E770607808B12078E2
:10319000E080022F01D10020207100BF95F880034C
:1031A000012802D10220BDE8F087012085F88003C4
:1031B00000BF2146286805F02FFB00BF002085F8DE
:1031C000800300BF4846EEE72DE9F04104460E4675
:1031D0001746984606F07F00C0EBC00104F5EE707C
:1031E00000EB8105EF60C5F814800020A8616870CD
:1031F00006F07F0028702069012800D12F6100BFF0
:1032000094F88003012802D10220BDE8F08101205A
:1032100084F8800300BF06F07F0028B9227C29468D
:10322000206805F07DFB04E0227C2946206805F03B
:10323000FBFC00BF002084F8800300BF00BFE4E770
:1032400070B504460D4605F08000802808D105F0D1
:103250007F00C0EBC00104F1380000EB810605E0FF
:10326000C5EBC50104F5EE7000EB81060120B070DE
:1032700005F07F003070C5F3C010707000BF94F887
:103280008003012801D1022070BD012084F8800351
:1032900000BF3146206805F081FC05F07F0028B9A9
:1032A000217C04F56172206805F012FC00BF00204B
:1032B00084F8800300BF00BFE6E72DE9F041044633
:1032C0000E461746984606F07F00C0EBC00104F199
:1032D000380000EB8105EF60C5F814800020A8617C
:1032E0000120687006F07F0028702069012800D155
:1032F0002F6100BF94F88003012802D10220BDE8AD
:10330000F081012084F8800300BF06F07F0028B917
:10331000227C2946206805F003FB04E0227C294634
:10332000206805F081FC00BF002084F8800300BF06
:1033300000BFE4E72DE9FC5F044626684FF0000B70
:10334000002001908146002500908046F74F2068BC
:1033500005F00CFE00286CD1206805F03FFE08B98E
:10336000BDE8FC9F206805F039FE00F0020002284D
:1033700005D12068406900F002002168486120689A
:1033800005F02CFE00F40020B0F5002F7ED10025C2
:10339000206805F0F9FD019075E0019800F001004A
:1033A00000286CD0E9B2206805F00DFE814609F0D6
:1033B0000100E8B3012106F5306000EB45108160A3
:1033C000206901282BD1C5EBC50104F5EE7000EB97
:1033D0008100816806F5306000EB45100069C0F39C
:1033E0001200091AC5EBC50204F5EE7000EB82006D
:1033F0008161C5EBC50104F5EE7000EB8100C5EB02
:10340000C502C16804F5EE7000EB820080680144DB
:10341000C5EBC50204F5EE7000EB8200C160E9B2B5
:103420002046FFF740FE2069012811D105B901E0CF
:103430000EE0B2E2C5EBC50104F5EE7000EB8100D1
:10344000406928B904F561720121206805F040FB4C
:1034500009F00800082808D1204600F007FB0821E1
:1034600006F5306000EB4510816009F0100010286F
:1034700005D1102106F5306000EB451081606D1C10
:103480000198400801900198002800E000E084D1F4
:10349000206805F0A3FD00F48020B0F5802F7DD1D9
:1034A000206805F068FD0190002585E0019800F096
:1034B000010000287CD0E9B2206805F06EFD81464D
:1034C00009F00100F0B30120A840009040F634005C
:1034D00080590099884340F634018851012106F54E
:1034E000106000EB451081602069012815D1C5EB03
:1034F000C50104F1380000EB8100C5EBC502C168CD
:1035000004F1380000EB820080680144C5EBC5027D
:1035100004F1380000EB8200C160E9B22046FFF7F9
:10352000B2FD2069012810D165B9C5EBC50104F1D0
:10353000380000EB8100406920B904F56172012177
:10354000206800E001E005F0C3FA09F0080008284F
:1035500005D1082106F5106000EB4510816009F0E7
:103560001000102805D1102106F5106000EB451061
:10357000816009F04000402805D1402106F5106027
:1035800000EB4510816009F00200022805D10221FC
:1035900006F5106000EB4510816001E010E007E0E7
:1035A00009F08000802803D12946204602F09EFBC6
:1035B0006D1C019840080190019800287FF476AFB7
:1035C000206805F00BFD00F00040B0F1004F10D175
:1035D00040F60400805920F0010140F604008151BA
:1035E000204600F01CFA2068406900F00040216885
:1035F0004861206805F0F2FC00F40060B0F5006F4F
:103600000ED140F60800805900F0010010B12046AC
:1036100000F036FA2068406900F4006021684861D3
:10362000206805F0DBFC00F48050B0F5805F5CD1D1
:1036300040F60400805920F0010140F60400815159
:103640000021206805F058FC4FF0000B0CE0FF2132
:1036500006F5106000EB4B10816006F5306000EB62
:103660004B1081600BF1010B60685845EFD84FF0AB
:10367000FF3140F618008151001D805940F00111C2
:1036800040F61C008151206B70B1D6F8840840F0E0
:103690000B01C6F8841840F64400805940F00B0135
:1036A00040F6440081510EE040F61400805940F08D
:1036B0000B0140F614008151001F805940F00B01AE
:1036C0004FF401608151D6F8000820F4FE60C6F87E
:1036D0000008217C04F56172206805F0F9F9206882
:1036E000406900F4805021684861206805F076FC4C
:1036F00000F40050B0F5005F6FD1206805F0EEF8DF
:103700002068C06820F470502168C860206805F007
:103710000BFC68B90021E1604FF400716161206821
:10372000C06840F410502168C86084E00095BA0A6F
:103730000321E1604021616100F0A4FA0746984846
:10374000874209D39748874206D22068C06840F470
:1037500070502168C8606EE09248874209D3924851
:10376000874206D22068C06840F460502168C86073
:1037700061E08D48874209D38C48874206D2206891
:10378000C06840F450502168C86054E087488742C0
:1037900009D38748874206D22068C06840F4405069
:1037A0002168C86047E08248874209D38148874240
:1037B00006D22068C06840F430502168C8603AE002
:1037C0007C4887420AD37C48874207D22068C06879
:1037D00040F420502168C8602DE035E076488742EB
:1037E00009D37648874206D22068C06840F410505A
:1037F0002168C8601FE07148874209D3704887423A
:1038000006D22068C06840F400502168C86012E009
:103810006B48874209D36B48874206D22068C0684C
:1038200040F4E0502168C86005E02068C06840F4BA
:10383000C0502168C860204600F0D8F82068406970
:1038400000F4005021684861206805F0C7FB00F0D3
:103850001000102845D12068806920F010002168F0
:103860008861D6F8208008F00F00C0EBC00104F595
:10387000EE7000EB810AC8F3434002281AD147F6E4
:10388000F07008EA000030B3C8F30A123046DAF8E4
:103890000C1005F0A9FBC8F30A11DAF80C00084473
:1038A000CAF80C00C8F30A11DAF818000844CAF87C
:1038B000180010E0C8F3434006280CD1082204F594
:1038C0006171304605F090FBC8F30A11DAF8180070
:1038D0000844CAF818002068806940F01000216888
:1038E0008861206805F07AFB00F00800082808D1FC
:1038F000204600F09BF82068406900F0080021682D
:103900004861206805F06AFB00F48010B0F5801F64
:1039100009D1E9B2204600F057F82068406900F468
:10392000801021684861206805F058FB00F4001001
:10393000B0F5001F09D1E9B2204600F04EF820682A
:10394000406900F4001021684861206805F046FBDA
:1039500000F08040B0F1804F08D12046FFF78CFB8B
:103960002068406900F0804021684861206805F0C7
:1039700035FB00F0040004280FD12068D0F8048043
:1039800008F00400042802D12046FFF79CFB2068C1
:10399000406840EA08002168486000BFE0E4000099
:1039A000C0ACD800C0E1E4000024F400807306013C
:1039B000A0491A01002D310140A44C0100366E01CE
:1039C00020ABA6010048E80170B504460D46294623
:1039D000D4F8B40304F078FC70BD70B504460D460D
:1039E0002946D4F8B40304F072FC70BD70B50446E7
:1039F0000125E06810B1022804D101E0002503E0B0
:103A0000012501E0012500BF00BF2946D4F8B40319
:103A100004F0BAFCD4F8B40304F07CFC70BD10B51B
:103A20000446D4F8B40304F097FC10BD10B5044666
:103A3000D4F8B40304F097FC10BD70B504460D46ED
:103A400000BF94F88003012801D1022070BD01203D
:103A500084F8800300BF2946206805F0D6FA00BF2D
:103A6000002084F8800300BF00BFEFE710B50446D4
:103A700004F56171D4F8B40304F094FC10BD0000A7
:103A800010B50446D4F8B40304F0CDFC2068D0F897
:103A9000000E40F001002168C1F8000E206A28B134
:103AA0000348006840F006000149086010BD0000AE
:103AB00010ED00E070B504460D4600266D48006824
:103AC00000F00F00A84209D26A490D70084600684C
:103AD00000F00F00A84201D0012070BD207800F056
:103AE0000200022807D16448006820F0F000A168B5
:103AF000084361490860207800F00100002877D071
:103B00006068012807D15C4808380068C0F340406D
:103B1000B8B90120E1E76068022802D06068032894
:103B200007D1554808380068C0F3406048B9012003
:103B3000D3E7514808380068C0F3400008B90120B5
:103B4000CBE74D48006820F00300616808434A490C
:103B50000860FFF779F906466068012810D108E08F
:103B6000FFF772F9801B41F28831884201D90320A6
:103B7000B3E74148006800F00C000428F0D137E0BA
:103B80006068022810D108E0FFF75EF9801B41F25F
:103B90008831884201D903209FE73748006800F048
:103BA0000C000828F0D123E06068032810D108E059
:103BB000FFF74AF9801B41F28831884201D903207E
:103BC0008BE72D48006800F00C000C28F0D10FE0C6
:103BD00008E0FFF739F9801B41F28831884201D9AA
:103BE00003207AE72448006800F00C000028F0D198
:103BF0002048006800F00F00A84209D91D490D7047
:103C00000846006800F00F00A84201D0012064E7D8
:103C1000207800F00400042807D11748006820F439
:103C2000E050E168084314490860207800F008007B
:103C3000082808D11048006820F46040216940EA53
:103C4000C1000D49086000F04FF80B49096801F008
:103C5000F001F02292FAA2F2B2FA82F2D140074ABF
:103C6000515CC840064908600020FFF719F90020A0
:103C700033E70000003C024008380240F0A2000890
:103C8000080000200148006870470000080000207C
:103C900000B5FFF7F7FF0749096801F4E0514FF459
:103CA000E05292FAA2F2B2FA82F2D140024A515C98
:103CB000C84000BD08380240F0A2000800B5FFF778
:103CC000E1FF0749096801F460414FF4604292FA4C
:103CD000A2F2B2FA82F2D140024A515CC84000BD61
:103CE00008380240F0A2000870B50021002200232D
:103CF0000020274C246804F00C0424B1042C04D0C8
:103D0000082C41D103E0234840E023483EE0204C0A
:103D1000241F246804F03F011D4C241F246804F470
:103D2000800484B11C4CB4FBF1F5194C241F2468A9
:103D300047F6C076344096FAA6F6B6FA86F6F44010
:103D400005FB04F20FE0134CB4FBF1F5104C241FFB
:103D5000246847F6C076344096FAA6F6B6FA86F698
:103D6000F44005FB04F20A4C241F246804F4403498
:103D70004FF4403595FAA5F5B5FA85F5EC40641C8D
:103D80006300B2FBF3F001E0024800BF00BF70BD6A
:103D9000083802400024F400001BB70038B5044680
:103DA0000025207800F00100002848D0DE48006897
:103DB00000F00C0004280DD0DB48006800F00C0077
:103DC000082811D1D848001F006800F48000B0F521
:103DD000800F09D1D44808380068C0F3404070B360
:103DE000606860BB012038BD2079CF49891F087009
:103DF000606890B1FFF728F8054606E0FFF724F861
:103E0000401B642801D90320EDE7C7480838006843
:103E1000C0F340400028F1D011E0FFF715F8054647
:103E200006E0FFF711F8401B642801D90320DAE708
:103E3000BD4808380068C0F340400028F1D1207820
:103E400000F00200022869D1B748006800F00C00B9
:103E500058B1B548006800F00C00082821D1B248DC
:103E6000001F006800F48000D8B9AF480838006827
:103E7000C0F3400020B1E068012801D00120B2E782
:103E8000A9480838006820F0F800F82292FAA2F257
:103E9000B2FA82F2216991400843A34908390860C7
:103EA0003CE0E06828B30120A0490860FEF7CCFFA1
:103EB000054606E0FEF7C8FF401B022801D9032093
:103EC00091E7994808380068C0F340000028F1D015
:103ED00095480838006820F0F800F82292FAA2F21B
:103EE000B2FA82F22169914008438F49083908608B
:103EF00014E000208D490860FEF7A6FF054606E0A5
:103F0000FEF7A2FF401B022801D903206BE7864879
:103F100008380068C0F340000028F1D1207800F094
:103F2000080008282CD16069A8B1012080490860E8
:103F3000FEF78AFF054606E0FEF786FF401B0228D3
:103F400001D903204FE778486C300068C0F3400087
:103F50000028F1D014E0002075490860FEF774FFD6
:103F6000054606E0FEF770FF401B022801D903203A
:103F700039E76D486C300068C0F340000028F1D18B
:103F8000207800F00400042857D100BF00200090E2
:103F900065483830006840F0805063493831086027
:103FA0000846006800F08050009000BF00BF6148E4
:103FB000006840F480705F490860FEF745FF0546E1
:103FC00006E0FEF741FF401B022801D903200AE763
:103FD0005848006800F480700028F2D0207A5249D6
:103FE00068310870A068A0B1FEF72EFF054608E012
:103FF000FEF72AFF401B41F28831884201D9032095
:10400000F1E6494868300068C0F340000028EFD06E
:1040100013E0FEF719FF054608E0FEF715FF401B09
:1040200041F28831884201D90320DCE63E486830FD
:104030000068C0F340000028EFD1A069F0B33A480F
:10404000006800F00C00082869D0A069022850D14F
:10405000002036490866FEF7F7FE054606E0FEF743
:10406000F3FE401B022801D90320BCE62E48083885
:104070000068C0F340600028F1D1D4E9070108438B
:1040800047F6C07292FAA2F2B2FA82F2616A9140E5
:1040900008430122A16AC2EB51014FF4403292FA67
:1040A000A2F2B2FA82F2914008434FF0706292FAA3
:1040B000A2F2B2FA82F2E16A914000E031E00843F4
:1040C0001949091F0860012018490866FEF7BCFE5F
:1040D000054606E0FEF7B8FE401B022801D9032082
:1040E00081E6114808380068C0F340600028F1D02C
:1040F00017E000200D490866FEF7A6FE054606E01B
:10410000FEF7A2FE401B022801D903206BE60648F9
:1041100008380068C0F340600028F1D101E00120B8
:1041200061E600205FE600000838024000004742D8
:10413000800E474200700040042808D14FF0E02173
:10414000096941F004014FF0E022116107E04FF0EE
:10415000E021096921F004014FF0E022116170476C
:10416000704770B504462546681EB0F1807F01D3C4
:1041700001200FE0681E4FF0E02148610F214FF051
:10418000FF3001F097FD00204FF0E021886107200B
:104190000861002070BD10B5FFF7E2FF10BD704749
:1041A0007047024600BF92F83800012801D1022072
:1041B0007047012082F8380000BF022082F83900E1
:1041C0001068406820F070001368586010684068FC
:1041D0000B681843136858601068806820F08000EE
:1041E00013689860106880684B681843136898607B
:1041F000012082F8390000BF002082F8380000BF9B
:1042000000BFD5E710B504460CB9012010BD94F8E5
:10421000390028B9002084F83800204600F00CF856
:10422000022084F83900211D206802F0B5FE01202B
:1042300084F839000020E9E710B598B004462068FA
:10424000B0F1804F5FD100BF00200090654800684A
:1042500040F00100634908600846006800F0010072
:10426000009000BF00BF88140F900FA9204600F0F7
:10427000DCF800200D900E900DA92046FFF791FF6D
:1042800000200A90602006904FF47A70079000207A
:104290000890002206A9204600F035FA042206A95B
:1042A000204600F030FA082206A9204600F02BFA3A
:1042B0000C2206A9204600F026FA0F2001900220C9
:1042C00002900020039004900120059001A9464827
:1042D000FEF79EFC002201211C20FEF77AFE1C2026
:1042E000FEF76AFE0021414800F068FA04213F48C9
:1042F00000F064FA08213D4800F060FA0C213B48C8
:1043000000F05CFA1EE03A49206888421AD100BFEA
:10431000002012903348006840F0020031490860E4
:104320000846006800F00200129000BF00BF0022A3
:1043300002211D20FEF74DFE1D20FEF73DFE2D48FB
:1043400000F064F8142113A8FBF765FF2A492068E0
:10435000884226D100BF002012902248006840F019
:104360000400204908600846006800F0040012902C
:1043700000BF00BF4FF440501390022014901590DE
:104380001690179013A91D48FEF742FC0022052144
:104390001E20FEF71EFE1E20FEF70EFE184800F03F
:1043A00035F81849206888421AD100BF00201290C1
:1043B0000C48006840F008000A4908600846006898
:1043C00000F00800129000BF00BF0222002132203E
:1043D000FEF7FFFD3220FEF7EFFD0B4800F016F868
:1043E00018B010BD4038024000000240141B0020ED
:1043F00000040040501B002000080040000C024058
:104400008C1B0020000C0040C81B002001460868DF
:10441000C06840F001000A68D0600868006840F099
:1044200001000A681060002070472DE9F041044641
:104430000D46002600BF94F83800012802D1022062
:10444000BDE8F081012084F8380000BF022084F824
:1044500039002068866826F0770626F47F462068B3
:104460008660286850283BD00CDC202860D004DC13
:10447000002853D0102865D155E030285DD0402861
:1044800060D141E0602835D070280DD0B0F5805F54
:1044900003D0B0F5005F55D115E02068806820F0AA
:1044A0000700216888604EE0D5E902136A68206839
:1044B00002F0F2FD2068866826F0770646F077065F
:1044C000206886603FE0D5E902136A68206802F040
:1044D000E3FD2068806840F480402168886032E015
:1044E000EA686968206802F0CDFE5021206802F079
:1044F000DFFD28E0EA686968206802F0D8FE6021E4
:10450000206802F0D5FD1EE0EA686968206802F0C4
:10451000B9FE4021206802F0CBFD14E000212068A4
:1045200002F0C6FD0FE01021206802F0C1FD0AE094
:104530002021206802F0BCFD05E03021206802F057
:10454000B7FD00E000BF00BF012084F8390000BFC4
:10455000002084F8380000BF00BF71E710B50446A2
:104560000248844201D105F031FC10BD8C1B0020B3
:1045700010B5044620680069C0F34000D8B1206837
:10458000C068C0F34000B0B16FF00200216808615C
:10459000012020762068806900F0030018B12046D1
:1045A000FFF7DCFF05E0204600F0E8F8204600F0C9
:1045B0002BF90020207620680069C0F38000D8B174
:1045C0002068C068C0F38000B0B16FF004002168BB
:1045D0000861022020762068806900F4407018B1DC
:1045E0002046FFF7BBFF05E0204600F0C7F8204655
:1045F00000F00AF90020207620680069C0F3C000AE
:10460000D8B12068C068C0F3C000B0B16FF0080036
:1046100021680861042020762068C06900F003004A
:1046200018B12046FFF79AFF05E0204600F0A6F8F3
:10463000204600F0E9F80020207620680069C0F3E9
:104640000010D8B12068C068C0F30010B0B16FF09E
:10465000100021680861082020762068C06900F4F5
:10466000407018B12046FFF779FF05E0204600F0C2
:1046700085F8204600F0C8F8002020762068006900
:1046800000F0010058B12068C06800F0010030B1AE
:104690006FF0010021680861204600F0B7F820683B
:1046A0000069C0F3C01058B12068C068C0F3C010E2
:1046B00030B16FF08000216808612046FFF76FFD80
:1046C00020680069C0F3801058B12068C068C0F34A
:1046D000801030B16FF0400021680861204600F082
:1046E000F7F920680069C0F3401058B12068C0682D
:1046F000C0F3401030B16FF02000216808612046FF
:10470000FFF74EFD10BD70B504460E46154600BFBE
:1047100094F83800012801D1022070BD012084F8EE
:10472000380000BF022084F8390035B1042D09D0CB
:10473000082D0CD00C2D14D10EE03146206802F06B
:10474000C1FC0FE03146206802F0F4FC0AE031467B
:10475000206802F02BFD05E03146206802F062FD82
:1047600000E000BF00BF012084F8390000BF002036
:1047700084F8380000BF00BFCFE700000D49884231
:1047800009D1017E012913D0017E022910D0017EBA
:1047900004290DD00CE00849884209D1017E012985
:1047A00006D0017E022903D0017E042900D000BF7B
:1047B00070470000141B00208C1B002030B50446FD
:1047C0000D4601222946206802F058FC0C49206859
:1047D000884203D00B492068884201D1012000E0C3
:1047E000002028B12068406C40F4004021684864F3
:1047F0002068006840F0010021680860002030BD9A
:104800000000014000040140704700001CB5044650
:10481000824884427DD18248006840F4807080499B
:10482000086005F037FB7F4890ED000AF7EE000ABC
:1048300030EE200A80ED000A90ED000ADFED7A0AE2
:10484000B4EEE00AF1EE10FA03DD9FED770A80ED99
:10485000000A7648807F032803D07448807F0128AF
:104860002DD17348408B73490988884227D16F48FE
:10487000407F022823DD7048007800BB6F4890ED30
:104880002E0AF7EE000AB4EEE00AF1EE10FA16D2A4
:104890006B4890ED000AF7EE000A30EE200A80ED3A
:1048A000000A90ED000ADFED670AB4EEE00AF1EECF
:1048B00010FA09DD9FED630A80ED000A04E09FED28
:1048C000620A5F4880ED000A5D4890ED000ADFED66
:1048D0005D0AB4EE600AF1EE10FA02D101205649E9
:1048E00008705A480078012808D1594890ED000A0C
:1048F000F7EE000A30EE200A80ED000A544890EDF1
:10490000000ADFED540AB4EEE00AF1EE10FA05DD1C
:1049100000E004E09FED4F0A80ED000A7DE04E4884
:1049200084427AD13E48006840F480503C49086097
:1049300000214A48FDF7A2FC3C48807F022808D1AC
:10494000474890ED000AF7EE000A30EE200A80EDAD
:10495000000AFBF7CDFF01F063FE424890ED610ACB
:10496000BDEEC00A10EE100A00B23F4991ED610A97
:10497000BDEEC00A10EE101A09B2CDE900102F48A2
:1049800090EDC30ABDEEC00A10EE100A03B22B4828
:1049900090ED610ABDEEC00A10EE100A02B24FF4AB
:1049A00000712E4802F0A5F9FBF7C4FF00F0ECFC03
:1049B0002E48D0ED040AB0EE600A2D48D0ED000A72
:1049C0002A48E03001F0E4F9284880ED610A90EDD2
:1049D000C30ABDEEC00A10EE100A00B2234991EDE1
:1049E000610ABDEEC00A10EE101A09B2CDE900103E
:1049F000204890ED060ABDEEC00A10EE100A03B280
:104A00001D4890ED610ABDEEC00A10EE100A02B218
:104A100040F2FF11114802F06CF91CBD501B002040
:104A2000800000209C040020000016444C0300205D
:104A30001C160020A6030020B0030020A4050020BF
:104A4000AC03002000803B4500000000080400206B
:104A50000C04002000009643C81B002054170020BF
:104A60008C0300203C0A0020B4080020C40B002066
:104A70002C040020B4000020D40E002002460023A5
:104A800000BF92F83800012801D1022070470120B0
:104A900082F8380000BF31B1042907D0082908D0B6
:104AA0000C290CD108E01068436B09E01068836B97
:104AB00006E01068C36B03E01068036C00E000BF01
:104AC00000BF00BF002082F8380000BF1846DDE7B5
:104AD000704770472DE9F047044620680568206854
:104AE000C668206847694FF00008C14605F00F0806
:104AF000B8F1000F0AD105F0200038B106F020000F
:104B000020B1204602F052FFBDE8F087B8F1000F57
:104B10006DD007F0010018B906F49070002866D037
:104B200005F0010030B106F4807018B1E06B40F080
:104B30000100E06305F0040030B107F0010018B196
:104B4000E06B40F00200E06305F0020030B107F0D6
:104B5000010018B1E06B40F00400E06305F00800CC
:104B600030B107F0010018B1E06B40F00800E063DD
:104B7000E06B68B305F0200028B106F0200010B10A
:104B8000204602F013FF20684069C0F38019E06BF3
:104B900000F0080010B9B9F1000F22D0204602F051
:104BA000DBFE2068406900F04000B0B12068406939
:104BB00020F0400021684861606B50B11748616B7C
:104BC0000865606BFDF7D5FD10B1606B016D88471E
:104BD0000CE02046FFF77DFF08E02046FFF779FF55
:104BE00004E02046FFF775FF0020E0638CE705F046
:104BF000800030B106F0800018B1204603F0D8F8EC
:104C000082E705F0400030B106F0400018B12046C0
:104C100002F0B2FE78E700BF76E70000A178000856
:104C200010B586B004467349206888421ED100BF83
:104C3000002000907048006840F010006E49086045
:104C40000846006800F01000009000BF00BFC020C0
:104C5000019002200290002003900320049007207E
:104C6000059001A96548FDF7D3FFC0E064492068BD
:104C7000884220D100BF002000905F48001F0068DC
:104C800040F400305C49091F08600846006800F4E1
:104C90000030009000BF00BF0C2001900220029065
:104CA00000200390032004900720059001A9554897
:104CB000FDF7AEFF9BE054492068884229D100BF30
:104CC000002000904C48001F006840F480204A49B2
:104CD000091F08600846006800F48020009000BFAB
:104CE00000BF4FF44070019002200290002003901A
:104CF000032004900720059001A94448FDF788FF90
:104D0000002202212720FEF764F92720FEF754F93C
:104D10006DE03F49206888421FD100BF002000900D
:104D20003548006840F020003349086008460068B4
:104D300000F02000009000BF00BF4FF484400190BD
:104D40000220029000200390032004900820059088
:104D500001A93048FDF75CFF49E02F4920688842EF
:104D600020D100BF002000902348001F006840F0C1
:104D700000402149091F08600846006800F0004013
:104D8000009000BF00BF032001900220029000208D
:104D90000390032004900820059001A91F48FDF707
:104DA00037FF24E01E492068884220D100BF002040
:104DB00000901148001F006840F080400E49091F14
:104DC00008600846006800F08040009000BF00BF07
:104DD0004FF4C07001900220029000200390032045
:104DE00004900820059001A90C48FDF711FF06B0BA
:104DF00010BD000000100140443802400004024091
:104E0000004400400000024000480040000C024006
:104E10000014014000180240007C004000100240D5
:104E200000780040F7B50446154694F83A0020286B
:104E300043D1019800B10DB90120FEBD00BF94F827
:104E40003800012801D10220F7E7012084F838005A
:104E500000BF0198A062A5850020E063222084F8AD
:104E60003A001748616BC8631648616B08641648BE
:104E7000616BC8640020616B086501AE326823680D
:104E8000191D2B46606BFDF751FE2068C06840F489
:104E900080702168C8602068406940F00100216886
:104EA00048612068406940F040002168486100BFC7
:104EB000002084F8380000BFBFE70220BDE70000F3
:104EC000057900084B790008B578000810B504464C
:104ED0002A4884420CD100202949086029492A48DF
:104EE00001F038FD242228492448FFF79BFF43E0C6
:104EF0002648844211D10020254908609FED250AEB
:104F0000254880ED000A2549254802F0F5F90B22D5
:104F100023491E48FFF786FF2EE0224884421AD11B
:104F20000020214908602C21204800F093F82048F7
:104F300090ED030A1F4880ED030A04F093FA1C4821
:104F400090ED050A1C4880ED000A2C2217491548EF
:104F5000FFF768FF10E0194884420DD1184A19493B
:104F6000194804F05BFE05F069F800F0E7F930221B
:104F700015491248FFF756FF10BD0000401C0020E5
:104F8000E00400206C050020C01D0020C01C002093
:104F9000F404002000000000A4040020B416002047
:104FA000E41D0020001D002008050020EF1D00204A
:104FB0002C170020B400002064040020401D0020B5
:104FC0000C0000201C1600201B1E00207047000053
:104FD0000349884202D1202180F83910704700002F
:104FE000C01C00209FED170A174880ED060A9FEDB0
:104FF000150A80ED070A9FED130A80ED080A9FED60
:10500000110A80ED000A9FED0F0A80ED010A9FED65
:105010000D0A80ED020A0D4890ED040A0A4880ED61
:10502000030A9FED080A80ED040A094890ED5F0A23
:10503000B1EE400A044880ED050A0020024981F8DB
:1050400024007047000000002C170020B40000204E
:10505000D40E002070B502460B4600200221012428
:105060000025AE4E86F8245002B970BD00BF002066
:105070004CE1155C552D7CD1014609E0A74D95F812
:105080002450565C3544A54E86F824504D1CE9B298
:1050900000F10A05A942F1DBA04D95F8246000F16A
:1050A0000A05555DAE4265D1451C555D512D7DD03B
:1050B000522D7CD0532D7BD1851C555DC61C965D31
:1050C000360236B2354300EE105AB8EEC00A9FEDF4
:1050D000941AC0EE010A9FED931A9FED920A10EE0A
:1050E000810A8E4D85ED000A95ED000ADFED8E0AEE
:1050F000B4EEE00AF1EE10FA0AD895ED000AB1EE2E
:10510000400ADFED8A0A30EE600A85ED000A06E00B
:10511000824D95ED000AB1EE400A85ED000A051DAD
:10512000555D461D965D360236B2354300EE105A87
:10513000B8EEC00A9FED7A1AC0EE010A9FED791A07
:105140009FED780A10EE810A744D85ED010A851DE8
:10515000555DC61D965D360236B2354300EE105AD7
:10516000B8EEC00A9FED6E1AC0EE010A9FED6D1AEF
:1051700001E0C9E0C3E09FED6B0A10EE810AFFEE8B
:10518000000A20EE200A654D85ED020A95ED020A1F
:10519000B5EEC00AF1EE10FA0BDD95ED020ADFED77
:1051A000610A30EE600A85ED020A12E056E011E075
:1051B000A3E05A4D95ED020AB5EEC00AF1EE10FAE1
:1051C00007D295ED020ADFED570A30EE200A85ED91
:1051D000020A93E0851C565DC51C555D46EA05250F
:1051E0002DB26D4200EE105AF8EEC00A9FED4C1A37
:1051F00080EE810ADFED4E0A20EE200A474D85ED54
:10520000030A051D565D451D555D46EA05252DB26F
:1052100000EE105AB8EEC00A9FED411AC0EE010A26
:105220009FED430A20EE800A3C4D85ED040A851D62
:10523000565DC51D555D46EA05252DB200EE105A96
:10524000F8EEC00A9FED361A80EE810ADFED380ACB
:1052500020EE200A314D85ED050A4FE0851C565D94
:10526000C51C555D46EA05252DB200EE105AF8EE34
:10527000C00A9FED2B1A80EE810AF3EE000A20EEA1
:10528000200ADFED2C0A20EE200A244D85ED060AC7
:10529000051D565D451D555D46EA05252DB200EEFE
:1052A000105AF8EEC00A9FED1E1A80EE810AF3EE46
:1052B000000A20EE200ADFED1F0A20EE200A174D1B
:1052C00085ED070A851D565DC51D555D46EA052518
:1052D0002DB200EE105AF8EEC00A9FED111A80EEC2
:1052E000810AF3EE000A20EE200ADFED120A20EE1A
:1052F000200A0A4D85ED080A00E000BF00BF002526
:10530000064E86F824500024451CE8B2A3F10A0595
:1053100085423FF7AEAE00BFA7E600002C17002085
:105320000000004700003443000034C30000B443D1
:105330000000FA44CDCC1C4100BFFEE70E48B0F897
:10534000310000EE100AB8EE400A0C4880ED000A69
:1053500090ED000A0A48D0ED000AB4EE600AF1EEC2
:1053600010FA02D0012007490872044890ED000AA3
:10537000034880ED000A70471C16002054040020EA
:10538000580400203405002000B500F045F81E4800
:1053900090ED030ADFED1D0A30EE600A80ED030A8E
:1053A00090ED030AB5EEC00AF1EE10FA03D89FEDB6
:1053B000170A80ED030A1448007A01280CD114481A
:1053C000B0F8310000EE100AB8EE400A0E4880ED49
:1053D000030A00200C4908720B48D0ED030A0C4860
:1053E000008C2D3800EE100AB8EEC00AF4EEC00AA8
:1053F000F1EE10FA03D201200649087002E0002005
:105400000449087000BD00003405002000000000C1
:105410001C160020290400201148D0F84B00114927
:105420000860084690ED000A0F48D0ED000AB4EE7F
:10543000600AF1EE10FA0CD00C48D0ED030A0848CF
:10544000D0F84B0000EE100A30EE800A074880EDDD
:10545000030A044890ED000A034880ED000A7047F3
:105460001C1600204C0400205004002034050020AD
:1054700010B5044639483A490860C1F88801C1F8B6
:105480001003C1F898043749086037490860C1F82B
:105490008801364908603649086036490860364850
:1054A00036490860C1F894003548364908613649E4
:1054B0000861364836490860364837490860284848
:1054C000016888472648D0F8881100F5C4708847DD
:1054D0002348D0F8101300F5447088472048D0F8CE
:1054E000981400F5936088471E48016888471E4855
:1054F000016888471C48D0F8881100F5C4708847B7
:105500001A48016888471A4801688847194801689D
:1055100088471A48016888471848D0F89410943092
:10552000884718480169884717480169884718481B
:10553000016888471848016888471848206001209A
:105540002071022161710021402001554220015546
:10555000412001554320015510BD0000655C000845
:10556000A40500206C130020C40B0020D40E0020E2
:105570005C100020E4110020E1600008F414002019
:10558000215C0008E0040020F4040020AD6700085E
:105590006C050020DD720008B4160020711C0008A4
:1055A0009FED0F0A80ED030A0E4901600E4A026169
:1055B000BAEE040A80ED050A0C4A826103211C3010
:1055C0008170012101700021417101218171B7EECB
:1055D000000A80ED020A017341731C387047000015
:1055E00000000000590E000835930008C962000849
:1055F00010B52DED0A8BB0EE409AB0EE608A29EE20
:10560000090A08EE080A10EE101A0846FAF7B4FF65
:1056100041EC1C0BB0EE4C0AF0EE6C0A03F0CEFF2E
:10562000B0EE40BAF0EE60BA03F0D2FFB0EE40AA9E
:10563000F0EE60AA51EC1A0BFAF7E2FF08EE900ABE
:105640001C48C06800EE100AF1EE040AB4EEE00A4D
:10565000F1EE10FA0DD2184890ED060AB4EEE80A01
:10566000F1EE10FA03DD0120BDEC0A8B10BD002025
:10567000FAE71048C06800EE100AF2EE040AB4EE31
:10568000E00AF1EE10FA0ADDB6EE000AF4EEC08A86
:10569000F1EE10FA01D20120E6E70020E4E7B7EED0
:1056A000000AF4EEC08AF1EE10FA01D20120DBE725
:1056B0000020D9E7B41600203405002010B50E48AC
:1056C0000E4908600320486000210C488160C160D9
:1056D0004FF4002101614FF44011416100218161CB
:1056E000C1610162416281620121C162FCF7A8FCD3
:1056F00008B1FBF7DFFF10BD006400405417002025
:1057000000B587B000BF002001907E48006840F0DF
:1057100010007C4908600846006800F01000019005
:1057200000BF00BF00BF002001900846006840F0A5
:10573000400008600846006800F04000019000BF8B
:1057400000BF00BF002001900846006840F0020042
:1057500008600846006800F00200019000BF00BF2A
:1057600000BF002001900846006840F0010008607A
:105770000846006800F00100019000BF00BF00BFB4
:10578000002001900846006840F0080008600846C4
:10579000006800F00800019000BF00BF00BF0020BB
:1057A00001900846006840F4807008600846006870
:1057B00000F48070019000BF00BF00BF0020019086
:1057C0000846006840F0800008600846006800F065
:1057D0008000019000BF00BF00BF0020019008467C
:1057E000006840F0200008600846006800F02000D3
:1057F000019000BF00BF02200290434803900020A8
:10580000049002A94148FDF703FA4FF400500290BA
:105810000120039000200490059002A93C48FDF768
:10582000F7F944F240000290012003900020049018
:10583000059002A93748FDF7EBF94FF4806002901C
:1058400000200390049002A93348FDF7E1F94FF4DA
:10585000006002900120039000200490059002A9AE
:105860002A48FDF7D5F9022002900020039001207C
:10587000049002A92748FDF7CBF9012002900020EF
:1058800003900120049002A92248FDF7C1F94FF4CA
:1058900000700290214803900120049002A9204842
:1058A000FDF7B6F9002211460620FDF792FB06200F
:1058B000FDF782FB002211460720FDF78AFB072037
:1058C000FDF77AFB40200290012003900020049015
:1058D000059002A91348FDF79BF94FF48040029010
:1058E000094803900120049002A90B48FDF790F9A4
:1058F000002211462820FDF76CFB2820FDF75CFBF9
:1059000007B000BD30380240000011100010024006
:105910000018024000140240000C02400000211058
:1059200000200240001C024010B50C480C490860E1
:105930000C48486000210A488160C1604FF48061D2
:1059400001610421416100218161C1610022114690
:10595000FDF7E5FA08B1FBF7ADFE10BD0010014000
:10596000401C0020A086010010B50C480C490860BE
:105970004FF4E1304860002109488160C160016155
:105980000C21416100218161C16100221146FDF7B6
:10599000C6FA08B1FBF78EFE10BD000000480040BB
:1059A000C01C002010B50C480C4908604FF4E130D1
:1059B0004860002109488160C16001610C2141619A
:1059C00000218161C16100221146FDF7A8FA08B1EA
:1059D000FBF770FE10BD000000140140001D002008
:1059E00010B50C480C4908604FF4E13048600021C4
:1059F00009488160C16001610C2141610021816120
:105A0000C16100221146FDF78AFA08B1FBF752FE88
:105A100010BD000000780040801D002010B50C482B
:105A20000C4908604FF4E13048600021094881606A
:105A3000C16001610C21416100218161C1610022CD
:105A40001146FDF76CFA08B1FBF734FE10BD0000FB
:105A5000007C0040401D0020F8B505460E46144667
:105A6000614885420FD900BF002000905F48006860
:105A700040F480005D4908600846006800F480003A
:105A8000009000BF0FE000BF002000905748006862
:105A900040F40010554908600846006800F4001002
:105AA000009000BF00BF256066605148844202D16B
:105AB0004021A16001E00021A1600021E1604FF4DC
:105AC0008061216100216161A1614FF48071E16118
:105AD00000216162A162E16221634648844212D1E1
