:020000040800F2
:10000000A82B0020C10100083D6C00080360000817
:10001000B56B00082D0900083B980008000000009F
:100020000000000000000000000000001F78000831
:10003000D7240008000000002B6D0008CD780008D0
:10004000DB010008DB010008DB010008DB01000820
:10005000DB010008DB010008D9240008E3240008C4
:10006000ED240008DB010008DB010008DB010008CB
:100070005D230008DB0100086D230008DB01000898
:100080007D2300088D230008DB01000841090008DA
:1000900031090008DB010008DB010008DB01000872
:1000A000DB010008DB010008DB010008DB010008C0
:1000B000017A0008117A0008497A0008DB0100087B
:1000C000DB010008DB010008DB010008DB010008A0
:1000D000DB010008F1850008DB010008DB010008F6
:1000E000DB010008DB010008DB010008DB01000880
:1000F000DB010008DB010008DB010008DB01000870
:10010000DB010008DB010008597A0008DB01000868
:10011000DB010008DB010008DB010008DB0100084F
:10012000DB0100089D230008AD230008DB01000867
:10013000DB010008DB010008DB01000861090008A1
:1001400051090008DB010008DB010008796C000898
:10015000DB010008DB010008DB010008DB0100080F
:10016000DB010008DB010008DB010008DB010008FF
:10017000DB010008DB010008DB01000800000000D3
:10018000DB010008DB010008DB010008DB010008DF
:10019000DB010008DB010008DB010008DB010008CF
:1001A0000000000000000000DB010008DFF80CD0B8
:1001B00000F036FB0048004779AD0008A82B00206E
:1001C0000648804706480047FEE7FEE7FEE7FEE7F1
:1001D000FEE7FEE7FEE7FEE7FEE7FEE79D790008A3
:1001E000AD01000840EA01039B0703D009E008C9FC
:1001F000121F08C0042AFAD203E011F8013B00F8EC
:10020000013B521EF9D27047D2B201E000F8012B37
:10021000491EFBD270470022F6E710B513460A4686
:1002200004461946FFF7F0FF204610BD2DE9FE4FAA
:10023000804681EA0300C00F0C46009021F0004187
:1002400023F00045B8EB0200A94105D24046214603
:1002500090461C460B46024623F00040104347D010
:10026000270DC7F30A00C3F30A510290401A019008
:1002700040286BDAC3F3130040F4801B00989246C9
:1002800020B10023D2EB030A63EB0B0B0198594614
:10029000C0F14002504600F0BDF906460D465046FA
:1002A0005946019A00F0C5F910EB0800614100249D
:1002B00087EA115284EAE7731A4340D0009A62B386
:1002C000019A012A4FEA075215DC001B61EB02017B
:1002D0004FF0004202EA0752CDE90042001C41F50E
:1002E000801132462B4600F0FCF903B0BDE8F08FD8
:1002F00040462146F9E7001B61EB0201001C41F575
:10030000801300185B412018A2F5001747EB03018A
:1003100040EAD570B6196D4111E06D084FEA360616
:1003200045EAC0754FEA0752001B61EB0201001C51
:1003300041F5801149084FEA300000195141324619
:100340002B4603B0BDE8F04F00F0BCB90098012285
:1003500040000023D0EB020263EBE07300982146DB
:100360004FEAE074B8EB000061EB0401E9E783F0C9
:1003700000435BE781F0004158E72DE9FE4F81EA39
:10038000030404F0004421F0004100944FF0000BFE
:1003900023F0004350EA01045ED052EA03045BD02C
:1003A000C3F30A54C1F30A552C44A4F2F334019464
:1003B000A0FB0254C1F3130141F48011C3F31303F2
:1003C00043F4801301FB024400FB034E840A970AA6
:1003D00044EA815447EA8357A4FB076802958D0AD3
:1003E00005FB07854FEA932C04FB0C542705029D5F
:1003F0004FEA065847EA1637B5EB08056EEB070CCF
:10040000870E920E47EA811742EA8312A7FB020188
:10041000B6EB0B0164EB00042B0D43EA0C335E18C2
:1004200044EB1C50DA465146E7FB0201C5F31304C6
:100430004FEA0B3343EA14534FEA0432019C43EA78
:100440000603A4F10C040294009CCDE900B400F072
:1004500048F903B0BDE8F08F00200146F9E72DE927
:10046000F04D81EA030404F0004B21F000451446EE
:100470004FF0000A23F0004150EA050220D054EA70
:1004800001021DD0C5F30A570246C5F31303C1F399
:100490001300C1F30A5640F4801543F48013A7EB10
:1004A0000608101BD64608F2FD3873EB050002D390
:1004B00008F1010801E092185B41B8F1000F03DA7E
:1004C00000200146BDE8F08D00204FF48011064663
:1004D00084460EE0171B73EB050705D3121B63EB75
:1004E000050306434CEA010C49084FEA3000921814
:1004F0005B4150EA0107EDD152EA030012D082EAD3
:10050000040083EA0501084305D0101BAB4106D265
:100510000122002306E000224FF0004302E06FF0CA
:10052000010253101AEB06004CEB085110EB0A00C5
:1005300041EB0B01BDE8F04D00F0C4B80EB540F240
:10054000334102910021CDE900110A460B4600F02B
:10055000C8F803B000BD00F0004230F000400AD0FF
:10056000C10D01F56071C0F3160042EA0151C208E5
:1005700040071143704700200146704730B5041E04
:1005800071F1000404DB4FF00044404264EB0101D0
:10059000141E73F1000405DB1C464FF00043524269
:1005A00063EB04038B4208BF824230BD30B5041EAA
:1005B00071F1000404DB4FF00044404264EB0101A0
:1005C000141E73F1000405DB1C464FF00043524239
:1005D00063EB0403994208BF904230BD01F0004331
:1005E00030B421F0004150EA010206D00A0DA2F514
:1005F0006072C1F31301002A02DC30BC0020704796
:10060000440F44EAC104C100E01830BC00EBC25002
:1006100000F021B8202A04DB203A00FA02F1002081
:1006200070479140C2F1200320FA03F31943904030
:100630007047202A06DBCB17203A41FA02F043EA42
:10064000E07306E041FA02F3D040C2F1200291408B
:100650000843194670470029A8BF7047401C49004D
:1006600008BF20F00100704710B4B0FA80FC00FA17
:100670000CF050EA010404BF10BC704749B1CCF142
:10068000200421FA04F411FA0CF118BF01212143CE
:100690000843A3EB0C01CB1D4FEA00614FEA102089
:1006A00042BF002010BC704700EBC350104400292B
:1006B000A4BF10BC7047401C490008BF20F00100D7
:1006C00010BC704710B5141E73F1000408DA401C0A
:1006D00041F1000192185B411A4301D120F0010061
:1006E00010BD2DE9F04D92469B4611B1B1FA81F251
:1006F00002E0B0FA80F220329046FFF78BFF04460A
:100700000F4640EA0A0041EA0B0153465A460843A5
:1007100013D0114653EA010019D0C8F140025046E7
:1007200000F090F805460E46504659464246FFF7FF
:1007300071FF084305D0012004E020463946BDE89A
:10074000F08D0020054346EAE0762C4337430A98B3
:100750006305E40AA0EB08000022FD0A44EA4754BE
:100760000A3002D500200146E9E701051019694168
:10077000DDE9084500196941BDE8F04DA2E72DE922
:10078000F04D00231A461B1A8A4103DB0020014664
:10079000BDE8F08DC1F30A52C1F3130141F4801595
:1007A0004FF0000BD10702D100186D41521E0027F7
:1007B000044640F2FF11384601EB620A3E4680468D
:1007C000024600204FF4801100F03CF8C21971413C
:1007D000BB1846EB0100B4EB030C75EB000C04D323
:1007E000E41A65EB000517460E46241908F10100CE
:1007F0006D4180463428E3DDF91946EB0600091BFC
:10080000A84103D24FF0FF32134601E00022134605
:100810001BEB070046EB0A51BDE8F04DFFF752BF56
:10082000064C074D06E0E06840F0010394E807003D
:1008300098471034AC42F6D3FFF7BCFCF8B300087D
:1008400018B40008202A04DB203A21FA02F0002123
:10085000704721FA02F3D040C2F1200291400843D0
:10086000194670470EB5C10F80EAE0700844CA0708
:10087000002140F233438DE80E000A460B46FFF795
:1008800030FF03B000BD70B5C1F30A5201F000455E
:100890000024C1F3130140F2FF3341F480119A4266
:1008A00001DA002070BD40F233439A42A2F2334293
:1008B00003DC5242FFF7C6FF00E090402C43F1D02A
:1008C000404270BD30B58C1810F8012B12F00F03A8
:1008D00001D110F8013B120906D110F8012B03E0F9
:1008E00010F8015B01F8015B5B1EF9D101E001F832
:1008F000013B521EFBD1A142E6D3002030BDD0ED1A
:10090000000AF4EEC00AF1EE10FA01DD80ED000AF3
:10091000D0ED000AB1EE401AF4EEC10AF1EE10FA81
:1009200003D2F1EE400AC0ED000A704700BFFEE7B7
:1009300010B5024801F0A0FF10BD0000F81B002018
:1009400010B5024801F098FF10BD0000F81B002010
:1009500010B5024801F090FF10BD0000381C0020C7
:1009600010B5024801F088FF10BD0000381C0020BF
:1009700000B58BB000200690079001200890002061
:10098000019002900390049005900E200A9001209F
:10099000099001A90A4801F0D7FE0E20069001A98E
:1009A000084801F0D1FE0848054908630748486334
:1009B000074804490863074848630BB000BD0000BE
:1009C000F81B0020381C0020781C0020941C0020FC
:1009D000B81C0020D41C002070B504460D462068C9
:1009E00000F5D87000EB0510006800F00400616BA2
:1009F0008860606B806860B9206800F5D87000EB93
:100A00000510006840F2FF7101EA5050616B086008
:100A10000BE0206800F5D87000EB051000686FF05F
:100A2000604101EAD000616B4860206800F5D87031
:100A300000EB0510006800F00200616BC8602068E0
:100A400000F5D87000EB0510406800F00F00616BF6
:100A50000861606B0562206800F5D87000EB051036
:100A60004068C0F30720616BC861206800F5D8704A
:100A700000EB05108068616B0875206800F5D87080
:100A800000EB05108068010A606B4175206800F575
:100A9000D87000EB05108068010C606B81752068D0
:100AA00000F5D87000EB05108068000E616BC8750A
:100AB000206800F5D87000EB0510C068C1B2606B0B
:100AC0000176206800F5D87000EB0510C068010AB7
:100AD000606B4176206800F5D87000EB0510C068A7
:100AE000010C606B8176206800F5D87000EB051072
:100AF000C068000E616BC8764DB920202168C860BF
:100B00002068406920F002002168486108E0202048
:100B1000216808612068406920F010002168486160
:100B200094F8380022281DD12068406920F4807094
:100B3000216848612068406920F40070216848619C
:100B40002068406920F4806021684861206840691D
:100B500020F40060216848612068406920F400406A
:100B60002168486194F83800322803D1122084F8B3
:100B7000380002E0012084F83800204602F034F901
:100B8000002070BD10B504462068406920F00100C7
:100B90002168486194F8380012281DD12068406906
:100BA00020F48070216848612068406920F400705A
:100BB000216848612068406920F4806021684861AC
:100BC0002068406920F4006021684861206840691D
:100BD00020F400402168486194F83800322803D19D
:100BE000222084F8380002E0012084F838002046F2
:100BF00002F08CFB002010BD30B52DED108B8FB0B6
:100C0000B0EE40BA9FEDFE0AF0EE40BA9FEDFC0A4E
:100C1000B0EE40DA9FEDFA0AB0EE409A9FEDF80A86
:100C2000F0EE409A9FEDF60AB0EE40AA9FEDF40A6E
:100C3000F0EE40AA14210AA8FFF7EDFAF14890F867
:100C4000D800022802D19FEDF08A1DE0ED4890ED1A
:100C50003A0A10EE101A0846FFF77DFC41EC1F0B14
:100C60009FEDEA0B53EC102BFFF784FB41EC1E0BBE
:100C70009FEDE80B53EC102BFFF77FFB41EC1C0BB7
:100C8000FFF7ACFC08EE100ADE4890ED080AB5EE5E
:100C9000C00AF1EE10FA65D1B7EE080A28EE000A94
:100CA00010EE101A0846FFF756FC41EC1E0BD54813
:100CB00090ED080AD948D0ED000A30EEC00A10EED7
:100CC000101A0846FFF747FC41EC1C0BB0EE4C0A2B
:100CD000F0EE6C0A09F09CF8B0EE40FAF0EE60FA23
:100CE00053EC1E2B51EC1F0BFFF748FC05D2C548F7
:100CF00090ED080AC94880ED000AC24890ED080A44
:100D0000C648D0ED000A30EEC00A10EE101A0846B0
:100D1000FFF721FC41EC1C0BB0EE4C0AF0EE6C0A24
:100D200009F076F8B0EE40EAF0EE60EA9FEDBC0B19
:100D300053EC102B51EC1E0BFFF738FC0BD2B748CD
:100D400090ED000AB5EEC00AF1EE10FA04DD9FED59
:100D5000B60A80ED000AA4E09FEDB40AAF4880ED2A
:100D6000000A9EE037E0A74890ED080AAB48D0EDB6
:100D7000000AB4EEE00AF1EE10FA16D2A14890EDA6
:100D8000080A10EE101A0846FFF7E5FB41EC1E0BAF
:100D90009FEDA70B53EC102BFFF748FA41EC1C0B0F
:100DA000FFF71CFC9D49086015E0964890ED080A85
:100DB00010EE101A0846FFF7CEFB41EC1E0B9FED1C
:100DC0009C0B53EC102BFFF7D2FA41EC1C0BFFF7F6
:100DD00005FC924908608B4890ED080A8F48D0EDD9
:100DE000000A30EEC00A10EE101A0846FFF7B3FBF7
:100DF00041EC1C0BB0EE4C0AF0EE6C0A09F008F85E
:100E0000B0EE40EAF0EE60EA9FED8B0B53EC102B56
:100E100051EC1E0BFFF7CAFBA5D37A4890ED080AE8
:100E200010EE101A0846FFF796FB41EC1E0BB0EED1
:100E30004E0AF0EE6E0A08F0EBFFB0EE40CAF0EE9C
:100E400060CA9FED7F0B53EC102B51EC1C0BFFF78E
:100E500094FA41EC1F0B6B4890ED080A6F48D0EDF7
:100E6000000A30EEC00A10EE101A0846FFF773FBB6
:100E700041EC1C0BB0EE4C0AF0EE6C0A08F0C8FF17
:100E80008DED080B53EC1F2B9DED080B51EC100B57
:100E9000FFF774FB05D25B4890ED080A5F4880EDD0
:100EA000000A584890ED080A5C48D0ED000AB4EEFC
:100EB000E00AF1EE10FA06DD90ED000A30EE080AC5
:100EC00080ED000A10E04F4890ED080A5348D0ED3D
:100ED000000AB4EEE00AF1EE10FA05D290ED000A35
:100EE00030EE480A80ED000A464890ED090AB5EE5A
:100EF000C00AF1EE10FA65D1B0EE000A28EE000A41
:100F000010EE101A0846FFF726FB41EC1E0B3D4879
:100F100090ED090A4C48D0ED000A30EEC00A10EE00
:100F2000101A0846FFF717FB41EC1C0BB0EE4C0AF9
:100F3000F0EE6C0A08F06CFFB0EE40FAF0EE60FAEA
:100F400053EC1E2B51EC1F0BFFF718FB05D22D485D
:100F500090ED090A3C4880ED000A2A4890ED090A04
:100F60003948D0ED000A30EEC00A10EE101A0846DB
:100F7000FFF7F1FA41EC1C0BB0EE4C0AF0EE6C0AF4
:100F800008F046FFB0EE40EAF0EE60EA9FED2F0B6E
:100F900053EC102B51EC1E0BFFF708FB0BD22A4829
:100FA00090ED000AB5EEC00AF1EE10FA04DD9FEDF7
:100FB000290A80ED000AD0E09FED270A224880ED43
:100FC000000ACAE060E00F4890ED090A1E48D0ED23
:100FD000000AB4EEE00AF1EE10FA43D20068FFF71F
:100FE000BAFA41EC1E0B9FED1D0B53EC102BFFF7D3
:100FF000BEF941EC1C0BFFF7F1FA1349086043E01E
:101000000000000090050020CDCCCC3D9A99999924
:101010009999F93F7B14AE47E17A943FEC000020A8
:101020009A9999999999D93FCDCCCC3ECDCCCCBE4B
:10103000000000000000E03F000000000000F03F62
:101040009A9999999999B93FF00000203333333335
:101050003333D33F9A99993E9A9999BE9A9999991F
:101060009999E93FFA480068FFF775FA41EC1E0BC1
:101070001FED060B53EC102BFFF7D8F841EC1C0BBF
:10108000FFF7ACFAF2490860F24890ED090AF0481F
:10109000D0ED000A30EEC00A10EE101A0846FFF735
:1010A0005AFA41EC1E0BB0EE4E0AF0EE6E0A08F052
:1010B000AFFEB0EE40CAF0EE60CA1FED210B53EC5C
:1010C000102B51EC1C0BFFF771FAFFF47CAFE148D9
:1010D00090ED090A10EE101A0846FFF73CFA41ECB1
:1010E0001C0BB0EE4C0AF0EE6C0A08F091FEB0EE6C
:1010F00040EAF0EE60EA9FEDD80B53EC102B51EC78
:101100001E0BFFF73AF9CDE90801D24890ED090A24
:10111000CF48D0ED000A30EEC00A10EE101A084693
:10112000FFF719FA41EC1C0BB0EE4C0AF0EE6C0A1A
:1011300008F06EFEB0EE40FAF0EE60FA9DED080B9E
:1011400053EC102B51EC1F0BFFF718FA05D2C148D6
:1011500090ED090ABE4880ED000ABE4890ED090AEC
:10116000BB48D0ED000AB4EEE00AF1EE10FA08DD5B
:1011700090ED000AF7EE080A00EE880A80ED000AFA
:1011800012E0B44890ED090AB148D0ED000AB4EE7F
:10119000E00AF1EE10FA07D290ED000AF7EE080A25
:1011A00000EEC80A80ED000AAD48007901287DD123
:1011B0009FEDAC0A2BEE000ADFEDAB0A80EE201AA1
:1011C00011EE105A2846FFF7C6F941EC1E0BB0EE9F
:1011D0004E0AF0EE6E0A08F027FEB0EE40CAF0EEBE
:1011E00060CA51EC1C0BFFF7F9F90BEE900A9FED6A
:1011F0009D0A2BEE000ADFED9C0A80EE201A11EE0C
:10120000105A2846FFF7A7F941EC1E0BB0EE4E0A24
:10121000F0EE6E0A08F098FDB0EE40CAF0EE60CA3B
:1012200051EC1C0BFFF7DAF90DEE100A8F4890ED28
:10123000000A20EE2B0AB0EE409A90ED000A20EE54
:101240000D0AF0EE409A824890ED000A20EE2B0A3B
:10125000B0EE40AA90ED000A20EE0D0AF0EE40AA92
:1012600039EECA0A79EE2A0A30EE200A8DED0A0A12
:1012700039EECA0AB1EE400A79EE2A0A30EE200AA7
:101280008DED0B0A39EECA0A79EE2A0A30EE600AB1
:101290008DED0C0A39EECA0AB1EE400A79EE2A0A3F
:1012A00030EE600A8DED0D0A002412E014E069486A
:1012B00090ED0C0A0AA800EB8400D0ED000A20EEA5
:1012C000200A6448103000EB840080ED000A601CA6
:1012D000C4B2042CEBDB0DE0002409E01FEDB80ADA
:1012E0005C48103000EB840080ED000A601CC4B242
:1012F000042CF3DB574890ED070A10EE101A08464D
:10130000FFF729F941EC1C0BB0EE4C0AF0EE6C0A29
:1013100008F07EFD8DED060B4E4890ED060A10EEAE
:10132000101A0846FFF717F941EC1C0BB0EE4C0AF7
:10133000F0EE6C0A08F06CFD8DED020B454890ED67
:10134000050A10EE101A0846FFF705F941EC1C0BD0
:10135000B0EE4C0AF0EE6C0A08F05AFDB0EE40EA2E
:10136000F0EE60EA3B4890ED040A10EE101A0846D1
:10137000FFF7F1F841EC1C0BB0EE4C0AF0EE6C0AF2
:1013800008F046FDB0EE40FAF0EE60FA53EC1E2B8A
:1013900051EC1F0BFEF74AFFCDE900019DED020B5A
:1013A00053EC102B9DED000B51EC100BFEF73EFFA4
:1013B000CDE904019DED060B53EC102B9DED040BC4
:1013C00051EC100BFEF732FFCDE908019DED080B43
:1013D00051EC100BFFF702F908EE900AF5EEC08A07
:1013E000F1EE10FA46DD1B48D0ED390A80EEA80A6E
:1013F000F7EE000A30EE200AB5EEC00AF1EE10FA60
:1014000004D29FED1B0A80ED3A0A38E01148D0ED76
:10141000390A80EEA80AF7EE000A30EE200AF7EE4D
:10142000000AB4EEE00AF1EE10FA04DDB7EE000AAD
:1014300080ED3A0A23E00748D0ED390A80EEA80A89
:10144000F7EE000A30EE200A80ED3A0A17E00000BD
:10145000F0000020900500209A9999999999C93F28
:1014600044070020F90F494000003443EC000020FD
:1014700000000000B7EE000A344880ED3A0A00246C
:101480005EE0324890ED0A0AD0ED3A0A103000EBE7
:10149000840090ED001A00EE810A2C48103000EB19
:1014A000840080ED000A2948103000EB840090EDA4
:1014B000000A04EB441000EB8410254901EB800086
:1014C00080ED5E0A04EB441000EB841001EB800019
:1014D00090ED030A1D4800EB840080ED000A04EB48
:1014E000441202EB84120B4603EB820292ED5E1A69
:1014F000F0EE410A04EB441202EB841203EB820289
:1015000092ED031AB0EE410A04EB441202EB84128E
:1015100003EB820202F1DC0004EB441202EB8412C2
:1015200003EB8202D2F82411884704EB441000EB4D
:101530008410074901EB800080ED600A601CC4B292
:10154000042C9EDB0FB0BDEC108B30BD900500204D
:101550008007002010B574480088462805DA7248D4
:101560000088401C7049088010BD704890ED090A41
:101570006F4880ED080A6D4890ED0A0A6C4880EDCE
:10158000090A00F0FBFB00F08FF96A48C08B00EEFF
:10159000100AB8EE400A9FED681AC0EE010A9FEDEE
:1015A000670A20EEC00ADFED660A30EE200A6048C6
:1015B00080ED0E0AB1EE000A80ED0F0A90F83400BB
:1015C00003280BD19FED5F0A594880ED0A0AD0ED40
:1015D0000E0AB0EE600AFFF70FFB9EE0544890F849
:1015E000340004280FD19FED570A514880ED0A0AB4
:1015F000D0ED0E0A9FED541A70EE810AB0EE600A2B
:10160000FFF7FAFA89E04A4890F83400012818D127
:101610004748D0ED0F0AB0EE601AD0ED0E0AF1EE99
:10162000600AB0EE600ADFED470A00F045FD404871
:1016300080ED0A0AD0ED0E0AB0EE600AFFF7DCFA80
:101640006BE03B4890F83400022818D13848D0EDC0
:101650000F0AB0EE601AD0ED0E0AF1EE600AB0EE9D
:10166000600ADFED390A00F027FD314880ED0A0AF3
:10167000D0ED0E0AB0EE600AFFF7BEFA4DE02C483E
:1016800090F8340007280DD1294890ED0B0AB1EEEF
:10169000400A80ED0A0AD0ED0E0AB0EE600AFFF7AC
:1016A000ABFA3AE0224890F83400052818D12048D7
:1016B000D0ED0F0AB0EE601AD0ED0E0AF1EE600A1E
:1016C000B0EE600ADFED210A00F0F6FC184880ED6C
:1016D0000A0AD0ED0E0AB0EE600AFFF78DFA1CE0A0
:1016E000134890F83400062817D11148D0ED0F0A9E
:1016F000B0EE601AD0ED0E0AF1EE600AB0EE600AAC
:10170000DFED130A00F0D8FC094880ED0A0AD0ED9D
:101710000E0AB0EE600AFFF76FFA054890F8341031
:1017200080F8351000BF1FE71001002010000020D6
:10173000900500201C120020000000460000B44369
:101740000000A84300000000000034430000B44241
:101750000000B4C29FED450A454880ED0C0AB0EE8A
:10176000080A80ED0F0A0120414981F83400012167
:101770003F4880F83510B0EE000A80ED3B0A9FED3F
:101780003D0A80ED380A0120394981F8D80001214D
:101790003748C0F8F8109FED380A80ED3F0A9FEDFA
:1017A000370A80ED400A9FED360A80ED410AB2EE1D
:1017B0000E0A80ED430AB2EE080A80ED440A9FED5E
:1017C000310A80ED450AB1EE040A80ED4A0A9FED28
:1017D0002D0A80ED460A9FED2C0A80ED470A9FED09
:1017E0002B0A80ED480A9FED270A80ED490A9FEDFC
:1017F000250A80ED420A81649FED250A80ED130AD7
:101800009FED240A80ED140A9FED230A80ED150A4E
:101810009FED220A80ED170A9FED1A0A80ED180A43
:101820009FED180A80ED190A9FED160A80ED1E0A39
:101830009FED140A80ED1A0A9FED190A80ED1B0A2C
:10184000B2EE0E0A80ED1C0A9FED0E0A80ED1D0A15
:101850009FED0C0A80ED160A9FED120A80ED660AD4
:10186000B3EE040A80ED650A704700000000FA45F7
:10187000900500200000964200606A47CDCCCC3D28
:1018800000401CC700000000005043470000C84251
:1018900000007A450000FA440000FAC40000F0425B
:1018A000000020420000544210B52DED0C8BFE4884
:1018B00090ED630ADFEDFD0A20EE200AD0ED620A0A
:1018C0009FEDFB1A01EE200A80ED630A90ED630A9A
:1018D00020EE000AD0ED650A90ED651A00EEC10A0F
:1018E000D0ED660A60EEA00A90ED651AD0ED651A9B
:1018F00041EE610A80EE201A80ED671A90ED670ACA
:10190000B5EEC00AF1EE10FA04D29FEDEA0A80EDBE
:10191000670A0DE0E44890ED670AF7EE000AB4EEBE
:10192000E00AF1EE10FA03DDB7EE000A80ED670A77
:10193000DD4890F8D800022811D19FEDDF0ADA487F
:1019400080ED0C0A9FEDDD0A80ED380A9FEDDC0A80
:1019500080ED0B0A9FEDDB0A80ED130A78E1D24897
:1019600090F8920101287BD1CF4890ED090A10EE42
:10197000101A0846FEF7EFFD41EC1B0BB0EE4B0AC8
:10198000F0EE6B0A08F044FAB0EE409AF0EE609A7E
:10199000C54890ED080A10EE101A0846FEF7DBFD68
:1019A00041EC1B0BB0EE4B0AF0EE6B0A08F030FA7C
:1019B000B0EE40AAF0EE60AA53EC192B51EC1A0BD2
:1019C000FEF734FC41EC180B9FEDBF0B53EC102BD2
:1019D000FEF7D4FD0BD1BE4800684FF6FF71884278
:1019E00005D2BB480068401CB949086002E00020ED
:1019F000B7490860B648006819280DD9AA4890ED83
:101A0000670AF7EE000A30EE200ADFEDB20A20EE98
:101A1000200A80ED0B0A0CE0A34890ED670AF7EE70
:101A2000000A30EE200ADFEDAC0A20EE200A80ED3D
:101A30000B0A9D4890F8D800F0BB9B4890ED670AD0
:101A400010EE101A0846FEF786FD41EC1A0B9FEDCA
:101A5000A30B53EC102BFEF7E9FB41EC190B00E054
:101A6000E5E09FEDA00B53EC102BFEF786FC41EC5C
:101A7000180BFEF7B3FD8C490863084690ED670A22
:101A800010EE101A0846FEF766FD41EC1A0B9FEDAA
:101A9000930B53EC102BFEF7C9FB41EC190B9FED98
:101AA000930B53EC102BFEF768FC41EC180BFEF780
:101AB00095FD01467C4800E00FE0C164D0ED670A67
:101AC000B0EE000AB2EE001A01EE200AF3EE090AA7
:101AD00020EE200A80ED380ABAE0734890ED670ADC
:101AE000F7EE000A30EE200ADFED820A20EE200A2F
:101AF00080ED0C0A90ED670A10EE101A0846FEF70A
:101B00002AFD41EC1A0B9FED750B53EC102BFEF7E1
:101B10008DFB41EC190B9FED780B53EC102BFEF76E
:101B20002CFC41EC180BFEF759FD01465E48C164E0
:101B300090ED0A0A10EE101A0846FEF70CFD41EC73
:101B40001D0BB0EE4D0AF0EE6D0A08F061F9B0EE33
:101B500040CAF0EE60CA9FED6A0B53EC102B51ECBB
:101B60001C0BFEF70AFC41EC1A0B4F4890ED670A7C
:101B700010EE101A0846FEF7EEFC41EC1D0B9FED2F
:101B8000620B53EC102BFEF7F8FB41EC1C0B9FEDA6
:101B9000600B53EC102BFEF749FB41EC1B0B53EC95
:101BA0001A2BFEF743FB41EC190B9FED5B0B53EC3B
:101BB000102BFEF7E2FB41EC180BFEF70FFD3A4944
:101BC000C1F8E000084690ED0A0A10EE101A084627
:101BD000FEF7C1FC41EC1C0BB0EE4C0AF0EE6C0AB7
:101BE00008F016F9B0EE40BAF0EE60BA9FED440B83
:101BF00053EC102B51EC1B0BFEF7BFFB41EC190B08
:101C0000294890ED5B0A10EE101A0846FEF7A3FC77
:101C100041EC1A0B53EC192BFEF7A9FB41EC180B06
:101C2000FEF7DCFC01462048C0F86C1110E09FED87
:101C3000310A1D4880ED0C0A9FED200A80ED380A1C
:101C40009FED1F0A80ED0B0A9FED1E0A80ED130A1F
:101C5000334890ED100AD0ED710A30EE200AD0ED35
:101C6000D20A30EE200A00F28C40D0ED100A30EE9D
:101C7000200AF0EE080A30EE200ADFED0D0A20EE11
:101C8000200A2848D0ED000A9FED081A00EE810ACC
:101C900080ED000A90ED000AF6EE080A20EE200A18
:101CA000014880ED370A3FE0900500206666663FF8
:101CB000CDCCCC3D0000000000007A4400008C42F6
:101CC00000401C4500C05A45000000000000000014
:101CD0000C01002000803B450080BB440000000058
:101CE0000000E03F000000000040BF400000000096
:101CF0000070A74000007A45000000000058AB408B
:101D00002D431CEBE2363A3F000000000000F83F94
:101D100000000000000000400000000000003E4005
:101D200080070020080100201248B0F82F0000EEC4
:101D3000100AB8EE400A104880ED3C0A90ED381ABF
:101D4000F0EE410A90ED371AB0EE410AF43004F09B
:101D5000EDFF094880ED390A90ED390AB5EEC00A69
:101D6000F1EE10FA03DD1FED2D0A80ED390ABDEC0E
:101D70000C8B10BD381B00209005002010B5C24808
:101D8000407F01287ED1C14890F82E0001280ED155
:101D9000BF48007A58B9BD4890F82C00012803D1FB
:101DA0000020BC49087002E00120BA490870B74819
:101DB00090F82A0001282BD1B548007940BBB548DE
:101DC000007828BBB4480078012821D1B3490870B5
:101DD0000020B3490880B348007818B1B1480078B2
:101DE000032807D10220AF4908700420AE4981F8CA
:101DF00034000DE0AB480078012803D0A9480078F2
:101E0000022805D10320A7490870A74981F83400AA
:101E1000A2480078012823D1A1480088401CA0498D
:101E200008800846008832281ADD9E48007802287B
:101E300006D19D4981F8340001209A4908700AE0D2
:101E400098480078032806D10120974981F834008A
:101E5000002094490870002090490870904908803B
:101E6000924800884FF6FF71884204DA8F48008854
:101E7000401C8E4908808E4800884FF6FF718842CA
:101E800006DA00E0DEE08A480088401C88490880C5
:101E90007E4890F82F00012825D17D48407A10BB5C
:101EA00080480078012802DD00207E4908707D48C6
:101EB0000078042807D07B480078052803D07548AF
:101EC0000078012806D10020764908700120724967
:101ED000087002E000207049087000206D49087009
:101EE0007349088012E0694890F82F0070B968487B
:101EF000407A01280AD16E480088142803DD0020AA
:101F00006A49088002E00120634908706748008838
:101F10003C2806DD5D4890F82F0010B901205E498D
:101F200008705A4890F8260001280ED0574890F8BB
:101F30002700012809D0554890F82800012804D02E
:101F4000524890F82900012827D1504890F82D00D8
:101F500040B94E4890F82C0020B90120524981F830
:101F6000D8001AE0494890F82D0048B9474890F841
:101F70002C00012804D100204B4981F8D8000CE046
:101F8000424890F82D00012807D1404890F82C00D5
:101F900018B90220444981F8D8003C4890F8310033
:101FA000012815D13A48C07A90B9384890F82D00E8
:101FB00001280AD1354890F82C00012805D13D4868
:101FC0000088401C3B49088002E000203949088015
:101FD0003848008800280ADD2C4890F82D0018B1F8
:101FE0002A4890F82C0010B900203249088029486E
:101FF0000078012804D107202B4981F834003BE008
:1020000025480078012810D12648007820B9012001
:10201000254981F834002FE02248007801282BD18F
:102020000220214981F8340026E01E48007820B9BA
:1020300003201D4981F834001EE004201A4981F86C
:10204000340019E01048007F032804D1012016490C
:1020500081F834000CE00C48007F022804D10320F2
:10206000114981F8340003E007200F4981F834005A
:1020700001200D4981F8D800102204492631044876
:10208000FEF7B0F810BD000010000020181A002064
:1020900034070020F4000020F5000020000100209B
:1020A000FE000020F600002090050020FA0000202D
:1020B000FC0000200401002010B52DED068BF0EE91
:1020C000408AB0EE608AF0EE419A05E09FED310A59
:1020D00038EE000AB0EE408AB5EEC08AF1EE10FA92
:1020E000F4D305E09FED2B0A38EE400AB0EE408AAB
:1020F0009FED280AB4EEC08AF1EE10FAF2DCF4EE9D
:10210000C88AF1EE10FA12D238EE680ADFED220A20
:10211000B4EEE00AF1EE10FA02D238EE689A18E056
:1021200038EE680ADFED1B0A30EE609A11E038EEF7
:10213000C80ADFED190AB4EEE00AF1EE10FA02D295
:1021400038EE689A05E038EEC80ADFED120A30EE84
:10215000C09ADFED120AB1EE490A114804F0E6FD1B
:10216000B0EE40AAB5EEC09AF1EE10FA02DDB0EE84
:10217000490A01E0B1EE490AB4EEE90AF1EE10FABB
:1021800003D29FED060AB0EE40AAB0EE4A0ABDECBB
:10219000068B10BD0000B443000034430000000073
:1021A000D405002008B52C4890F83400B0B92B486D
:1021B00090ED630A2A4880ED020A284890ED670AEC
:1021C000DFED280A20EE200A254880ED030A234887
:1021D00090ED370A224880ED040A13E01F4890ED85
:1021E0000E0AB1EE400A1E4880ED020A1E4890ED2C
:1021F000020A1B4880ED030A1B4890ED580A184854
:1022000080ED040A1948407B002803DD01211448B1
:10221000817102E00021124881711548007801287F
:1022200002D10F49487002E000200D494870114862
:1022300090F8D600012803D101210948817002E0FD
:1022400000210748817006480069009004480FC8C3
:1022500000F012F808BD0000181A002090050020B8
:102260009C1B00200000C84240010020E81B002009
:1022700014010020500400200FB42DE9F0414FF06C
:10228000010806A800F04EF99DED080A10EE104A6C
:102290009DED090A10EE105A9DED0A0A10EE106A23
:1022A0009DF81880A5202A49087013204870002046
:1022B00088700120C870FF220421254800F032FAFE
:1022C0002349087101204871032088718020C8715A
:1022D000D120087201204872002088720120C87243
:1022E00008734C73200A8873200CC873200E08747E
:1022F0004D74280A8874280CC874280E08754E7509
:10230000300A8875300CC875300E0876084680F89B
:1023100019801048007888760E4800880012C87628
:102320000C4802881A210A4800F0E2F907460849D9
:102330008F76380AC87600BF0A231C220449064853
:1023400003F0F3FD0028F7D1BDE8F0015DF814FBC0
:10235000C91B00202A0100206022002010B502487D
:1023600001F01AF810BD0000B81D002010B5024899
:1023700001F012F810BD0000381F002010B502480F
:1023800001F00AF810BD0000581D002010B50248E9
:1023900001F002F810BD0000981F002010B502489F
:1023A00000F0FAFF10BD0000781E002010B50248B2
:1023B00000F0F2FF10BD0000F81C00200146087874
:1023C00010381823B0FBF3F20848805CC865032A74
:1023D00005D908686FF30900001D886503E00868E7
:1023E0006FF309008865886D7047000064AF0008CE
:1023F000014600208A6A8B6903BB32B1012A0CD0E6
:10240000022A10D0032A17D115E0CB6A03F080739B
:10241000B3F1807F00D101200FE0CB6AB3F1C07F20
:1024200000D1012009E0CB6A03F08073B3F1807F13
:1024300000D1012001E000E000BF35E08B69B3F579
:10244000005F1BD132B1012A06D0022A0CD0032A28
:1024500012D10BE0012010E0CB6A03F08073B3F1DE
:10246000807F00D1012008E0012006E0CB6AB3F1B3
:10247000C07F00D1012000E000BF15E032B1012A89
:1024800005D0022A04D0032A0CD103E000BF00BF0C
:10249000012008E0CB6A03F08073B3F1807F00D1A4
:1024A000012000E000BF00BF704730B50468246819
:1024B00024F4802405682C60046863608468402CE0
:1024C00004D10468A2600468E16003E00468A160CC
:1024D0000468E26030BD704710B5012001F05CF97E
:1024E00010BD10B5022001F057F910BD10B5042041
:1024F00001F052F910BD0000AFF20301016006497E
:102500004160002180F8281080F829109FED030A0F
:1025100080ED0B0A704700006925000800000000EC
:1025200000BFFEE700214278012A01D141F00101FC
:102530008278012A01D141F00201C278012A01D139
:1025400041F004010279012A01D141F008014279E8
:10255000012A01D141F010018279012A01D141F013
:10256000200101707047000090F82820CAB910F8C7
:10257000292F521C027010F82929322A03DD01226A
:1025800080F828200AE04A6B527D4B6B1B7D42EAA3
:10259000032242859FED4D0A80ED0E0A428D828313
:1025A00093E04A6B527D4B6B1B7D42EA03224283D0
:1025B0004A6BD37D927D43EA022212B200EE102ACA
:1025C000B8EEC00A80ED030A90ED030A80ED020A1E
:1025D0004A6B537E127E43EA022212B200EE102AA8
:1025E000B8EEC00A80ED040A4A6B927E0276428BF6
:1025F000838BD21AB2F5805F08DD90ED0B0AF7EEFF
:10260000000A30EE600A80ED0B0A0DE0428B838BEE
:10261000D21A12F5805F07DA90ED0B0AF7EE000A86
:1026200030EE200A80ED0B0A428B00EE102AB8EE45
:10263000400AD0ED0B0A9FED261A00EE810ABDEE8E
:10264000C00A80ED0C0A90ED0C0AB8EEC00ADFED6E
:10265000200A80EE201A80ED0D1A428B828390EDC5
:10266000050ADFED1C0A20EE200AD0ED040A9FEDDA
:102670001A1A01EE200A80ED050A90ED040ADFED3A
:10268000170A20EE200AD0ED020A20EE200AB5EE4D
:10269000C00AF1EE10FA0ADD90ED040ADFED0F0A30
:1026A00020EE200AD0ED020A20EE200A0BE090ED89
:1026B000040AB1EE400ADFED090A20EE200AD0ED4F
:1026C000020A20EE200A80ED0F0A70470000000089
:1026D00000000046EC51783F8FC2F53C75388436D7
:1026E00010B50446014804F0C0FE10BD181A0020C1
:1026F00030B5034613B94FF6FF7030BD09E013F84B
:10270000014B82EA0400C0B2054D35F8100080EAA2
:102710002222081EA1F10101F1D11046EDE70000CF
:1027200082B0000830B5034605E013F8010B80EADB
:1027300002040448025D081EA1F10101F5D1104612
:1027400030BD000081AF000830B5034600220C7D8B
:10275000012000FA04F24648006840F00100444CB1
:1027600020602046006820F47C50206020460068ED
:102770004C6A40EA04203E4C20603D481C30006812
:1027800090433B4C1C342060C869D8B938480C30A1
:1027900000689043364C0C342060888880B28C8965
:1027A00040EA0444324840304D6940F835400888DA
:1027B00080B20C8940EA04442D4840304D6900EB5A
:1027C000C5004460C86901281BD129480C30006845
:1027D0001043274C0C342060888880B20C8840EA73
:1027E0000444234840304D6940F83540888980B220
:1027F0000C8940EA04441E4840304D6900EBC50096
:102800004460886938B91A48001D00689043184C24
:10281000241D206006E01648001D00681043144C7B
:10282000241D2060086930B91148143000689043B5
:102830000F4C143420600869012806D10C4814306C
:10284000006810430A4C14342060086A012806D13D
:1028500007481C3000681043054C1C3420600448B5
:10286000006820F00100024C2060002030BD000014
:1028700000660040704700002DE9F0410446002545
:10288000002600272068406900F0010018B3206886
:10289000806869490840884201D1012000E0002099
:1028A00005462068806865490840884201D10120BA
:1028B00000E00020064620688068614908408842A0
:1028C00001D1012000E0002007460DB906B917B17B
:1028D0002046FEF757F92068C06800F0030520681D
:1028E0004069C0F3400625B11EB100212046FEF725
:1028F00073F82068006900F0030520684069C0F3A0
:10290000001625B11EB101212046FEF765F82068AA
:10291000806900F0010520684069C0F30026206846
:102920004069C0F3C0372DB126B11FB1E06B40F054
:102930000100E06320688069C0F3400520684069B9
:10294000C0F3402620684069C0F3C0372DB126B1DE
:102950001FB1E06B40F00200E06320688069C0F3C3
:10296000800520684069C0F3802620684069C0F374
:10297000C0372DB126B11FB1E06B40F00400E06319
:102980002068806900F0700008B9012000E0002094
:10299000054620684069C0F3C02620684069C0F33E
:1029A000C03795BB8EB387B32068806900F070058F
:1029B000402D1BD006DC102D09D0202D0CD0302D41
:1029C00024D10EE0502D16D0602D1FD118E0E06B01
:1029D00040F00800E0631AE0E06B40F01000E063B4
:1029E00015E0E06B40F02000E06310E0E06B40F0A9
:1029F0004000E0630BE0E06B40F08000E06306E045
:102A0000E06B40F48070E06301E007E000BF00BFCE
:102A10002068806920F0700021688861E06B40B117
:102A2000042021684860012084F838002046FFF720
:102A300021FFBDE8F081000003000004000300084E
:102A40000000031070B50446032600250CB90120D0
:102A500070BD94F8380028B9002084F83900204669
:102A600000F0D0F8022084F838002068006820F0D8
:102A70000200216808602068006840F001002168B9
:102A8000086000F0ABFF05460EE000F0A7FF401B1A
:102A90000A2809D9032084F8380000BF002084F8F0
:102AA000390000BF0320D3E72068406800F0010030
:102AB0000028EAD02068406800F0010008B900262C
:102AC00092E0A069012806D12068006840F08000EB
:102AD0002168086005E02068006820F08000216817
:102AE0000860E069012806D12068006840F04000D5
:102AF0002168086005E02068006820F04000216837
:102B00000860206A012806D12068006840F0200093
:102B10002168086005E02068006820F02000216836
:102B20000860606A012806D12068006840F0100043
:102B30002168086005E02068006820F01000216826
:102B40000860A06A012806D12068006840F00800EB
:102B50002168086005E02068006820F0080021680E
:102B60000860E06A012806D12068006840F004008F
:102B70002168086005E02068006820F004002168F2
:102B80000860D4E9020108432169084361690843E8
:102B90006168491E08432168C8612068006820F008
:102BA00001002168086000F019FF05460EE000F002
:102BB00015FF401B0A2809D9032084F8380000BFFC
:102BC000002084F8390000BF032041E720684068F6
:102BD00000F001000028EAD12068406800F0010000
:102BE00008B1002600E00126012E06D10020E06396
:102BF000012084F8380000202AE7042084F83800F7
:102C0000012025E710B586B0044645492068884272
:102C100037D144480068401C4249086008460068B3
:102C200001280FD100BF002000903F48006840F00D
:102C300000703D4908600846006800F00070009090
:102C400000BF00BF032001900220029000200390EB
:102C5000032004900920059001A9344800F0AAFD42
:102C600000220121132000F07EFF132000F06EFFF0
:102C700000220121142000F076FF142000F066FFEE
:102C80004BE02B492068884247D100BF00200090CC
:102C90002548006840F080602349086008460068C5
:102CA00000F08060009000BF00BF1E480068401C1C
:102CB0001C4908600846006801280FD100BF0020A9
:102CC00000901948006840F00070174908600846F5
:102CD000006800F00070009000BF00BF4FF440504B
:102CE000019002200290002003900320049009200C
:102CF000059001A90F4800F05DFD012211463F201B
:102D000000F031FF3F2000F021FF0122114640205A
:102D100000F029FF402000F019FF06B010BD0000B0
:102D2000006400402C01002040380240000C0240AA
:102D3000006800400004024010B50246002392F8EB
:102D40003830012B01D0122B49D100BF92F8390045
:102D5000012801D1022010BD012082F8390000BFF6
:102D600092F83800122803D1322082F8380002E0AD
:102D7000222082F838000020D0631068406940F4B7
:102D80008070146860611068406940F400701468D5
:102D900060611068406940F4806014686061106888
:102DA000406940F40060146860611068406940F454
:102DB00000401468606100BF002082F8390000BF45
:102DC00031B91068406940F002001468606108E0A1
:102DD0001068406940F010001468606101E0022052
:102DE000B9E70020B7E7000070B504469E4884426A
:102DF00064D1606B806858BB606B0068A0F20120F2
:102E0000052824D2DFE800F0030405061D0000BFFA
:102E100000BF00BF00BF606B0068A0F2012505EB9A
:102E2000451101EB8511914B03EB8101081D05EB69
:102E3000451101EB851103EB81018A68214690471A
:102E400005E08B4821468268001D904700BF2CE0BA
:102E5000606B8068042828D1606B4068A0F59850AA
:102E6000143808BB00224FF40061824800F0B0FD26
:102E70000020814908600121804880F8921180F883
:102E80009011606B407D616B097D40EA012000B2CA
:102E900000EE100AB8EEC00ADFED790A80EE201AC3
:102EA000764880ED621A00BF00BF6F480068406935
:102EB00040F002006C4909684861D4E071488442DE
:102EC000FBD1606B806808BB606B0068B0F5027F67
:102ED0001BD121466C48FFF747FB6B48001F90F859
:102EE0002C00012810D16848001F90ED0D0AF8EE63
:102EF000C00A9FED661A80EE810ADFED650A20EEBA
:102F0000200A644880EDB40A00BFA4E0606B8068CA
:102F10000428FAD1606B4068A0F598501438002856
:102F200076D0012802D002284CD14CE000205A492A
:102F30000860606B407D616B097D40EA012000B252
:102F400000EE100AB8EEC00ADFED4D0A80EE201A3E
:102F5000524880ED091A606BC17D807D41EA0020F6
:102F600000B200EE100AB8EEC00ADFED450A80EEAE
:102F7000201A4A4880ED0A1A606B007E8009474992
:102F80000877606B007EC0F3011144484177606BA5
:102F9000007E00F00F00C117414AC2E90E01606BCC
:102FA000407E40103F490870606B407E00F0010198
:102FB000104680F8D610606BC17E807E41EA00200A
:102FC0003949888446E0606B407D616B097D40EA49
:102FD000012000B200EE100AB8EEC00ADFED280AA8
:102FE00080EE201A2B4880ED021A606B817D407DB7
:102FF00041EA002000B200EE100AB8EEC00ADFED90
:10300000200A80EE201A234880ED581A22E0FFE7BC
:1030100000224FF40061174800F0DAFC0020164946
:1030200008600121154880F8921180F89011606BBA
:10303000407D616B097D40EA012000B200EE100A7C
:10304000B8EEC00ADFED0E0A80EE201A0B4880EDC4
:10305000621A00BF00BF0B480068406940F00200E0
:1030600008490968486170BDF81B002080070020EE
:103070002C180020001002406C0700209005002052
:103080000000C842381C002020120020000000462A
:103090000000B4434001002044070020100000203D
:1030A0005004002014010020181A00202DE9F041DE
:1030B00004460E46052500272068806800F08060E1
:1030C000B0F1806F0DD02068806800F00060B0F132
:1030D000006F06D02068806800F08050B0F1805FFB
:1030E0007ED100BF94F83900012802D10220BDE84A
:1030F000F081012084F8390000BF94F838002228BC
:1031000003D1322084F8380002E0122084F838001D
:103110002068806800F08060B0F1806F01D10025E8
:1031200009E02068806800F00060B0F1006F01D114
:10313000012500E00225206800F5C07000EB0510B5
:10314000006800F00101206800F5C07000EB051078
:103150000160206B806898B9206800F5C07000EBB2
:1031600005100068216BC968226B128841EA425140
:103170000843216801F5C07101EB0511086015E0F5
:10318000206800F5C07000EB05100068216B8968AD
:10319000226B526841EAC201226BD2681143084394
:1031A000216801F5C07101EB05110860206B007CFE
:1031B00000F00F00216B0861206800F5C07000EB83
:1031C0000510406820F00F01206800F5C07000EB8A
:1031D00005104160206800F5C07000EB051000E0AC
:1031E00088E04068216B09690843216801F5C071D6
:1031F00001EB05114860206BC07D0106206B807DCE
:1032000041EA0041206B407D41EA0020216B097DAD
:103210000843216801F5C07101EB05118860206B3E
:10322000C07E0106206B807E41EA0041206B407E1B
:1032300041EA0020216B097E0843216801F5C07135
:1032400001EB0511C860206800F5C07000EB0510A7
:10325000006840F00101206800F5C07000EB051027
:10326000016000F0BBFB074611E0701C78B126B18D
:1032700000F0B4FBC01BB04209D9032084F8380029
:1032800000BF002084F8390000BF03202FE74DB9AC
:10329000206880681A490840884201D1012016E060
:1032A000002014E0012D09D12068806815490840EC
:1032B000884201D101200AE0002008E020688068EF
:1032C00011490840884201D1012000E00020002877
:1032D000CBD094F83800322803D1222084F838006B
:1032E00002E0012084F8380000BF002084F8390093
:1032F00000BFFCE6042084F838000120F7E6000057
:10330000030000040003000800000310704701469A
:1033100091F83500022803D08020486501207047CD
:10332000052081F835000868006820F001000A686F
:1033300010600020F3E770B504460CB9012070BDA1
:1033400094F83500022800D1F9E72068006820F0E1
:103350000100216808600020216808602168486039
:10336000216888602168C86021680861212021687F
:1033700048612046FFF722F8054694F85C103F208C
:103380008840A8600020606584F8350000BF84F89C
:10339000340000BF00BFD2E7F8B50446002000901B
:1033A0008D4800684FF41651B0FBF1F7A56D2E68FB
:1033B00094F85C1008208840304098B1206800687C
:1033C00000F0040070B12068006820F0040021685B
:1033D000086094F85C1008208840A860606D40F098
:1033E0000100606594F85C107C488840304068B10A
:1033F0002068406900F0800040B194F85C10774884
:103400008840A860606D40F00200606594F85C1030
:103410007248C01C8840304070B12068006800F0DD
:10342000020048B194F85C106C48C01C8840A86049
:10343000606D40F00400606594F85C1010208840D6
:10344000304078B32068006800F0080050B394F86A
:103450005C1010208840A8602068006800F480207C
:1034600080B12068006800F4002028B9206CC8B141
:103470002046216C884715E0A06C98B12046A16CCD
:1034800088470FE02068006800F4807028B9206841
:10349000006820F0080021680860206C10B1204608
:1034A000216C884794F85C10202088403040002828
:1034B00065D02068006800F0100000285FD094F804
:1034C0005C1020208840A86094F83500052828D199
:1034D0002068006820F016002168086020684069B4
:1034E00020F0800021684861206C08B9A06C28B1E8
:1034F0002068006820F008002168086094F85C10DB
:103500003F208840A86000BF002084F8340000BF3E
:10351000012084F83500206D10B12046216D8847C8
:10352000F8BD2068006800F4802080B12068006841
:1035300000F4002028B9606C10B12046616C884707
:103540001DE0E06BD8B12046E16B884717E02068AA
:10355000006800F4807068B92068006820F01000EE
:103560002168086000BF002084F8340000BF0120FB
:1035700084F83500E06B10B12046E16B8847606D40
:1035800038B3606D00F00100F0B1052084F835001B
:103590002068006820F001002168086000BF0098E2
:1035A000401C0090B84200D905E02068006800F097
:1035B00001000028F3D100BF00BF002084F83400D0
:1035C00000BF012084F83500E06C10B12046E16CAA
:1035D000884700BFA4E70000080000200100800029
:1035E0002DE9F0410446002500F0F8F9074614B92A
:1035F0000120BDE8F081606A00B100BF00BF00207B
:1036000084F8340000BF022084F835002068006888
:1036100020F00100216808600AE000F0DFF9C01B1B
:10362000052805D920206065032084F83500E0E7EF
:103630002068006800F001000028EED120680568CD
:1036400020480540D4E901010843E16808432169A5
:10365000084361690843A1690843E1690843216A95
:1036600008430543606A042803D1D4E90B010843E9
:103670000543206805602068456925F00705606AF4
:103680000543606A04280BD1A06A05432046FEF773
:10369000AFFE28B140206065012084F83500A8E71E
:1036A000206845612046FEF789FE064694F85C10C6
:1036B0003F208840B06000206065012084F835001C
:1036C000002096E73F8010F02DE9F04704460D46B4
:1036D00016461F464FF00008D4F8589000BF94F8E3
:1036E0003400012802D10220BDE8F087012084F8CF
:1036F000340000BF94F8350001282BD1022084F853
:103700003500002060653B46324629462046FEF7DC
:10371000CCFE94F85C103F208840C9F8080020686F
:10372000006840F01600216808602068406940F099
:10373000800021684861206C28B12068006840F052
:103740000800216808602068006840F001002168D6
:10375000086006E000BF002084F8340000BF4FF08E
:1037600002084046C0E731B5002400F037F90446AE
:1037700000BF00F033F9001B00998842F9D338BD2F
:10378000012806D0022803D10121024A117000E06D
:1037900000BF70471301002010B5044604480068BC
:1037A000204020B1024804602046FFF7E9FF10BD29
:1037B000143C0140F8B502460B46002500240020C9
:1037C0000021E6E0012606FA01F51E6806EA050476
:1037D000AC4273D15E68022E02D05E68122E13D105
:1037E000CF0802F1200656F827004E07F70E0F26E5
:1037F000BE40B0434F07FF0E1E69BE403043CF08A6
:1038000002F1200646F8270010684F000326BE404C
:10381000B0431E7906F003064F00BE4030431060EF
:103820005E68012E08D05E68022E05D05E68112EFB
:1038300002D05E68122E13D190684F000326BE405E
:10384000B0434F00DE68BE403043906050680126B0
:103850008E40B0431E79C6F300168E403043506050
:10386000D0684F000326BE40B0434F009E68BE4064
:103870003043D0605E6806F08056B6F1805FA8D114
:1038800000BF00260096454E366846F48046434FFA
:103890003E603E46366806F48046009600BF00BF94
:1038A0003F4E8F0856F827008E07370F0F26BE4071
:1038B000B0433C4EB24202D100262EE068E03A4EC0
:1038C000B24201D1012628E0384EB24201D102268F
:1038D00023E0374EB24201D103261EE0354EB242FC
:1038E00001D1042619E0344EB24201D1052614E07C
:1038F000324EB24201D106260FE0314EB24201D122
:1039000007260AE02F4EB24201D1082605E02E4ECE
:10391000B24201D1092600E00A268F073F0FBE40C0
:1039200030431F4E8F0846F82700284E3068A043CA
:103930005E6806F48036B6F5803F00D12043234E02
:103940003060361D3068A0435E6806F40036B6F578
:10395000003F00D120431D4E361D3060361D3068BB
:10396000A0435E6806F48016B6F5801F00D12043A0
:10397000164E08363060361D3068A0435E6806F487
:103980000016B6F5001F00D12043104E0C363060F3
:10399000491C1029FFF416AFF8BD0000443802405E
:1039A00008380140000002400004024000080240C4
:1039B000000C0240001002400014024000180240B7
:1039C000001C02400020024000240240003C014054
:1039D0000AB1816101E00B0483617047014800680E
:1039E000704700000000002002480068401C0149A8
:1039F000086070470000002010B50D48006840F4D2
:103A000000700B4908600846006840F48060086058
:103A10000846006840F480700860032000F0E2F877
:103A2000002000F007F800F019F8002010BD000099
:103A3000003C024070B50446074800684FF47A71B4
:103A4000B0FBF1F5284601F0D9FA00222146501EBC
:103A500000F089F8002070BD0800002010B5052096
:103A600000F0C0F8002211466FF00B0000F07BF868
:103A7000002211466FF00A0000F075F8002211468E
:103A80006FF0090000F06FF800221146501F00F09F
:103A90006AF800221146101F00F065F80022114656
:103AA000901E00F060F800221146501E00F05BF8F6
:103AB00010BD70B504460D4616460CB9012070BD08
:103AC00094F8390028B9002084F83800204602F024
:103AD0007DF8242084F839002068C06820F4005064
:103AE0002168C860204604F065FB2068006920F466
:103AF0009040216808612068406920F02A00216810
:103B000048612068006920F00F0021680861206882
:103B100000692843216808612068C06820F40060BB
:103B20002168C8602068C06830432168C860206888
:103B3000C06840F400502168C8600020E063202085
:103B400084F8390084F83A000020B8E700BF00F09C
:103B50001F02012191404209920002F1E022C2F8C5
:103B6000001100BF70472DE9F05F80460D461646F4
:103B7000002703F065F8074639462A46334601F028
:103B80000700C0F1070ABAF1040F02D94FF0040A86
:103B900001E0C0F1070AD14600F1040ABAF1070FAB
:103BA00002D24FF0000A01E0A0F1030AD4464FF020
:103BB000010A0AFA09FAAAF1010A0AEA020A0AFA49
:103BC0000CFA4FF0010B0BFA0CFBABF1010B0BEAFB
:103BD000030B4AEA0B042146404603F039F8BDE8DE
:103BE000F09F000000BF00F00702064B19684FF677
:103BF000FF031940044B0B4343EA0221014B1960B8
:103C000000BF70470CED00E00000FA0510B5044657
:103C1000D4F8B40304F01AFF10BD70B504460D4685
:103C2000C5EBC50304F1380101EB8301CA682946DD
:103C3000D4F8B40304F05AFE70BD70B504460D46C6
:103C4000C5EBC50304F5EE7101EB8301CA68294693
:103C5000D4F8B40304F0B7FE70BD10B50446D4F830
:103C6000B40304F0F6FE10BD70B504460D4605F031
:103C70008000802808D105F07F00C0EBC00104F16E
:103C8000380000EB810605E0C5EBC50104F5EE70D8
:103C900000EB81060020B07005F07F003070C5F3A6
:103CA000C010707000BF94F88003012801D1022079
:103CB00070BD012084F8800300BF3146206805F004
:103CC00017FB00BF002084F8800300BF00BFEFE7B0
:103CD0002DE9F04705460E4690461F464FF0000975
:103CE00006F08000802808D106F07F00C0EBC001FC
:103CF00005F1380000EB810407E006F07F00C0EB1F
:103D0000C00105F5EE7000EB810406F07F00207025
:103D100006F08000C0096070C4F80880E770607821
:103D200008B12078E080022F01D10020207100BF6F
:103D300095F88003012802D10220BDE8F087012018
:103D400085F8800300BF2146286805F053F900BFBD
:103D5000002085F8800300BF4846EEE72DE9F041DA
:103D600004460E461746984606F07F00C0EBC00199
:103D700004F5EE7000EB8105EF60C5F814800020BB
:103D8000A861687006F07F0028702069012800D1C2
:103D90002F6100BF94F88003012802D10220BDE802
:103DA000F081012084F8800300BF06F07F0028B96D
:103DB000227C2946206805F0A1F904E0227C2946EE
:103DC000206805F01FFB00BF002084F8800300BFBF
:103DD00000BFE4E770B504460D4605F0800080287A
:103DE00008D105F07F00C0EBC00104F1380000EB02
:103DF000810605E0C5EBC50104F5EE7000EB810618
:103E00000120B07005F07F003070C5F3C0107070F5
:103E100000BF94F88003012801D1022070BD012069
:103E200084F8800300BF3146206805F0A5FA05F04C
:103E30007F0028B9217C04F56172206805F036FA0C
:103E400000BF002084F8800300BF00BFE6E72DE933
:103E5000F04104460E461746984606F07F00C0EB38
:103E6000C00104F1380000EB8105EF60C5F8148053
:103E70000020A8610120687006F07F00287020698A
:103E8000012800D12F6100BF94F88003012802D1DE
:103E90000220BDE8F081012084F8800300BF06F015
:103EA0007F0028B9227C2946206805F027F904E024
:103EB000227C2946206805F0A5FA00BF002084F87E
:103EC000800300BF00BFE4E72DE9FC5F04462668DD
:103ED0004FF0000B002001908146002500908046A5
:103EE000F74F206805F030FC00286CD1206805F001
:103EF00063FC08B9BDE8FC9F206805F05DFC00F09C
:103F00000200022805D12068406900F00200216803
:103F10004861206805F050FC00F40020B0F5002F47
:103F20007ED10025206805F01DFC019075E0019808
:103F300000F0010000286CD0E9B2206805F031FCE7
:103F4000814609F00100E8B3012106F5306000EB7D
:103F500045108160206901282BD1C5EBC50104F50E
:103F6000EE7000EB8100816806F5306000EB4510D3
:103F70000069C0F31200091AC5EBC50204F5EE7022
:103F800000EB82008161C5EBC50104F5EE7000EB2A
:103F90008100C5EBC502C16804F5EE7000EB82003C
:103FA00080680144C5EBC50204F5EE7000EB8200A9
:103FB000C160E9B22046FFF740FE2069012811D117
:103FC00005B901E00EE0B2E2C5EBC50104F5EE7003
:103FD00000EB8100406928B904F561720121206875
:103FE00005F064F909F00800082808D1204600F01F
:103FF00007FB082106F5306000EB4510816009F0F1
:104000001000102805D1102106F5306000EB451096
:1040100081606D1C0198400801900198002800E023
:1040200000E084D1206805F0C7FB00F48020B0F5E3
:10403000802F7DD1206805F08CFB0190002585E064
:10404000019800F0010000287CD0E9B2206805F05A
:1040500092FB814609F00100F0B30120A8400090D6
:1040600040F6340080590099884340F63401885165
:10407000012106F5106000EB4510816020690128E0
:1040800015D1C5EBC50104F1380000EB8100C5EB8B
:10409000C502C16804F1380000EB82008068014469
:1040A000C5EBC50204F1380000EB8200C160E9B243
:1040B0002046FFF7B2FD2069012810D165B9C5EB94
:1040C000C50104F1380000EB8100406920B904F516
:1040D00061720121206800E001E005F0E7F809F0D5
:1040E0000800082805D1082106F5106000EB4510EE
:1040F000816009F01000102805D1102106F510602C
:1041000000EB4510816009F04000402805D14021B6
:1041100006F5106000EB4510816009F002000228EE
:1041200005D1022106F5106000EB4510816001E029
:1041300010E007E009F08000802803D129462046DE
:1041400002F0A2FD6D1C0198400801900198002822
:104150007FF476AF206805F02FFB00F00040B0F14F
:10416000004F10D140F60400805920F0010140F6C4
:1041700004008151204600F01CFA2068406900F0DC
:10418000004021684861206805F016FB00F40060DB
:10419000B0F5006F0ED140F60800805900F0010024
:1041A00010B1204600F036FA2068406900F4006043
:1041B00021684861206805F0FFFA00F48050B0F5EE
:1041C000805F5CD140F60400805920F0010140F688
:1041D000040081510021206805F07CFA4FF0000BAB
:1041E0000CE0FF2106F5106000EB4B10816006F536
:1041F000306000EB4B1081600BF1010B606858459B
:10420000EFD84FF0FF3140F618008151001D805962
:1042100040F0011140F61C008151206B70B1D6F8BE
:10422000840840F00B01C6F8841840F64400805919
:1042300040F00B0140F6440081510EE040F61400BE
:10424000805940F00B0140F614008151001F805945
:1042500040F00B014FF401608151D6F8000820F4C2
:10426000FE60C6F80008217C04F56172206805F044
:104270001DF82068406900F480502168486120687A
:1042800005F09AFA00F40050B0F5005F6FD1206895
:1042900004F012FF2068C06820F470502168C860E4
:1042A000206805F02FFA68B90021E1604FF4007131
:1042B00061612068C06840F410502168C86084E0E3
:1042C0000095BA0A0321E1604021616100F0A4FA7F
:1042D00007469848874209D39748874206D2206804
:1042E000C06840F470502168C8606EE09248874210
:1042F00009D39248874206D22068C06840F46050D3
:104300002168C86061E08D48874209D38C488742A4
:1043100006D22068C06840F450502168C86054E05C
:104320008748874209D38748874206D22068C068F9
:1043300040F440502168C86047E08248874209D372
:104340008148874206D22068C06840F43050216816
:10435000C8603AE07C4887420AD37C48874207D24B
:104360002068C06840F420502168C8602DE035E026
:104370007648874209D37648874206D22068C068CB
:1043800040F410502168C8601FE07148874209D38B
:104390007048874206D22068C06840F40050216807
:1043A000C86012E06B48874209D36B48874206D247
:1043B0002068C06840F4E0502168C86005E02068CB
:1043C000C06840F4C0502168C860204600F0D8F8AA
:1043D0002068406900F4005021684861206805F0B9
:1043E000EBF900F01000102845D12068806920F01A
:1043F000100021688861D6F8208008F00F00C0EB1B
:10440000C00104F5EE7000EB810AC8F343400228B6
:104410001AD147F6F07008EA000030B3C8F30A1268
:104420003046DAF80C1005F0CDF9C8F30A11DAF8C5
:104430000C000844CAF80C00C8F30A11DAF8180096
:104440000844CAF8180010E0C8F3434006280CD10D
:10445000082204F56171304605F0B4F9C8F30A1179
:10446000DAF818000844CAF818002068806940F09B
:10447000100021688861206805F09EF900F00800AE
:10448000082808D1204600F09BF82068406900F019
:10449000080021684861206805F08EF900F480105A
:1044A000B0F5801F09D1E9B2204600F057F8206826
:1044B000406900F4801021684861206805F07CF9AB
:1044C00000F40010B0F5001F09D1E9B2204600F059
:1044D0004EF82068406900F40010216848612068A7
:1044E00005F06AF900F08040B0F1804F08D1204615
:1044F000FFF78CFB2068406900F08040216848612C
:10450000206805F059F900F0040004280FD1206854
:10451000D0F8048008F00400042802D12046FFF7F8
:104520009CFB2068406840EA08002168486000BFA2
:10453000E0E40000C0ACD800C0E1E4000024F400D6
:1045400080730601A0491A01002D310140A44C01DD
:1045500000366E0120ABA6010048E80170B50446A4
:104560000D462946D4F8B40304F09CFA70BD70B52A
:1045700004460D462946D4F8B40304F096FA70BDFB
:1045800070B504460125E06810B1022804D101E0AD
:10459000002503E0012501E0012500BF00BF2946F9
:1045A000D4F8B40304F0DEFAD4F8B40304F0A0FAAB
:1045B00070BD10B50446D4F8B40304F0BBFA10BDC6
:1045C00010B50446D4F8B40304F0BBFA10BD70B5BE
:1045D00004460D4600BF94F88003012801D1022053
:1045E00070BD012084F8800300BF2946206805F0D3
:1045F000FAF800BF002084F8800300BF00BFEFE797
:1046000010B5044604F56171D4F8B40304F0B8FAA7
:1046100010BD000010B50446D4F8B40304F0F1FA5C
:104620002068D0F8000E40F001002168C1F8000EAB
:10463000206A28B10348006840F00600014908607C
:1046400010BD000010ED00E070B504460D460026D8
:104650006D48006800F00F00A84209D26A490D7049
:104660000846006800F00F00A84201D0012070BD8C
:10467000207800F00200022807D16448006820F08A
:10468000F000A168084361490860207800F001004B
:10469000002877D06068012807D15C480838006896
:1046A000C0F34040B8B90120E1E76068022802D0B9
:1046B0006068032807D1554808380068C0F3406097
:1046C00048B90120D3E7514808380068C0F34000DA
:1046D00008B90120CBE74D48006820F0030061686D
:1046E00008434A490860FFF779F9064660680128DF
:1046F00010D108E0FFF772F9801B41F2883188423F
:1047000001D90320B3E74148006800F00C000428F9
:10471000F0D137E06068022810D108E0FFF75EF9B9
:10472000801B41F28831884201D903209FE7374836
:10473000006800F00C000828F0D123E0606803282E
:1047400010D108E0FFF74AF9801B41F28831884216
:1047500001D903208BE72D48006800F00C000C28DD
:10476000F0D10FE008E0FFF739F9801B41F2883102
:10477000884201D903207AE72448006800F00C0041
:104780000028F0D12048006800F00F00A84209D9A5
:104790001D490D700846006800F00F00A84201D0C6
:1047A000012064E7207800F00400042807D11748AE
:1047B000006820F4E050E16808431449086020785C
:1047C00000F00800082808D11048006820F4604074
:1047D000216940EAC1000D49086000F04FF80B491B
:1047E000096801F0F001F02292FAA2F2B2FA82F224
:1047F000D140074A515CC840064908600020FFF7D5
:1048000019F9002033E70000003C0240083802405C
:1048100054AF0008080000200148006870470000FD
:104820000800002000B5FFF7F7FF0749096801F409
:10483000E0514FF4E05292FAA2F2B2FA82F2D14081
:10484000024A515CC84000BD0838024054AF00081D
:1048500000B5FFF7E1FF0749096801F460414FF433
:10486000604292FAA2F2B2FA82F2D140024A515C5C
:10487000C84000BD0838024054AF000870B50021A0
:10488000002200230020274C246804F00C0424B1EB
:10489000042C04D0082C41D103E0234840E02348F5
:1048A0003EE0204C241F246804F03F011D4C241FCF
:1048B000246804F4800484B11C4CB4FBF1F5194C59
:1048C000241F246847F6C076344096FAA6F6B6FA56
:1048D00086F6F44005FB04F20FE0134CB4FBF1F54F
:1048E000104C241F246847F6C076344096FAA6F68A
:1048F000B6FA86F6F44005FB04F20A4C241F24683D
:1049000004F440344FF4403595FAA5F5B5FA85F531
:10491000EC40641C6300B2FBF3F001E0024800BF0E
:1049200000BF70BD083802400024F400001BB7002F
:1049300038B504460025207800F00100002848D052
:10494000DE48006800F00C0004280DD0DB48006849
:1049500000F00C00082811D1D848001F006800F4AE
:104960008000B0F5800F09D1D44808380068C0F342
:10497000404070B3606860BB012038BD2079CF49EA
:10498000891F0870606890B1FFF728F8054606E0B7
:10499000FFF724F8401B642801D90320EDE7C7483E
:1049A00008380068C0F340400028F1D011E0FFF75C
:1049B00015F8054606E0FFF711F8401B642801D9F9
:1049C0000320DAE7BD4808380068C0F340400028FB
:1049D000F1D1207800F00200022869D1B7480068C0
:1049E00000F00C0058B1B548006800F00C00082831
:1049F00021D1B248001F006800F48000D8B9AF4848
:104A000008380068C0F3400020B1E068012801D0F8
:104A10000120B2E7A9480838006820F0F800F82221
:104A200092FAA2F2B2FA82F2216991400843A349B4
:104A3000083908603CE0E06828B30120A04908601C
:104A4000FEF7CCFF054606E0FEF7C8FF401B022834
:104A500001D9032091E7994808380068C0F3400065
:104A60000028F1D095480838006820F0F800F822B6
:104A700092FAA2F2B2FA82F22169914008438F4978
:104A80000839086014E000208D490860FEF7A6FF91
:104A9000054606E0FEF7A2FF401B022801D90320CD
:104AA0006BE7864808380068C0F340000028F1D161
:104AB000207800F0080008282CD16069A8B10120F6
:104AC00080490860FEF78AFF054606E0FEF786FF8C
:104AD000401B022801D903204FE778486C3000685A
:104AE000C0F340000028F1D014E0002075490860B0
:104AF000FEF774FF054606E0FEF770FF401B022834
:104B000001D9032039E76D486C300068C0F34000DC
:104B10000028F1D1207800F00400042857D100BF0C
:104B20000020009065483830006840F080506349AC
:104B3000383108600846006800F08050009000BFDF
:104B400000BF6148006840F480705F490860FEF76C
:104B500045FF054606E0FEF741FF401B022801D94C
:104B600003200AE75848006800F480700028F2D05B
:104B7000207A524968310870A068A0B1FEF72EFF74
:104B8000054608E0FEF72AFF401B41F288318842C3
:104B900001D90320F1E6494868300068C0F34000BD
:104BA0000028EFD013E0FEF719FF054608E0FEF7F6
:104BB00015FF401B41F28831884201D90320DCE611
:104BC0003E4868300068C0F340000028EFD1A0697B
:104BD000F0B33A48006800F00C00082869D0A069DA
:104BE000022850D1002036490866FEF7F7FE054638
:104BF00006E0FEF7F3FE401B022801D90320BCE6C5
:104C00002E4808380068C0F340600028F1D1D4E98C
:104C10000701084347F6C07292FAA2F2B2FA82F292
:104C2000616A914008430122A16AC2EB51014FF42D
:104C3000403292FAA2F2B2FA82F2914008434FF067
:104C4000706292FAA2F2B2FA82F2E16A914000E056
:104C500031E008431949091F086001201849086616
:104C6000FEF7BCFE054606E0FEF7B8FE401B022834
:104C700001D9032081E6114808380068C0F340607C
:104C80000028F1D017E000200D490866FEF7A6FEC7
:104C9000054606E0FEF7A2FE401B022801D90320CC
:104CA0006BE6064808380068C0F340600028F1D180
:104CB00001E0012061E600205FE6000008380240C4
:104CC00000004742800E47420070004010B5044685
:104CD0000CB9012010BD606A00B900BF0021A162BB
:104CE00094F8510028B9002084F85000204600F0C4
:104CF00033F8022084F851002068006820F040005A
:104D000021680860D4E901010843E168084321698A
:104D1000084361690843218B01F400710843E1698C
:104D20000843216A0843A16A0843216808600421F6
:104D3000A06901EA1040616A084321684860206860
:104D4000C06920F400602168C8610020606501200E
:104D500084F851000020BDE710B586B00446124922
:104D6000206888421ED100BF002000900F480068D4
:104D700040F480100D4908600846006800F4801077
:104D8000009000BF00BF4FF46070019002200290BD
:104D900000200390032004900520059001A90448F9
:104DA000FEF708FD06B010BD005001404438024037
:104DB000001402402DE9FE4F04460D4616461F46DC
:104DC000DDF830804FF0000A0020029081464FF05D
:104DD000010B019000BF94F85000012802D102207D
:104DE000BDE8FE8F012084F8500000BFFEF7F6FDFD
:104DF000814694F851A060680290BAF1010F0BD07F
:104E00000298B0F5827F04D1A06810B9BAF1040FFE
:104E100002D002200190D2E00DB106B117B90120F5
:104E20000190CCE094F85100012802D1052084F8CB
:104E3000510000206065A663E787A7872563E786A2
:104E4000A786206460642068006800F04000402865
:104E500005D02068006840F0400021680860E068E4
:104E6000B0F5006F43D1606810B1E08E012806D123
:104E700028882168C860AD1CE08E401EE0862FE0C7
:104E8000BBF1000F10D0E08E70B12068806800F098
:104E90000200022808D128882168C860AD1CE08E75
:104EA000401EE0864FF0000BE08F68B120688068FC
:104EB00000F0010040B12068C0683080B61CE08F6F
:104EC000401EE0874FF0010B08F1010040B1FEF7F2
:104ED00085FDA0EB0900404502D3032001906EE060
:104EE000E08E0028CCD1E08F0028C9D142E0606874
:104EF00010B1E08E012806D12878216808736D1C56
:104F0000E08E401EE0862FE0BBF1000F10D0E08E57
:104F100070B12068806800F00200022808D115F8FE
:104F2000010B21680873E08E401EE0864FF0000BF5
:104F3000E08F68B12068806800F0010040B120680F
:104F4000C06806F8010BE08F401EE0874FF0010BB0
:104F500008F1010040B1FEF741FDA0EB090040451A
:104F600002D3032001902AE0E08E0028CCD1E08F0C
:104F70000028C9D14346012202212046CDF80090E5
:104F800002F0F8FB10B10320019018E04A464146B8
:104F9000204602F0DBFB20B101200190202060655B
:104FA0000DE0A06850B900BF002000902068C068E4
:104FB000009020688068009000BF00BF00BF012003
:104FC00084F8510000BF002084F8500000BF019811
:104FD00006E7042808D14FF0E021096941F00401F7
:104FE0004FF0E022116107E04FF0E021096921F064
:104FF00004014FF0E02211617047704770B504461C
:105000002546681EB0F1807F01D301200FE0681EA5
:105010004FF0E02148610F214FF0FF3001F018FE02
:1050200000204FF0E021886107200861002070BD5A
:1050300010B5FFF7E2FF10BD70477047024600BF92
:1050400092F83800012801D102207047012082F82F
:10505000380000BF022082F83900D1E9000318436C
:105060008B681843CB6818430B6918434B69184386
:105070008B69184313685864012082F8390000BF17
:10508000002082F8380000BF00BFDEE7024600BF04
:1050900092F83800012801D102207047012082F8DF
:1050A000380000BF022082F839001068406820F004
:1050B000700013685860106840680B6818431368E4
:1050C00058601068806820F080001368986010684D
:1050D00080684B68184313689860012082F8390093
:1050E00000BF002082F8380000BF00BFD5E710B530
:1050F00004460CB9012010BD94F8390028B90020ED
:1051000084F83800204600F00DF8022084F83900B9
:10511000211D206802F0BCFC012084F83900002029
:10512000E9E7000010B594B004462068B0F1804F64
:105130004DD100BF002001905648006840F00100AA
:10514000544908600846006800F00100019000BF63
:1051500000BF8814109010A9204600F0BCF8002071
:105160000E900F900EA92046FFF790FF00200B90A5
:10517000602007904FF47A70089000200990082270
:1051800007A9204600F00CFA0C2207A9204600F0DF
:1051900007FA0C2002900220039000200490059052
:1051A0000120069002A93C48FEF704FB00220321DF
:1051B0001C20FEF7D8FC1C20FEF7C8FC082137484D
:1051C00000F02AFA0C21354800F026FA60E0344954
:1051D000206888421BD100BF002013902D48006832
:1051E00040F002002B4908600846006800F0020009
:1051F000139000BF00BF002202211D20FEF7B3FC68
:105200001D20FEF7A3FC274800F056F840E0264991
:10521000206888421BD100BF002013901D48006801
:1052200040F004001B4908600846006800F00400D4
:10523000139000BF00BF002205211E20FEF793FC43
:105240001E20FEF783FC194800F036F820E01849CC
:10525000206888421BD100BF002013900D480068D1
:1052600040F008000B4908600846006800F008009C
:10527000139000BF00BF002201213220FEF773FC13
:105280003220FEF763FC0B4800F016F800E000BF88
:1052900014B010BD4038024000000240342000200D
:1052A000000400407020002000080040AC200020D6
:1052B000000C0040E820002001460868C06840F06B
:1052C00001000A68D0600868006840F001000A68C0
:1052D0001060002070472DE9F04104460D4600267D
:1052E00000BF94F83800012802D10220BDE8F08107
:1052F000012084F8380000BF022084F839002068BB
:10530000866826F0770626F47F462068866028683F
:1053100050283BD00CDC202860D004DC002853D07F
:10532000102865D155E030285DD0402860D141E09B
:10533000602835D070280DD0B0F5805F03D0B0F56F
:10534000005F55D115E02068806820F007002168D3
:1053500088604EE0D5E902136A68206802F018FC04
:105360002068866826F0770646F077062068866013
:105370003FE0D5E902136A68206802F009FC206862
:10538000806840F480402168886032E0EA6869689B
:10539000206802F0F3FC5021206802F005FC28E0B0
:1053A000EA686968206802F0FEFC6021206802F06B
:1053B000FBFB1EE0EA686968206802F0DFFC402120
:1053C000206802F0F1FB14E00021206802F0ECFB01
:1053D0000FE01021206802F0E7FB0AE0202120689E
:1053E00002F0E2FB05E03021206802F0DDFB00E086
:1053F00000BF00BF012084F8390000BF002084F8FE
:10540000380000BF00BF71E7704710B50446206840
:105410000069C0F34000D8B12068C068C0F3400004
:10542000B0B16FF002002168086101202076206889
:10543000806900F0030018B12046FFF7E5FF05E0A2
:10544000204600F0E7F8204600F0C4F9002020765E
:1054500020680069C0F38000D8B12068C068C0F33C
:105460008000B0B16FF0040021680861022020764E
:105470002068806900F4407018B12046FFF7C4FF2F
:1054800005E0204600F0C6F8204600F0A3F9002011
:10549000207620680069C0F3C000D8B12068C068D9
:1054A000C0F3C000B0B16FF00800216808610420AB
:1054B00020762068C06900F0030018B12046FFF78D
:1054C000A3FF05E0204600F0A5F8204600F082F991
:1054D0000020207620680069C0F30010D8B1206851
:1054E000C068C0F30010B0B16FF01000216808610F
:1054F000082020762068C06900F4407018B120466A
:10550000FFF782FF05E0204600F084F8204600F017
:1055100061F9002020762068006900F0010058B190
:105520002068C06800F0010030B16FF00100216810
:105530000861204600F050F920680069C0F3C010EF
:1055400058B12068C068C0F3C01030B16FF080005F
:10555000216808612046FFF76FFD20680069C0F3ED
:10556000801058B12068C068C0F3801030B16FF06F
:10557000400021680861204600F080FA2068006938
:10558000C0F3401058B12068C068C0F3401030B17B
:105590006FF02000216808612046FFF74EFD10BD26
:1055A00070B504460E46154600BF94F83800012831
:1055B00001D1022070BD012084F8380000BF022014
:1055C00084F8390035B1042D09D0082D0CD00C2DEC
:1055D00014D10EE03146206802F0F0FA0FE03146B7
:1055E000206802F023FB0AE03146206802F05AFBF3
:1055F00005E03146206802F091FB00E000BF00BFEB
:10560000012084F8390000BF002084F8380000BF72
:1056100000BFCFE77047000030B504460D460122B9
:105620002946206802F0A6FA0C492068884203D077
:105630000B492068884201D1012000E0002028B1F8
:105640002068406C40F4004021684864206800688D
:1056500040F0010021680860002030BD00000140DA
:105660000004014070B504460D46164600BF94F88C
:105670003800012801D1022070BD012084F83800D3
:1056800000BF022084F8390036B1042E1BD0082E4A
:1056900031D00C2E5ED145E02946206802F08EFA0A
:1056A0002068806940F0080021688861206880696E
:1056B00020F0040021688861206880692969084316
:1056C0002168886147E02946206802F0AFFA206827
:1056D000806940F40060216888612068806920F456
:1056E00080602168886120688069296940EA01201A
:1056F000216888612FE02946206802F0D3FA2068EB
:10570000C06940F008002168C8612068C06920F0C5
:1057100004002168C8612068C069296908432168BC
:10572000C86118E02946206802F0F8FA2068C069CC
:1057300040F400602168C8612068C06920F480607E
:105740002168C8612068C069296940EA0120216890
:10575000C86100E000BF00BF012084F8390000BF2D
:10576000002084F8380000BF00BF85E710B504466C
:105770000CB9012010BD94F8390028B9002084F834
:105780003800204600F00CF8022084F83900211D72
:10579000206802F07DF9012084F839000020E9E753
:1057A00008B50A4A016891420FD100BF002100915B
:1057B0000749096841F00101054A1160114609686D
:1057C00001F00101009100BF00BF08BD00000140D1
:1057D000443802407047000010B52DED088B84B0AE
:1057E00004468B480078012828D18A48844226D173
:1057F0008948006840F480708749086087480088BD
:1058000042F21071884205DA84480088401C8349BE
:10581000088002E000208149088080480088052136
:1058200090FBF1F201FB120008B9FCF7BBFC7C48CD
:1058300090F83000002801D0FBF78CFEE3E07948B7
:105840008442FBD19FED780A8DED030A724800680F
:1058500040F480507049086000F0D6FB704890ED2D
:10586000060ADFED720A20EE200AF1EE040A20EEAD
:10587000200A8DED030A9FED6E0A03A8FBF73FF89F
:105880006C4890ED0F0A10EE101A0846FAF763FE06
:105890009FED690B53EC102BFAF76FFD41EC190BE0
:1058A0000398FAF758FE9FED660B53EC102BFAF7AE
:1058B00064FD53EC192BFAF7B9FCFAF78FFE5D493A
:1058C000C8636148D0E90E20921E70F1000038D202
:1058D0005E4890ED060AB5EEC00AF1EE10FA02DD60
:1058E00090ED060A04E0594890ED060AB1EE400A30
:1058F000DFED570AB4EEE00AF1EE10FA02DD012006
:10590000544908805348008890B153480088401C8F
:10591000514908809FED510A4C4880ED5E0A0846C7
:105920000088B0F57A7F11DD00204A4908800DE03B
:105930009FED4B0A454880ED5E0A002046490880ED
:1059400004E09FED390A414880ED5E0A3F4890ED42
:105950005E1AF0EE410A90ED031AB0EE410AD0F85B
:105960002411DC308847394880ED600A3D480078D2
:10597000401C3C49087008460078012838D13A4854
:1059800090ED600ABDEEC00A10EE100A00B2374971
:1059900091ED600ABDEEC00A10EE101A09B2CDE911
:1059A0000010334890EDC10ABDEEC00A10EE100A97
:1059B00003B22F4890ED600ABDEEC00A10EE100A47
:1059C00002B24FF400712B4801F02AFF0020009032
:1059D00001901E4890ED600ABDEEC00A10EE100A5C
:1059E00002B2002340F2FF11224801F019FF09E042
:1059F0001C480078012805DD1F4802F069FA0020E4
:105A00001849087000BF04B0BDEC088B10BD000041
:105A1000C800002070200020CC000020DE00002004
:105A2000B0190020E82000200000000058A08B3AA8
:105A300000007A4310000020666666666666EE3FE8
:105A40009A9999999999A93F500400202C180020FF
:105A500000409C45E4000020E20000200000FAC461
:105A60000000FA44E00000200C0C0020880A00200E
:105A700080070020F81B0020381C0020704770476A
:105A80002DE9F0470446206805682068C66820684C
:105A900047694FF00008C14605F00F08B8F1000F44
:105AA0000AD105F0200038B106F0200020B12046D0
:105AB00002F032FBBDE8F087B8F1000F6DD007F0BF
:105AC000010018B906F49070002866D005F00100B6
:105AD00030B106F4807018B1E06B40F00100E06373
