:020000040800F2
:100000001829002065010008A53B00088335000879
:10001000553B000849090008014F00080000000096
:10002000000000000000000000000000FF42000887
:10003000370B000800000000C73B000855440008CB
:100040007F0100087F0100087F0100087F01000890
:100050007F0100087F010008390B00083F0B0008F2
:10006000450B00087F0100087F0100087F010008A0
:10007000E90A0008F50A00087F0100087F0100086E
:100080007F0100087F0100087F010008590900086E
:100090004D0900087F0100087F0100087F0100086A
:1000A0007F0100087F0100087F0100087F01000830
:1000B0007F01000829450008354500087F01000838
:1000C0007F0100087F0100087F0100087F01000810
:1000D0007F0100087F0100087F010008F54E00083D
:1000E0007F0100087F0100087F0100080000000078
:1000F0000000000000000000000000000000000000
:100100000000000000000000414500087F010008D9
:100110004D4B00087F0100087F0100087F010008A7
:100120007F0100087F010008010B00087F01000823
:100130007F01000800000000000000007F010008AF
:10014000650900087F0100087F0100087F010008A1
:10015000DFF80CD000F0C4FB0048004791530008C2
:10016000182900200648804706480047FEE7FEE7BA
:10017000FEE7FEE7FEE7FEE7FEE7FEE7FEE7FEE757
:10018000D544000851010008202A04DB203A21FA56
:1001900002F00021704721FA02F3D040C2F12002A0
:1001A000914008431946704740EA01039B0703D07A
:1001B00009E008C9121F08C0042AFAD203E011F8A6
:1001C000013B00F8013B521EF9D27047F0B480EABF
:1001D0000102D40F4200B2EB410F02D202460846A0
:1001E00011464A0042D0C30DDDB2C1F3C752AD1A69
:1001F000202D35DAC1F3160141F4000204B1524258
:10020000C5F1200602FA06F12A411044B3EBD05F93
:1002100023D0C4B1012DA0EBC35009DCF0BC4FF0DA
:10022000004202EAC352DBB200F5000000F0CCBA93
:10023000400000F1807000EBC350A0F1807040EAF4
:10024000D170490009E0490841EAC071A0EBC350F0
:1002500000F50000400800EBC350F0BC00F0ABBA62
:100260006142012202EB4101001BF6E7F0BC70473E
:1002700081F00041AAE780F00040A7E780EA010290
:1002800010B502F00043400022D04A001FD0010EFA
:1002900001EB1261C0F35600C2F3560240F40000B5
:1002A00042F40002A0FB022000047F39140400D0B5
:1002B000401C50EA124001D44000491EC2B20C0654
:1002C00004EBD010401C4008802A02D003E000203C
:1002D00010BD20F00100002900DA0020184310BDF5
:1002E00030B480EA010202F0004530F0004221F013
:1002F000004013D090B1C30DD40DC2F31601C0F36A
:100300001600E41A41F4000140F400027D349142E9
:1003100001D3641C00E04900002C02DA30BC00204C
:1003200070474FF400000023914201D3891A034320
:1003300040084FEA4101F7D151B1914202D14FF04B
:10034000004105E002D24FF0010101E06FF0010130
:1003500003EBC450284430BC00F02DBA420005D055
:10036000C0F3C7525242914201DC0020704700EBBB
:10037000C15070472DE9FE4F804681EA0300C00F4F
:100380000C46009021F0004123F00045B8EB02003C
:10039000A94105D24046214690461C460B460246DE
:1003A00023F00040104347D0270DC7F30A00C3F3E2
:1003B0000A510290401A019040286BDAC3F31300EF
:1003C00040F4801B0098924620B10023D2EB030A30
:1003D00063EB0B0B01985946C0F14002504600F008
:1003E000C9F906460D4650465946019A00F0D1F922
:1003F00010EB08006141002487EA115284EAE77398
:100400001A4340D0009A62B3019A012A4FEA075278
:1004100015DC001B61EB02014FF0004202EA0752BB
:10042000CDE90042001C41F5801132462B4600F018
:1004300008FA03B0BDE8F08F40462146F9E7001BFB
:1004400061EB0201001C41F5801300185B4120188C
:10045000A2F5001747EB030140EAD570B6196D41CC
:1004600011E06D084FEA360645EAC0754FEA0752BB
:10047000001B61EB0201001C41F5801149084FEAA5
:1004800030000019514132462B4603B0BDE8F04F11
:1004900000F0C8B90098012240000023D0EB02020E
:1004A00063EBE073009821464FEAE074B8EB00007C
:1004B00061EB0401E9E783F000435BE781F0004171
:1004C00058E72DE9FE4F81EA030404F0004421F0CF
:1004D000004100944FF0000B23F0004350EA010468
:1004E0005ED052EA03045BD0C3F30A54C1F30A5549
:1004F0002C44A4F2F3340194A0FB0254C1F3130181
:1005000041F48011C3F3130343F4801301FB02444D
:1005100000FB034E840A970A44EA815447EA835752
:10052000A4FB076802958D0A05FB07854FEA932C0B
:1005300004FB0C542705029D4FEA065847EA16377C
:10054000B5EB08056EEB070C870E920E47EA811794
:1005500042EA8312A7FB0201B6EB0B0164EB000435
:100560002B0D43EA0C335E1844EB1C50DA4651461F
:10057000E7FB0201C5F313044FEA0B3343EA1453BC
:100580004FEA0432019C43EA0603A4F10C040294EE
:10059000009CCDE900B400F054F903B0BDE8F08F41
:1005A00000200146F9E72DE9F04D81EA030404F04B
:1005B000004B21F0004514464FF0000A23F00041A3
:1005C00050EA050220D054EA01021DD0C5F30A57B3
:1005D0000246C5F31303C1F31300C1F30A5640F4F6
:1005E000801543F48013A7EB0608101BD64608F2CB
:1005F000FD3873EB050002D308F1010801E0921801
:100600005B41B8F1000F03DA00200146BDE8F08D30
:1006100000204FF48011064684460EE0171B73EB52
:10062000050705D3121B63EB050306434CEA010CD7
:1006300049084FEA300092185B4150EA0107EDD1BA
:1006400052EA030012D082EA040083EA050108435B
:1006500005D0101BAB4106D20122002306E0002288
:100660004FF0004302E06FF0010253101AEB060056
:100670004CEB085110EB0A0041EB0B01BDE8F04DCB
:1006800000F0D0B8C10F80EAE0700844CA07962392
:10069000002100F099B896230022114600F094B88A
:1006A0000EB540F2334102910021CDE900110A4616
:1006B0000B4600F0C6F803B000BD00F0004220F089
:1006C0000040C10DC0F3160040F400007F2901DA9C
:1006D00000207047962903DCC1F19601C84001E073
:1006E00096398840002AF4D04042704700F000421A
:1006F00030F000400AD0C10D01F56071C0F3160062
:1007000042EA0151C20840071143704700200146E8
:10071000704701F0004330B421F0004150EA01027B
:1007200006D00A0DA2F56072C1F31301002A02DCA3
:1007300030BC00207047440F44EAC104C100E018F7
:1007400030BC00EBC25000F036B80000002801DBDE
:10075000C0F10040002901DBC1F100418142704736
:10076000002801DBC0F10040002901DBC1F100419C
:1007700088427047202A04DB203A00FA02F1002068
:1007800070479140C2F1200320FA03F319439040CF
:100790007047202A06DBCB17203A41FA02F043EAE1
:1007A000E07306E041FA02F3D040C2F1200291402A
:1007B0000843194670470029A8BF7047401C4900EC
:1007C00008BF20F00100704710B4B0FA80FC00FAB6
:1007D0000CF050EA010404BF10BC704749B1CCF1E1
:1007E000200421FA04F411FA0CF118BF012121436D
:1007F0000843A3EB0C01CB1D4FEA00614FEA102028
:1008000042BF002010BC704700EBC35010440029C9
:10081000A4BF10BC7047401C490008BF20F0010075
:1008200010BC704710B5141E73F1000408DA401CA8
:1008300041F1000192185B411A4301D120F00100FF
:1008400010BD2DE9F04D92469B4611B1B1FA81F2EF
:1008500002E0B0FA80F220329046FFF78BFF0446A8
:100860000F4640EA0A0041EA0B0153465A46084344
:1008700013D0114653EA010019D0C8F14002504686
:10088000FFF782FC05460E46504659464246FFF7A2
:1008900071FF084305D0012004E020463946BDE839
:1008A000F08D0020054346EAE0762C4337430A9852
:1008B0006305E40AA0EB08000022FD0A44EA47545D
:1008C0000A3002D500200146E9E701051019694107
:1008D000DDE9084500196941BDE8F04DA2E70000D7
:1008E000064C074D06E0E06840F0010394E807007D
:1008F00098471034AC42F6D3FFF72EFCE0550008C1
:100900000056000870B504460E4681F000450068A8
:10091000FFF726FF00D2266028462168FFF720FF58
:1009200000D2256070BD70B504460E4681F00045CA
:100930000068FFF715FF00D2266028462168FFF700
:100940000FFF00D2256070BDFEE70000014800F0F7
:100950001FBD00008C010020014800F019BD0000FF
:100960008C010020014800F013BD0000D0010020E0
:1009700000B58BB000210122CDE906120391089247
:100980000E4A05910091019102910491904205D186
:100990000991A2F1800101631C314163074944318F
:1009A000884206D10E2109910449403901631C3166
:1009B0004163694600F072FC0BB000BD8C01002061
:1009C00010B5002958D0826B4FF4D873046803EB3C
:1009D0000113E45814F0040494600468E4584DD002
:1009E000E40854600468E35803F00203D3604FF452
:1009F000DA73046803EB0113E45804F00F04146184
:100A000011620468E358C3F30723D3614FF4DC7326
:100A1000046803EB0113E45814750468E458240ACD
:100A200054750468E458240C94750468E3581B0E4C
:100A3000D3754FF4DE73046803EB0113E4581476A6
:100A40000468E458240A54760468E458240C947624
:100A50000468E3581B0ED3760368202289B11A611B
:100A60000268536923F05003536190F83C20222A16
:100A70000DD0322A0BD00FE0426BA5E7640D146055
:100A8000B0E7DA600268536923F00A03ECE7026812
:100A9000536923F40F43536112220123002990F874
:100AA0003C1006D0522915D0622916D0722906D1E1
:100AB00015E042290ED0622908D0722908D080F8AA
:100AC0003C3000BF00F00AFF002010BD322107E0DB
:100AD000522105E080F83C20F4E7222100E0422189
:100AE00080F83C10EEE70000014801F08DB90000ED
:100AF0001C040020014801F087B90000D803002041
:100B0000014801F081B900009403002030B590F84D
:100B100040500124AC40C56B6C600468636043685E
:100B2000102B036803D099600068C26030BD9A60E2
:100B30000068C16030BD7047012001F011BB022088
:100B400001F00EBB042001F00BBB00002DE9F041C9
:100B50001546DDE91014DDE90B06C1F30721012973
:100B600014D01C4FDFF87080280C4FF000061BD00B
:100B7000FFF796FD00223B46FFF79DFC002243460F
:100B8000FFF711FDFFF7C5FD60600EE0C0F3074100
:100B9000A1EB1060FFF776FD6060C6F30720F1B2AD
:100BA000401AFFF76FFD0FE066602804000C0ED0BE
:100BB000FFF776FD00223B46FFF77DFC002243460F
:100BC000FFF7F1FCFFF7A5FDA060BDE8F081A6608E
:100BD000FBE700000000904000A084402DE9F041B8
:100BE0001B4F119CDFF86C800D46080C4FF000067F
:100BF00011D0FFF755FD00223B46FFF75CFC0022B9
:100C00004346FFF7D0FC0022134BFFF75AFCFFF7D7
:100C100080FD206000E026602804000C11D0FFF762
:100C20003FFD00223B46FFF746FC00224346FFF70C
:100C3000BAFC0022094BFFF744FCFFF76AFDE060B5
:100C400000E0E66020686060E0682061BDE8F08157
:100C50000000904000A084400000394000004EC0D9
:100C600070B50446B0F89800401C80B2A4F8980013
:100C7000092815D90020A4F89800B4F99C60002E2A
:100C80000FDD54F8900F0849FFF7F8FA0546304693
:100C9000FFF7F8FC2946FFF7EBFAFFF70EFDA081FE
:100CA00070BDA4F89C0070BD000020412DE9F0410A
:100CB0000446B0F89A000026401C80B2A4F89A00BE
:100CC000092818D9A4F89A60B4F99E50002D10DDB7
:100CD0001149D4F89400FFF7D1FA07462846FFF7E8
:100CE000D1FC3946FFF7C4FAFFF7E7FCA4F89E00F1
:100CF00001E0A4F89E60B4F99E10B4F88E00814221
:100D000003DDA4F8A660BDE8F081401A34F8A21F04
:100D100090FBF1F0A080F6E7000020412DE9F041C2
:100D20000D46044690F8891001260020012911D0B3
:100D300089B302290CD1A4F88200B4F88410491CAC
:100D400089B2A4F88410FA2902D324F8840F6071C0
:100D5000BDE8F081B4F88210491C89B2A4F8821071
:100D6000A4F88400B1F5FA7F19D2D5F898104FF4A1
:100D70000003994201DA81F00041204A91420BDAE6
:100D8000D5F81C11994201DA81F00041914203DA51
:100D900084F88900DCE707E084F88960D8E724F864
:100DA000820F0220E071D3E7A4F88200A4F8840047
:100DB00094F888000128CBD1B4F99E00B4F8A210B1
:100DC0000844B4F88E108842C2DAA4F89E0054F8A1
:100DD000780F0B49FFF784FAE96AFFF74CFA0746E8
:100DE000E862688BFFF757FC6FF00C01FFF7B6FA6B
:100DF0003946FFF7EBF968636674A9E70000204104
:100E00000000B44342780021012A00D101218278F8
:100E1000012A01D141F00201C278012A01D141F039
:100E200004010279012A01D141F008014279012A25
:100E300001D141F010018279012A01D141F0200154
:100E4000C279012A01D141F04001027A012A01D17F
:100E500041F08001017070470E4902220B79002198
:100E6000012B03D000F8501F42707047437F012BC5
:100E700002D0022B0AD006E0074B93F8343006E08C
:100E800080F85020704780F850107047037F012B86
:100E9000F9D1F5E7D8040020A420002070472DE9FF
:100EA000F041044690F824000D466FF00C0700B3A3
:100EB000686B808A46BAE682686BC08A40BA00B224
:100EC000FFF7E0FBE060A060686B008B40BA00B207
:100ED000FFF7D8FB2061686B4FF07E51807E207554
:100EE000208B301AB0F5805F1DDDA06AFFF7C0F9D6
:100EF0001FE094F82500401CC0B284F82500322879
:100F000003D9012084F8240009E0486B808A40BAA4
:100F1000E084FFF7C0FB3946FFF720FA6063E08CFE
:100F20002083BDE8F08110F5805F03DAA06AFFF747
:100F30004DF9A0623046FFF7AEFB05463946FFF794
:100F40000DFAA76A3946FFF741F920630D213846AB
:100F5000FFF704FA2946FFF739F9FFF7AEFBE06225
:100F60002683DEE710B504460846FFF794FB0146EA
:100F70002046FFF7B5F9044CE168FFF727F9E06078
:100F800004F09AFAE06010BDB800002010B50446E5
:100F90000846FFF780FB01462046FFF7A1F9044C05
:100FA000A168FFF713F9A06004F086FAA06010BDF5
:100FB000B80000202DE9F041334C00254FF47A7140
:100FC000E068FFF7CFFFC4F8C80104F075FAC4F871
:100FD000C801D4F8C00104F06FFA0146C4F8C0019A
:100FE0002A4A94F8B90184F8B801126C284F22F00B
:100FF0000043284A0026BB4207DA13694FF6FF7701
:10100000BB4203D25B1C136100E01661224B93F8D4
:101010009430052B05D0062B03D0042B01D0072BD1
:1010200000D101251269B2F5C87F00D895B184F8C6
:10103000B961012808D1A068FFF71AF9C4F8BC010A
:1010400004F03AFAC4F8BC010DB1C4F8BC61D4E9AB
:101050006F1010E0012184F8B91150B9D4F8C8110B
:10106000A068FFF705F9C4F8C40104F025FAC4F834
:10107000C401D4E97110FFF7A9F8A06004F01CFACC
:10108000A060BDE8F0810000100500200C000020E9
:1010900000004040B8000020300B002070B504462E
:1010A0008EB0184803F089F8164D04F11C03281D72
:1010B00007C803F04AF904F120000B90A08BADF8AB
:1010C000280005F1100128220E466846FFF76CF84B
:1010D00095E80F00FFF73AFD04F154000B90A08B48
:1010E000ADF82800282231466846FFF75DF895E8FC
:1010F0000F00FFF773FD382229466846FFF754F8C2
:101100000EB070BDA42000202DE9F041434C002713
:101110004FF47A71D4F8D801FFF738FFC4F894037C
:1011200004F0CAF9C4F89403D4F88C0304F0C4F9A9
:101130000146C4F88C033A4A94F8850384F8840382
:10114000D36B002623F00043364DB3F17F5F03DA03
:10115000526B12F0FF4F0DD06E61334A137B527BFE
:10116000934201D1022B0DD0304A92F89420072AE5
:1011700008D008E06A694FF6FF739A42EDD2521C1C
:101180006A61EAE701276A69B2F5C87F00D87FB3D0
:1011900084F88563012809D1D4F8D401FFF768F8F1
:1011A000C4F8880304F088F9C4F88803EFB12878FC
:1011B00018B9D4F88C03C4F8E001C4F88863314648
:1011C000D4F88C03FFF702F81949C4F8D401884217
:1011D00004DD1849FFF74CF8C4F8D40104F06CF9A9
:1011E000C4F8D4012F70BDE8F081D4E9E21012E018
:1011F000FFE7012184F8851358B9D4F89413D4F883
:10120000D401FFF735F8C4F8900304F055F9C4F899
:101210009003D4E9E410FEF7D9FFDDE710050020C4
:101220000C000020B800002008210020300B002016
:10123000000034430000B443164A10B59069B0F57D
:10124000FA6F02D2401C906121E013480021D0F8CF
:101250009C335B1CC0F89C33642B04D9012380F8B9
:10126000B233D1610EE0D3694FF6FF74A34201D2CD
:101270005B1CD361322B02D980F8B21307E090F8DF
:10128000B22322B18161C0F8E411012010BD002019
:1012900010BD0000B800002010050020F0B50C7D46
:1012A000012303FA04F20468D4F800524E6A25F4CC
:1012B0007C5503EB06231D43C4F800520368D3F8A2
:1012C0001C429443C3F81C424FF41073CD691C1D9B
:1012D000BDB90568D5F80C629643C5F80C628E89D5
:1012E0004D684F6966F31F45066803EBC707F55164
:1012F0000E890D684F6966F31F45066804EBC70742
:10130000F551CD69012D17D10568D5F80C6216434A
:10131000C5F80C620E884D684F6966F31F45066874
:1013200003EBC703F5500D89CB684E6965F31F4386
:10133000056804EBC6042B518B69002B0368D3F8B6
:10134000044211D054EA0204C3F804420B69002B92
:101350000368D3F8144209D054EA0204C3F81442D3
:10136000096A012904D009E09443EDE79443F5E7C5
:101370000168D1F81C321343C1F81C320068D0F860
:10138000001221F00101C0F800120020F0BD7047EA
:101390002DE9F041044600680026C168C1F300133E
:1013A0004169C1F3C002102113B10AB14E01C160FD
:1013B000206802694369C2F30012C3F380131AB1B3
:1013C00013B146F480660161216848694FF0010558
:1013D000C043C0074ED18A687648904323D000208E
:1013E0008B68754A9A4320D000228F68734BBB43A9
:1013F0001DD00023104318433CD088688A68C0F38E
:1014000040008B68C2F3402203F0010310431843ED
:1014100029D04A69204622F001024A6194F83C1022
:10142000122906D00AE00120DAE70122DDE70123D4
:10143000E0E701684A6922F40F424A6190F83C10E3
:10144000422908D0522908D0722908D080F83C508F
:1014500000F040FC09E0222102E0322100E062219C
:1014600080F83C10F4E746F4006620688168544A2E
:10147000114381602168C868496910F0030FC1F306
:10148000400104D019B100212046FFF799FA2168E4
:101490000869496910F0030FC1F3001104D019B1B4
:1014A00001212046FFF78CFA206C3043206420682D
:1014B0008169426911F0010F4369C2F30022C3F34D
:1014C000C03305D022B11BB1216C41F00101216470
:1014D0008169C1F340034169C1F340224169C1F30D
:1014E000C0312BB122B119B1216C41F0020121644C
:1014F0008169C1F3800341694269C1F38021C2F36C
:10150000C0322BB121B11AB1216C41F00401216428
:10151000816911F0700F08D000224169C1F3C02326
:101520004169C1F3C03112B121E00122F5E7F3B105
:10153000E9B1816901F0700140292FD006DC102942
:1015400009D020290BD030290DD123E0502929D0F2
:10155000602908D12AE0216C41F0080102E0216CE9
:1015600041F010012164816921F070018161206CDA
:1015700000280DD021680420486084F83C50206881
:10158000416948F65B72914341612046FFF7FFFED7
:10159000BDE8F081216C41F02001E3E7216C41F0CE
:1015A0004001DFE7216C41F08001DBE7216C41F471
:1015B0008071D7E70100000400010008000001105D
:1015C000090501002DE9F04104004FF0000504D0A9
:1015D00094F83C00002618B107E00120BDE8F08136
:1015E00084F83D60204600F083F8022084F83C0037
:1015F0002068016821F0020101602068016841F063
:101600000101016000F0A0FE07464FF0030804E06E
:1016100000F09AFEC01B0A2853D820684068C00713
:10162000F6D021684868C00758D0A069012801D1C8
:1016300045F08005E06901282FD025F04000226A9E
:10164000012A2DD020F02000626A012A2BD020F040
:101650001000A26A012A29D020F00800E26A012ABB
:1016600027D020F004000A6822F0FC0202430A603E
:10167000D4E902010843D4E9041211430843616824
:10168000491E08432168C8612068016821F00101F2
:10169000016000F059FE054618E045F04000CEE735
:1016A00040F02000D0E740F01000D2E740F0080002
:1016B000D4E740F00400D6E700F046FE401B0A28BD
:1016C00004D904F83C8F0320667087E720684068DF
:1016D000C007F1D120684068C00703D0042084F817
:1016E0003C007AE72664012084F83C00002075E77E
:1016F000F0B5484B0768DFF818C118680022464C5F
:10170000022503264549401C85B067453CD1186039
:10171000012807D1C86940F00070C861C86900F0AD
:10172000007004904FF48070CDE9000269462046B5
:10173000029200F021FD4FF40070CDE900056946EA
:101740000396204600F018FD3548416821F4C04159
:101750004160416841F48041416000220121132031
:1017600000F0BCFE132000F0AEFE00220121142088
:1017700000F0B4FE142000F0A6FE00220121152086
:1017800000F0ACFE15203EE0DFF898C067453CD184
:10179000CF6947F08067CF61CF69012807F0806784
:1017A0000497186007D1C86940F00070C861C86923
:1017B00000F0007004904FF48050CDE900026946BB
:1017C0002046029200F0D8FC4FF40050CDE900050D
:1017D00069460396204600F0CFFC002201213F20FD
:1017E00000F07CFE3F2000F06EFE00220121402030
:1017F00000F074FE402000F066FE0022012141202E
:1018000000F06CFE412000F05EFE05B0F0BD00006F
:101810000064004008000020000C0140001002405D
:10182000000001400068004030B511B1012925D009
:1018300010E090F83C20222A28D090F83C20422A40
:1018400024D000BF90F83C20622A1FD090F83C20A2
:10185000722A1BD090F83D20012A17D0012280F86F
:101860003D20622290F83C40722389B1122C19D09D
:10187000222C18D0422C19D0322214E090F83C20AF
:10188000322A03D090F83C20522ADBD1022030BD0E
:10189000122C05D0322C06D0522C07D0222202E086
:1018A000422200E0522280F83C2001E080F83C30E7
:1018B0000022026403685C6948F601752C435C6190
:1018C00080F83D2000680029416904D041F05001B2
:1018D0004161002030BD41F00A01F9E72DE9F041F6
:1018E000764E0021764D0446B04270D1606B82681E
:1018F00012B1042A40D091E00068DFF8C881A0F559
:1019000000706FF00C07063802D0022819D119E0D8
:1019100021466D4C201DFFF7C2FA94F828000128DB
:101920007CD1608BFEF7B7FE3946FEF717FD4146C6
:10193000FEF7A4FC6549FEF79BFC03F0BDFDC5F86E
:10194000C0016BE02146624C201DFFF7A8FA94F815
:101950002800012862D1608BFEF79DFE3946FEF714
:10196000FDFC4146FEF78AFC5A49FEF781FC03F074
:10197000A3FDC5F88C0351E04268574D02F6E942D9
:10198000B2F5005202D0012A48D121E0808A40BA43
:1019900000B2FEF777FEC5F8A800646BE08A40BA93
:1019A00000B2FEF76FFE4D4F3946FEF799FC4C4DE5
:1019B0006860208B40BA00B2FEF764FE3946FEF73D
:1019C0008FFCA860A07E2873E07EA87326E02CE040
:1019D000444A1160808A40BA00B2FEF753FEDFF835
:1019E00008814146FEF77CFC404F3864606BC08A3A
:1019F00040BA00B2FEF746FE4146FEF771FCF863BE
:101A0000606B007EFEF747FE45F8B80F606BB0F8DC
:101A1000190040BAE880606BC07EA88130684169D7
:101A200041F002014161BDE8F081314EB442FAD18A
:101A3000606B8268B2B3042AF0D1406800F6EB40D4
:101A4000B0F5005FEAD1C5F89C13002202212948B5
:101A500000F075FC646BA08A40BA00B2FEF712FE7B
:101A6000254F3946FEF73CFC244D2860E08A40BAF9
:101A700000B2FEF707FE3946FEF732FC6860208BA5
:101A800040BA00B2FEF7FEFD3946FEF729FCA86019
:101A9000608B40BA00B2FEF7F5FD1949FEF720FC55
:101AA000E860BBE7FFE70068A0F500700738B5D134
:101AB00021461448FFF7F3F9B0E700008C0100203D
:101AC000100500200000B443101B002000C0884314
:101AD0003419002000007042300B002000007A44CE
:101AE00008210020C404002000C0CC440C000020C9
:101AF000D0010020000C01406F128341FC0D00203A
:101B00000000C842801500202DE9F05F0E460168F4
:101B100004468868400105D48868000102D48868BA
:101B2000C0006FD594F83D0001280CD0012784F83F
:101B30003D7094F83C00222808D0322808D0622852
:101B40000ED0122005E00220BDE8F09F422000E008
:101B5000522084F83C008868400103D5002507E046
:101B60007220F6E78868000101D5012500E0022512
:101B70004FF4C07000EB05100A5802F001020A5041
:101B8000216B8A68EAB3D4F800C05CF800301343D4
:101B9000CA68496842EAC1010B434CF80030216B26
:101BA0000A7C02F00F020A614FF4C271226801EB55
:101BB0000511535823F00F03535022685358D4F89B
:101BC00030C0DCF810C043EA0C035350216B4FF4D3
:101BD000C47303EB05130A7DD1F8151042EA012204
:101BE0002168CA50216B4FF4C67303EB05130A7EBC
:101BF000D1F8191042EA01222168CA5021680A5816
:101C000001E00DE05AE042F001020A5000F09CFBB6
:101C100081464FF00008DFF8B0A0DFF8B0B026E052
:101C200022681358D1F80CC0098843EA0C0343EA30
:101C300041511150B3E7701C19D02EB100F084FB54
:101C4000A0EB0900B04212D9032084F83C004DB14A
:101C5000012D09D04FF400002168886084F83D8090
:101C6000032071E78020F7E74FF40040F4E7ADB1BF
:101C70002068012D816816D0154888430028DAD1E4
:101C800094F83C00422811D0522811D0722813D069
:101C900084F83C7084F83D80002055E72068816816
:101CA0002AEA0100EAE72BEA0100E7E7222000E048
:101CB000322084F83C00EDE76220FAE7042084F843
:101CC0003C00012040E70000010000040001000882
:101CD00000000110704700002DE9F05F90F821101E
:101CE0000024022903D004218163012485E00168D6
:101CF0000A6822F00E020A6001680A6822F00102F6
:101D00000A603F4E3E4FB215DFF8F4C0DFF8F090A6
:101D1000DFF8ECA0DFF8E8B0DFF8E4E00168783F36
:101D200013011502ACF1640CA9F15009AAF13C0AA7
:101D3000ABF1280BAEF1140E4FF48018B14227D945
:101D4000B9420ED0614512D049451DD0514518D039
:101D5000594518D0714501D1424615E0294EB1428E
:101D600001D1012210E0274E1436B14201D11022D8
:101D70000AE0244E2836B14206D0224A3C32914233
:101D800001D11A4600E02A461E49091F0A602BE0CD
:101D9000B94213D0614517D0494522D051451DD0D5
:101DA00059451DD0714501D142461AE0B14202D1D8
:101DB0004FF0807215E0134EB14201D1012210E0C4
:101DC000104E1436B14201D110220AE00D4E2836D1
:101DD000B14206D00B4A3C32914201D11A4600E092
:101DE0002A46074980394A60012180F821100021E4
:101DF00080F82010416B01B188472046BDE8F09F74
:101E000080000240080402402DE9F05FC16B0A68BF
:101E100001680B68046C4FF0040808FA04F8844D5C
:101E2000844E854FDFF814C2DFF81492DFF814A255
:101E3000DFF814B2DFF814E218EA020F65D05FEAA7
:101E4000437862D50A68920603D40A6822F0040235
:101E50000A60DFF8F0814FF48062016808F114082D
:101E600013011402414524D9A9420DD0B1420FD02B
:101E7000B9421AD0614515D0494515D0514501D117
:101E8000120312E0594501D104220EE0714501D13F
:101E900040220AE06D4D1435A94206D06B4A283223
:101EA000914201D11A4600E022466749091F0A60A3
:101EB00029E0A94213D0B14215D0B94220D06145E2
:101EC0001BD049451BD0514502D14FF4800217E089
:101ED000414502D14FF0806212E0594501D1042200
:101EE0000EE0714501D140220AE0584D1435A94257
:101EF00006D0564A2832914201D11A4600E02246C5
:101F00004B4908394A60C16A71E04FF0020808FA8B
:101F100004F818EA020F70D05FEA83786DD50A687A
:101F2000920606D40A6822F00A020A60012180F8AB
:101F30002110DFF810814FF40072016808F11408D5
:101F400013011402414524D9A9420DD0B1420FD04A
:101F5000B9421AD0614515D0494515D0514501D136
:101F6000120312E0594501D102220EE0714501D160
:101F700020220AE0354D1435A94206D0334A2832D2
:101F8000914201D11A4600E022462F49091F0A60FA
:101F900029E0A94213D0B14215D0B94220D0614501
:101FA0001BD049451BD0514502D14FF4001217E018
:101FB000414502D14FF0007212E0594501D1022291
:101FC0000EE0714501D120220AE0204D1435A942CE
:101FD00006D01E4A2832914201D11A4600E022461C
:101FE000134908394A60002180F82010816A0029CD
:101FF0001CD0BDE8F05F0847FFE70825A540154263
:1020000014D01A0712D50A6822F00E020A6090F85E
:102010004020C36B012101FA02F25A60816380F80B
:102020002110002180F82010016BE0E7BDE8F09F4F
:10203000080002401C000240300002404400024000
:10204000580002406C000240080402401C04024098
:1020500030B560B11C4A03681421934209D21B4A6F
:102060001A44B2FBF1F18900016419490AE0012028
:1020700030BD154A52421A44B2FBF1F189000164A5
:1020800011490839C163022180F821101A6843F60A
:10209000F0718A43F0E901142143D0E902452C4351
:1020A0002143046921434469214384692143114345
:1020B0001960002141628162C162016341630122B2
:1020C00042770177084630BD08040240F8FFFDBFA3
:1020D0000000024070B5044690F820000025012859
:1020E0000CD0012084F8200094F821600020012EFB
:1020F00006D084F820000225284670BD022070BD5D
:10210000022684F82160A0632068066826F0010694
:1021100006602046FEF7FAFCE06A002820680168A5
:1021200002D041F00E0106E021F0040101602068B8
:10213000016841F00A0101602068016841F0010175
:102140000160D9E7012807D0022805D0042803D16F
:102150000421024800F0EEB8704700000010014072
:10216000044910B50A68024202D00860FFF7EAFF8E
:1021700010BD0000140401402DE9F84FDFF890A1D4
:1021800000220AF1040B144601274FF00F090BF14E
:10219000040E00BF0B6807FA04F52B40AB4274D164
:1021A000DFF870C14E68A6EB0C0866452BD00DDC3D
:1021B000032E34D005DC36B3012E19D0022E2FD1D8
:1021C0001BE0112E16D0122E2AD119E0B8F5881F67
:1021D00019D006DCB8F5803F15D0B8F5801F1FD1A7
:1021E00011E0B8F5001F0ED0B8F5041F18D10AE0B1
:1021F000CA6815E0CA68121D12E0CA6808320FE00A
:10220000CA680C320CE08A682AB1012A4FF0080231
:1022100003D0456104E0042202E0056100E00022F1
:10222000FF2B01D8064601E000F104064FEA8405C1
:1022300001D9A5F12005D6F800C009FA05F82CEA65
:10224000080C02FA05F54CEA050CC6F800C04D680A
:10225000ED0057D5304DAE6946F00106AE61AD696F
:1022600024F0030605F0010500952C4D06EB050C46
:10227000DCF80850A6074FEA167809FA08F6B543C5
:10228000274EB04202D1002610E03BE0254EB0427E
:1022900001D101260AE0244EB04201D1022605E018
:1022A000224EB04201D1032600E0042606FA08F6C9
:1022B0002E43CCF808604D68DAF80060ED0355460F
:1022C00001D51E4300E09E432E604D68DBF80060A0
:1022D000AD035D4601D51E4300E09E432E604D6870
:1022E000DEF80060ED02754601D51E4300E09E4316
:1022F0002E604D68AD020E4D2E6801D51E4300E0E4
:102300009E432E60641C102CFFF444AFBDE8F88F90
:1023100000040140000011100010024000000140C4
:1023200000080140000C0140001001400014014071
:102330000C0401408068084000D0012070470AB1B9
:10234000016170470904FBE701480068704700001D
:10235000E400002002480168491C01607047000049
:10236000E4000020074810B5016841F01001016049
:10237000032000F0D3F8002000F006F800F018F871
:10238000002010BD0020024010B5044607484FF45D
:102390007A710068B0FBF1F000F0E3FB0022214607
:1023A000501E00F09BF8002010BD0000E800002047
:1023B000224808B5816941F001018161816901F01C
:1023C00001010091C16941F08051C161C06900F013
:1023D00080500090052000F0A1F8002211466FF017
:1023E0000B0000F07BF8002211466FF00A0000F0AD
:1023F00075F8002211466FF0090000F06FF8002216
:102400001146501F00F06AF800221146101F00F01C
:1024100065F800221146901E00F060F80022114677
:10242000501E00F05BF80648416821F0E061416011
:10243000416841F08061416008BD00000010024029
:10244000000001402DE9F04116460F46040004D07B
:1024500094F83900002518B107E00120BDE8F081AB
:1024600084F83850204600F011FF242084F8390009
:102470002068C16821F40051C160204602F01EFCB2
:102480002068016921F4904101612068416921F0CF
:102490002A0141612068016921F00F01394301617E
:1024A0002068C16821F400613143C1602068C168BF
:1024B00041F40051C160E563202084F8390084F8BC
:1024C0003A000020CAE700F01F02012191404009B4
:1024D000800000F1E020C0F800117047F0B40E4B0E
:1024E0001B680C46C3F30223C3F10705042D00D972
:1024F0000425191D072901D2002300E0DB1E012657
:1025000006FA05F1491E214099409E40761E16406C
:102510003143F0BC01F047BB0CED00E0064900F090
:10252000070208684FF6FF03184040EA0220034AFA
:1025300010430860704700000CED00E00000FA0551
:102540002DE9F047DFF83C8105460E46D8F800003B
:1025500000F00700B0420CD2D8F8001021F00701BB
:102560003143C8F80010D8F8000000F00700B0426E
:1025700063D12878444C800705D56068A96820F0AD
:10258000F000084360602878C00745D068680128DB
:1025900016D02168022816D0890700294DDA616813
:1025A00021F0030101436160FFF7CEFE6968074631
:1025B00041F2883001290FD00229814619D027E045
:1025C00021688903E9E78901E7E700BFFFF7BCFE5F
:1025D000C11B494501D918E081466068C0F38100FC
:1025E0000128F3D118E000BFFFF7AEFEC11B49453B
:1025F0000BD86068C0F381000228F5D10CE000BF61
:10260000FFF7A2FEC11B494502D90320BDE8F087B0
:10261000606810F00C0FF3D1D8F80010404601F0BC
:102620000701B1420BD9016821F007013143016074
:10263000006800F00700B04201D00120E6E72878EA
:10264000400705D56068E96820F4E06008436060F1
:102650002878000706D56068296920F4605040EAB0
:10266000C100606000F03CF86168084AC1F30311E2
:10267000515CC840064908600020FFF785FE002035
:10268000C4E700000020024000100240C8550008C6
:10269000E80000200148006870470000E8000020C2
:1026A0000448054900684968044AC1F30221515CA5
:1026B000C8407047E800002000100240D8550008CC
:1026C0000448054900684968044AC1F3C221515CC5
:1026D000C8407047E800002000100240D8550008AC
:1026E00010B51CA288B00FCA04AC84E80F001DA36B
:1026F0000FCB8DE80F001F4A51681F4801F00C03F3
:10270000042B22D0082B20D104ABC1F38344C9038E
:102710001B5D1CD5D16AD46A01F00F011DF80110B0
:10272000E4030AD5D46AD26AC4F30314641CB0FB70
:10273000F4F0C2F30322921C5043B0FBF1F09DF879
:102740001D105843994200D1400808B010BD0B48F5
:102750005843FAE7000004050607080900000000D6
:10276000000D00000102030405060708090A0B0C0E
:102770000D0E0F100010024000127A0000093D00FB
:102780002DE9F84F04460078EA4DC00748D0686844
:10279000C0F38100012807D06868C0F381000228D7
:1027A00009D16868C00306D52868800338D5A068B9
:1027B00000286FD034E0A068B0F5803F0BD010B196
:1027C000B0F5A02F11D0286820F480302860286848
:1027D00020F4802002E0286840F480302860A0685F
:1027E00088B1FFF7B1FD064609E0286840F4802073
:1027F0002860F0E7FFF7A8FD801B642878D82868D8
:102800008003F7D50CE0FFF79FFD064605E000BF0B
:10281000FFF79AFD801B6428F0D828688003F7D45E
:102820002078C54E80074FF001094FF000073CD5D6
:10283000686810F00C0F07D06868C0F381000228A8
:1028400009D16868C00306D42868800715D5606977
:1028500001281FD111E06069B8B1C6F80090FFF7F8
:1028600073FD804606E000BFFFF76EFDA0EB080099
:102870000228C3D828688007F6D52868A16920F007
:10288000F80040EAC10028600FE03760FFF75CFD08
:10289000804607E02DE100BFFFF756FDA0EB0800E2
:1028A0000228ABD828688007F6D4207800072ED5F8
:1028B000A248E169E9B1C0F80090FFF745FD804604
:1028C00006E000BFFFF740FDA0EB0800022895D806
:1028D000686A8007F6D59A484FF4FA510068B0FB51
:1028E000F1F0009000BF0098411E0091FAD20EE076
:1028F000B0E00760FFF728FD804605E0FFF724FD04
:10290000A0EB0800022887D8686A8007F6D42078F0
:10291000400763D5E8694FF00008C00009D4E869B2
:1029200040F08050E861E8694FF0010800F0805005
:10293000009084480168C90512D40168834641F4B7
:1029400080710160FFF700FD824605E0FFF7FCFCA7
:10295000A0EB0A0064287DD8DBF80000C005F5D59F
:10296000206901280AD008B1052813D0286A20F070
:1029700001002862286A20F0040002E0286A40F082
:1029800001002862206941F2883B98B1FFF7DCFC26
:1029900082460BE0286A40F004002862EEE700BFA0
:1029A000FFF7D2FCA0EB0A01594553D8286A8007EB
:1029B000F6D50CE0FFF7C8FC824605E0FFF7C4FC43
:1029C000A0EB0A01594545D8286A8007F6D4B8F12A
:1029D000000F03D0E86920F08050E861E06AD0B3CE
:1029E0006968C90307D56968C1F38101022902D169
:1029F000E96AC9037DD4022808D0E86A20F480304F
:102A0000E862B766FFF7A0FC80463BE02868C0009C
:102A100005D5E86A616B00F0F000884269D1B766BD
:102A2000FFF792FC804605E0FFF78EFCA0EB080064
:102A3000642874D828680001F6D4E86A616B20F035
:102A4000F0000843E862E86A216B20F470600843F4
:102A5000E86201E063E018E0C6F86890FFF774FCF4
:102A6000804605E0FFF770FCA0EB0800642856D80C
:102A700028680001F6D508E0FFF766FCA0EB080027
:102A800064284CD828680001F6D4206A90B369689D
:102A9000C1F3810102294AD00228376603D0FFF72B
:102AA00053FC04463EE0FFF74FFC074605E000BF3D
:102AB000FFF74AFCC01B022831D828688001F7D4F0
:102AC000606AB0F5803F09D1E86A61680843E8624E
:102AD000E86AE16820F00F000843E862D4E90901E0
:102AE0000843696821F4741108436860C6F860906F
:102AF00001E01CE019E0FFF727FC044605E000BFF9
:102B0000FFF722FC001B022809D828688001F7D5AE
:102B10000BE000BFFFF718FC001B022802D90320BE
:102B2000BDE8F88F28688001F4D40020F8E7012080
:102B3000F6E70000001002400000424280044242DA
:102B4000E8000020007000404FF0E02104280869F0
:102B500003D020F004000861704740F00400FAE759
:102B6000704710B5401EB0F1807F01D3012010BD29
:102B70004FF0E02460610F21601701F014F800208D
:102B8000A06107202061002010BD10B5FFF7E8FF0D
:102B900010BD7047704710B590F83C20012A25D031
:102BA000012280F83C20CA688C6822F440722243DB
:102BB0004C6822F4806222430C6822F400622243B3
:102BC0000C6922F4805222434C6922F400522243C1
:102BD0008C6922F48042224322F4004102680023DF
:102BE0002143516480F83C30002010BD022010BD0C
:102BF00030B590F83C20012A20D0012280F83C20FA
:102C0000022380F83D3003685C6824F070045C6047
:102C100003685C680D682C435C6003689C6824F062
:102C200080049C6003689C6849680C439C6080F841
:102C30003D20002180F83C10084630BD022030BD08
:102C400010B5040003D094F83D0010B107E0012056
:102C500010BD002084F83C00204600F00DF8022052
:102C600084F83D00211D206801F070FC012084F8EB
:102C70003D00002010BD000008B5234A016823482C
:102C8000914208D1816941F400618161806900F459
:102C90000060009008BD1E4A91420ED1C16941F00A
:102CA0000201C161C069002200F0020000901146DB
:102CB0001D20FFF713FC1D2022E0164A91420ED181
:102CC000C16941F00801C161C069002200F008003B
:102CD000009011463220FFF701FC322010E00E4A2E
:102CE0009142D7D1C16941F00401C161C069032299
:102CF00000F00400009001211E20FFF7EFFB1E20D2
:102D0000BDE80840FFF7DFBB002C01400010024087
:102D100000040040000C0040000800400168CA6840
:102D200042F00102CA600068016841F001010160DF
:102D30000020704770B5044690F83C00012817D079
:102D4000012584F83C50022084F83D002068826808
:102D500022F0770222F47F4282600868502837D040
:102D60000DDC202859D005DC88B3102841D151E072
:102D7000022070BD302853D040283AD13FE060286F
:102D80002ED070280BD0B0F5805F03D0B0F5005F77
:102D90002FD110E02068816821F0070115E0CB6891
:102DA000D1E90121206801F01AFC2168886840F00F
:102DB000770088601DE0CB68D1E90121206801F02F
:102DC0000EFC2068816841F48041816011E01EE0C2
:102DD000CA684968206801F0B7FC5021206806E005
:102DE000CA684968206801F0C0FC6021206801F0D1
:102DF00000FC84F83D50002084F83C0070BDCA6897
:102E00004968206801F0A0FC40212068EFE700211C
:102E10002068ECE710212068E9E720212068E6E738
:102E200030212068E3E7704770B504460068016907
:102E30004FF00005C943890715D4C168C943890704
:102E400011D4E91E01610120207720688069800784
:102E5000204602D0FFF7E7FF04E000F0ADF820467F
:102E600000F02FF9257720680169C943490717D475
:102E7000C168C943490713D46FF0040101610220FE
:102E800020772068806910F4407F204602D0FFF749
:102E9000CAFF04E000F090F8204600F012F9257710
:102EA00020680169C943090716D4C168C9430907E5
:102EB00012D46FF008010161042020772068C069F6
:102EC0008007204602D0FFF7AEFF04E000F074F860
:102ED000204600F0F6F8257720680169C943C90645
:102EE00017D4C168C943C90613D46FF0100101613A
:102EF000082020772068C06910F4407F204602D067
:102F0000FFF791FF04E000F057F8204600F0D9F8F1
:102F1000257720680169C943C90708D1C168C94339
:102F2000C90704D1891E0161204600F0E3F820683A
:102F30000169C943090609D4C168C943090605D412
:102F40006FF0800101612046FFF723FE20680169D0
:102F5000C943490609D4C168C943490605D46FF07D
:102F600040010161204600F007F920680169C9436A
:102F700089060BD4C168C943890607D46FF02001C4
:102F800001612046BDE87040FFF704BE70BD00003F
:102F90001FB500680649884209D14FF4706000905F
:102FA00002200190039069460248FFF7E5F81FBD33
:102FB000002C014000080140704770B5044690F8AD
:102FC0003C000D4601280DD0012684F83C6002200B
:102FD00084F83D0042B1042A18D0082A2AD00C2ACD
:102FE0004DD139E0022070BD206801F00BFB206854
:102FF000816941F0080181612068816921F0040143
:103000008161206881692A69114311E0206801F01B
:1030100021FB2068816941F4006181612068816938
:1030200021F480618161206881692A6941EA022175
:10303000816124E0206801F039FB2068C16941F01A
:103040000801C1612068C16921F00401C1612068E3
:10305000C1692A69114311E0206801F053FB20681F
:10306000C16941F40061C1612068C16921F48061D6
:10307000C1612068C1692A6941EA0221C16184F8FD
:103080003D60002084F83C0070BD10B5040003D002
:1030900094F83D0010B107E0012010BD002084F835
:1030A0003C00204600F00CF8022084F83D00211D71
:1030B000206801F04BFA012084F83D00002010BD8B
:1030C0007047704710B504460068012201F07CFA91
:1030D00007492068884203D1416C41F400414164B2
:1030E0002068016841F001010160002010BD00006E
:1030F000002C01407CB519490A68D30705D0184B4C
:10310000984203D142F4807008607CBD154B984210
:10311000FBD142F48050086001F000FC12481349D2
:10312000826E0A60426E4A60806F8860002110489B
:10313000FEF77AFB0F4DD5F8E401FDF7BEFA04B2B5
:10314000A869FDF7BAFA03B20020CDE900040246EF
:1031500040F2FF11064801F0D3F87CBDB400002016
:103160005402002094020020300B0020DC200020BC
:103170008C010020100500207047704770B5026870
:1031800004461068D168536910F00F0F50D003F057
:10319000010501F4907635435DD0C20705D0CA051C
:1031A00003D5E26B42F00102E263420705D5DA077C
:1031B00003D0E26B42F00202E263820705D5DA0730
:1031C00003D0E26B42F00402E263020705D5DA079E
:1031D00003D0E26B42F00802E263E26B002A33D0D4
:1031E000800604D5880602D5204601F01CFD206823
:1031F0004069E16BC0F38010090700D428B3204672
:1032000001F0FAFC2068416949061AD5416921F0AC
:1032100040014161606BA0B11B494163606BFEF7E7
:103220005BFD002810D0606B416BBDE87040084723
:10323000830610D58B060ED52046BDE8704001F000
:10324000F2BC2046FFF799FF70BD2046FFF795FFBF
:103250000020E06370BD030606D50B0604D52046AA
:10326000BDE8704001F0E2BD4006F3D54806F1D557
:10327000D168204621F04001D160202184F8391026
:1032800000F07EF970BD0000594B00082DE9F043B5
:103290000646D0F800C04748DFF814810115022225
:1032A0000323C5140024802785B04FF40059C4457A
:1032B0002DD1D0F81CC04CF4002CC0F81CC0C06943
:1032C000CDE9001200F40020CDE90330DFF8E880FA
:1032D00069464046FEF750FFCDE900546946404636
:1032E0000294FEF749FF364D3448C5E90004C5E9AC
:1032F00002472C616C61C5E906492846FEF7A8FE25
:1033000018B188212FA001F0E1FE75634BE0DFF8D2
:10331000C480C44548D1D0F81CC04CF4802CC0F8FF
:103320001CC0C069CDE9001200F48020CDE9033053
:10333000DFF8A48069464046FEF71EFFCDE9005441
:10334000694640460294FEF717FF1D4D2348443559
:10335000B846C5E90004C5E902472C616C61C5E9BE
:1033600006494F462846FEF773FE18B1B62115A050
:1033700001F0ACFE75636E62114D18488835143843
:1033800001C51020A5E811010D4845F81049883005
:103390006C61C5E90647FEF75BFE18B1C62109A0BE
:1033A00001F094FE35636E6205B0BDE8F083000065
:1033B000004C004000100240001001403004024068
:1033C000940300202E2E2F5372632F757361727435
:1033D0002E63000000480040000C01403000024015
:1033E000F8B5044690F83A0020283CD1C1B3BAB3EE
:1033F00094F83800012836D0012084F83800A16202
:10340000A2850025E563222084F83A00636B174803
:103410009862636B1648D862636B16481863606BDA
:10342000134645630846666B216802463046091D0F
:10343000FEF750FE206801684168009184F838501A
:10344000C16841F48071C1602068416941F00101A7
:1034500041612068416941F0400141610020F8BDAF
:10346000FFE70120FBE70220F9E70000B34B00086B
:10347000EF4B0008694B00080C4910B588420AD18F
:103480000B49002008600B490B4800F0C8FE2422BD
:103490000949064805E00949884206D10849074814
:1034A0002C22BDE81040FFF79BBF10BD1403002085
:1034B000B0040020A4200020600400205403002059
:1034C0008404002070472DE9F843044690F8390041
:1034D0001F4616460D46202850D1A5B19EB194F83E
:1034E000380001284AD0012084F838004FF0000845
:1034F000C4F83C80212084F83900FEF725FFA6841B
:103500008146E68426E00120BDE8F883E08C401E79
:10351000E084A0684B46B0F5805F4FF000024FF0AA
:1035200080012046009703D001F0B1FCE8B90DE01E
:1035300001F0ADFCC8B928882168C0F308004860D4
:10354000206908B16D1C05E0AD1C03E0216815F889
:10355000010B4860E08C0028D8D14B460022402166
:103560002046009701F093FC08B10320CCE720200F
:1035700084F8390084F838800020C5E70220C3E7CA
:103580007047FEE770B5044618481749016000F01F
:10359000FFFD1848164D056100F0DEFA164805617A
:1035A00000F0DAFA1548056100F0D6FA1448A06078
:1035B0001448E0601448606114486060144820605A
:1035C0001448A0610220207703216177002084F84D
:1035D000860084F8880084F8870084F8890084F8DD
:1035E000500084F8511070BD91410008A4200020C3
:1035F000593B0008B0040020C4040020D804002077
:10360000610C0008AD0C00081D0D00089D0E00089F
:103610009D100008590E0008104810B50E490160B1
:103620000921416000214FF480328160C0E903121A
:1036300041618161C1610162416281620121C162B6
:10364000FDF7C0FF002805D0BDE810404A2104A0C6
:1036500001F03CBD10BD0000006400408C01002062
:103660002E2E2F5372632F63616E2E6300000000B5
:10367000104810B50E4901600921416000214FF446
:1036800080328160C0E9031241618161C1610162E0
:10369000416281620121C162FDF794FF002805D0DB
:1036A000BDE81040622104A001F010BD10BD000073
:1036B00000680040D00100202E2E2F5372632F632C
:1036C000616E2E6300000000154808B5416941F0A5
:1036D00001014161416901F001010091416941F03D
:1036E000020141614069002200F002000090114691
:1036F0000C20FEF7F3FE0C20FEF7E5FE002211463B
:103700000D20FEF7EBFE0D20FEF7DDFE0022114638
:103710003A20FEF7E3FEBDE808403A20FEF7D3BEAC
:10372000001002402DE9F0413B4886B0816941F02C
:1037300020018161816901F020010491816941F0DA
:1037400010018161816901F010010491816941F0EA
:1037500004018161816901F004010491816941F0F2
:10376000080181618069DFF8B48000F008000490EE
:10377000012230214046FEF7E2FD0022C0214046F2
:10378000FEF7DDFD0327264800250097CDE901055A
:10379000244E69463046FEF7EFFC0C20009022488C
:1037A0000124CDE9010469463046FEF7E5FC3020EE
:1037B000CDE900040226CDE9024669464046FEF7FF
:1037C000DBFCC0208DE8710069464046FEF7D4FC62
:1037D00001AA009782E8700069461448FEF7CCFC05
:1037E000012200210620FEF779FE0620FEF76BFE7F
:1037F000012200210720FEF771FE0720FEF763FE7D
:10380000012211460820FEF769FE0820FEF75BFE44
:1038100006B0BDE8F0810000001002400008014041
:10382000000021100010014000003110000C014088
:1038300010B53E4894B03C49016023210024C0E902
:10384000011444F62061C0E9031444618461FFF768
:10385000F7F918B1462136A001F038FC4FF480503A
:103860000E900EA93148FFF765FA18B14C2130A02F
:1038700001F02CFC2D48FFF708FC18B151212CA0B9
:1038800001F024FC129412A928481394FFF7B0F910
:1038900018B1582126A001F019FC6020CDE90004E0
:1038A0000294039404940594002269461F480694E8
:1038B000FFF783FB18B164211DA001F007FC04226F
:1038C00069461A48FFF779FB18B1692118A001F081
:1038D000FDFB082269461548FFF76FFB18B16E2102
:1038E00013A001F0F3FB0C2269461048FFF765FBBB
:1038F00018B173210EA001F0E9FB07940894099414
:103900004FF400500A94CDE90B4007A907480D94E5
:10391000FFF741F918B17F2105A001F0D7FB03485B
:10392000FFF736FB14B010BD002C0140140200203C
:103930002E2E2F5372632F74696D2E6300000000CA
:1039400010B5194886B01749016024210024C0E948
:10395000011442F21071C0E903148461FFF770F999
:1039600018B1932111A001F0B1FB4FF480500090E9
:1039700069460D48FFF7DEF918B199210BA001F057
:10398000A5FB049404A908480594FFF731F918B180
:10399000A02106A001F09AFB0348FFF7BFF906B08B
:1039A00010BD000000040040540200202E2E2F53B2
:1039B00072632F74696D2E630000000010B5184803
:1039C00086B016490024C0E9001440F2E731C0E98E
:1039D000024104618461FFF733F918B1D42111A0C9
:1039E00001F074FB4FF48050009069460C48FFF7DB
:1039F000A1F918B1DA210BA001F068FB049404A925
:103A000007480594FFF7F4F818B1E12105A001F08B
:103A10005DFB0348FFF782F906B010BD00080040C7
:103A2000D40200202E2E2F5372632F74696D2E63E3
:103A30000000000010B5194886B017490160242124
:103A40000024C0E901144FF47A71C0E903148461C1
:103A5000FFF7F6F818B1B42111A001F037FB4FF4CD
:103A60008050009069460D48FFF764F918B1BA21FB
:103A70000BA001F02BFB049404A908480594FFF760
:103A8000B7F818B1C12106A001F020FB0348FFF7E9
:103A900045F906B010BD0000000C00409402002063
:103AA0002E2E2F5372632F74696D2E630000000059
:103AB0000E4810B50C4901600D49416000214FF4DA
:103AC00080628160C0E903120422C0E905210A4630
:103AD000C161FEF7B7FC002805D0BDE810404A21BF
:103AE00004A001F0F3BA10BD004C00401403002004
:103AF000A08601002E2E2F5372632F75736172748E
:103B00002E6300000E4810B50C4901604FF4E131FE
:103B10004160002181600C22C160C0E90412816112
:103B20000A46C161FEF78EFC002805D0BDE81040B2
:103B30005D2104A001F0CABA10BD00000048004099
:103B4000540300202E2E2F5372632F7573617274ED
:103B50002E630000FEE70000AFF2030101610C4993
:103B6000884201D10B4904E009491431884202D14D
:103B70000949C160704706492831884201D1074987
:103B8000F7E703493C318842F4D10549F1E70000E9
:103B9000B004002035550008555500080D550008A3
:103BA000E154000870470907090E002806DA00F002
:103BB0000F0000F1E02080F8141D704700F1E020B4
:103BC00080F80014704770472DE9F84F0446C06A2A
:103BD0004FF400051646A84201DA80F00040824604
:103BE000206BA84201DA80F000400090606BA84290
:103BF00001DA80F000408346E06DA84201DA80F0EF
:103C000000408146666430462165FCF731FBE06583
:103C10004846A16BFCF79AFD05D2606801286ED07A
:103C2000E06FBDE8F88F60680027012802D0022805
:103C30007DD010E1A169A94201DA81F00041A846D6
:103C400086F00045464501DB304600E02846FCF79B
:103C500087FD0AD23146A06AFCF710FB206604F10A
:103C600060006169FCF75FFE17E0A069404501DA7A
:103C700080F000404FF07E51FCF7A8FA014646451F
:103C800001DB304600E02846FCF72AFBA16AFCF77E
:103C9000F5FA3146FCF7F2FA2066E16DE069FCF7CF
:103CA000EDFA6066D4E90B01FCF75AFD2DD2D4E998
:103CB0000C01FCF755FD28D251464846FCF750FD53
:103CC0002BD348460099FCF74BFD19D2504600997A
:103CD000FCF7CEFA054649465046FCF7C9FA294694
:103CE000FCF7FEFA4FF07E51FCF770FA4FF0FF310F
:103CF000FCF734FB216AFCF7C1FAE16D07E0B9E09B
:103D000059464846FCF72CFD07D2E16D206AFCF7C6
:103D1000B5FAA16EFCF75AFAA066206A10F0FF4FC0
:103D200000D1A766E168414513DB206900E04AE065
:103D300010F1FF4F0DD3A06EFCF712FD01D2E06829
:103D400005E02169A06EFCF701FD03D22069A066A1
:103D500000E0A766D4E91610FCF78AFAFCF7C6FC67
:103D600006460D46606AFCF7C1FCDFF80C81434B48
:103D70004246FCF7A6FB32462B46FCF7A2FB064662
:103D80000D46E06EFCF7B2FC42463D4BFCF799FB5A
:103D900032462B46FCF7EEFAFCF7BBFC0546E06624
:103DA000D4E91801FCF712FAA16EFCF70FFA2946C4
:103DB000FCF70CFA206704F17000A168FCF7B3FD72
:103DC000206F606747E0D4E9166531462846FCF766
:103DD0004FFAE169FCF752FA60662946206AFCF75F
:103DE0004DFAA06601213046FCF7B8FA2946FCF7E7
:103DF00042FA616DFCF7EAF9616AFCF73FFAE066A6
:103E0000D4E90301FCF7ACFC0ED2E168A06EFCF72C
:103E1000A7FC01D2E06805E02169A06EFCF796FCE2
:103E200003D22069A06600E0A766D4E91901FCF777
:103E3000CDF9E16EFCF7CAF90146A067D4F880001D
:103E4000FCF7C4F9E06704F17C00A168FCF76BFDA6
:103E5000E06FC4F88000A06D6065E06DA065E06C67
:103E6000A064206DE064206A10F0FF4F7FF4D5AEAF
:103E7000A766D2E6206FD4E69A9999999999E93F75
:103E80009999C93F70B50C460546C16DE069FCF7CC
:103E9000F5F9296FFCF7EFF9A06670BD2DE9F04F39
:103EA000DDE91254DDE91076DDE90CE8DDE9099A77
:103EB000DDF83CC0DDF82CB041604FF400018A42CF
:103EC00001DA82F0004282608B4201DA83F0004323
:103ED0004A46C360894501DA89F0004282F0004217
:103EE00000F11C03026183E8004C884501DA88F088
:103EF0000048C0F838800E9A82628C4501DA8CF056
:103F0000004CC0F82CC08F4201DA87F000470763ED
:103F10008E4201DA86F0004646638D4201DA85F072
:103F2000004545618C4201DA84F000448461BDE8BB
:103F3000F08F000070B5294801222A49284B4262BF
:103F4000C0E90A31284901632849C163002101649D
:103F5000416400F14806264C4FF07E55816586E8A5
:103F6000320041654163234E8163C0E92A26224E17
:103F7000C0F8B060214EC0F8B460C0E93151214DA5
:103F8000C0F8DC10C0E933151F4DC0E935511F4D95
:103F9000C0F8B850C0E94B231D4AC0F834211D4A6F
:103FA000C0F838211C4AC0F844211C4AC0E95221FB
:103FB000C0F86011C0E954144FF07F52C0E9562197
:103FC000C0F83C11C0F840111549C0F8AC110C4EB6
:103FD0001449C0F8B011C0E92F5670BD100500207B
:103FE000000016440000A0410000A0C10000704184
:103FF000000040400060EA460080BB450080BBC531
:104000000000A042000070420000F0410000FA43AE
:1040100000004843000048C30000F0400AD7233C9A
:1040200000000842000080C12DE9F04701F044FA89
:104030004A4C80464A4FD4F8C001DFF828A1B84264
:1040400002DD5146FCF714F9A16806468946404650
:10405000FCF70EF90546B84203DD5146FCF708F9B6
:1040600006E04148854204D951462846FCF7AEF89F
:104070000546484601F020FAC4F81480A060314695
:104080002846FCF7A3F80546D4F8AC11FCF768FB0A
:1040900003D2A168D4F8AC010AE02846D4F8B011E4
:1040A000FCF754FB01D3606908E0A168D4F8B001C3
:1040B000FCF78CF83146FCF7DBF8606101F0FCF9A5
:1040C00001466061A068FCF741FB07D2A168606906
:1040D000FCF7CEF8B84211DB514609E06169A068EF
:1040E0000E460546FCF7C4F8B84204DA29463046C5
:1040F000FCF7BEF802E05146FCF7BDF8054617484C
:1041000094F8B02300F1A40800F1200600F594779C
:1041100094F8B103012A02D001280BD00EE0022846
:1041200003D131463846FFF7ADFE85F0004100224D
:10413000304607E039463046FFF7A4FE85F00041DF
:1041400000223846FFF740FD206102464046E16804
:10415000FFF73AFDA061BDE8F087000010050020E0
:10416000000034430000B443000034C310B5074CD2
:1041700004F11000A16AFCF7C5FBD4E9031204F1B5
:10418000A400FFF721FDA06110BD00001005002074
:10419000AFF2030101604FF480618180C180018131
:1041A000418100210182418281828175C175032292
:1041B000027342738184AFF3008030F8241F01F052
:1041C00001028270C1F34002C270C1F38002027129
:1041D000C1F3C0024271C1F300120272C1F3401276
:1041E0004272C1F380128271C1F3C012C271C1F375
:1041F00000228272C1F34022C272C1F38022027394
:10420000C1F3C0224273C1F300328273C1F3403262
:10421000C273C1F380320274C90B417470472DE937
:10422000F04F0023002864D040F2946B4FF4B67E28
:10423000C21892F801C057794FEADC0892F802C020
:10424000BC09E14648EA4C1CCCF30A0A92F8038008
:104250004FEA991C4CEA880C92F80480C7F30115C8
:104260004CEA882C16884FEA580848EAC717C6F364
:104270000A06CCF30A0CC7F30A09012C03D0022C5E
:1042800001D0032C37D1012D03D0022D01D0032DF5
:1042900031D1177B0FB1012F2DD1577B0FB1012FDA
:1042A00029D15F46BE4226D2764524D9BA4522D2CC
:1042B000F24520D9BC451ED2F4451CD9C846D94583
:1042C00019D2F14517D98E80A1F806A0A1F808C02F
:1042D000A1F80A800C7318444D73C08808821089B5
:1042E000488250898882107B8875507BC875D08938
:1042F0008884BDE8F08F5B1C112B99DBF9E77047D0
:10430000F0B4066BDDE904543160066B0021B16046
:10431000066BF160066B08213161066B110A31757D
:10432000016B4A75026B190A9175016BCB75026BB3
:10433000290A1176016B4D76026B210A9176016B89
:10434000CC76F0BC0021FDF7DFBB30B5D5B201243F
:1043500003200221012D0AD0022D0AD01970C2F3C8
:104360000722012A07D0022A07D0587030BD1C70DE
:10437000F5E71870F3E75C7030BD597030BD000090
:1043800010B525480021254A80F8941040F8842F64
:104390000222827341F27072828180F84C1080F8A0
:1043A0004D10818780F84210502220F8762C1C4A4C
:1043B00040F8102C1B4B0122C0E91C231A4B8367C9
:1043C0001A4BC3671A4BC0E92231C0F89010194C40
:1043D000C0F8A410C0E92514174CC0E92741C0F863
:1043E0008010C0F8841040F8F42F144A4260144A38
:1043F0008260144AC260144A82614FF07C52C0E964
:1044000007214163C0E90913104AC0E90B21104993
:1044100040F8101F416010BD300B002000006040CC
:1044200000007A4400803B4500004842000048C23A
:10443000000070420000A0410000A04000401C4667
:104440000080BB450080BBC50000A0420000F041D9
:104450000000FA4310B5FDF77DFFBDE81040FEF700
:1044600094BB000070B594B002250024CDE900543F
:10447000012610200895CDE905604FF4E010CDE944
:10448000094068460B94FEF77BF900B1FEE70F2068
:104490000E90CDE90F54119401210EA81294FEF74D
:1044A0004FF800B1FEE7FEF7F5F84FF47A71B0FB74
:1044B000F1F0FEF756FB0420FEF746FB04480667C2
:1044C00000221146501EFEF709F814B070BD00001E
:1044D000000042421048016841F00101016041685A
:1044E0000E4A1140416001680D4A114001600168A7
:1044F00021F480210160416821F4FE0141600168DE
:1045000021F0A05101604FF47F0181600021C16260
:104510000449C00308607047001002400000FFF02B
:10452000FFFFF6FE08ED00E00148FEF77DBC00004D
:10453000540200200148FEF777BC0000D40200209E
:104540000148FEF771BC000094020020F0B502683B
:10455000194B1A4C1A4D1B4E4FF08047984207D00A
:10456000B84205D0A04203D0A84201D0B04204D145
:1045700022F0700C4A6842EA0C02984207D0B84216
:1045800005D0A04203D0A84201D0B04203D122F40A
:104590004074CA68224322F080044A6922430260C0
:1045A0008A68C2620A688262984201D1096901631D
:1045B00001214161F0BD0000002C014000040040D9
:1045C00000080040000C004010B50123046A8B4035
:1045D0009C430462036A8A401343036210BD10B512
:1045E000846842EA032224F47F440A43224382601F
:1045F00010BD826822F070020A4342F00701816018
:104600007047000030B5026A22F001020262026ABD
:104610004368846924F073050C682C4322F002057A
:104620008A682A430A4DA8420BD122F00805CA68BD
:1046300023F440732A434D6922F004021D438B6921
:104640002B434360846149684163026230BD0000CE
:10465000002C014030B5026A22F010020262026AA8
:10466000436884690D6824F4E64444EA05248D68AF
:1046700022F0200242EA05120B4DA8420ED1CD686D
:1046800022F0800242EA05124D6923F4406343EAB6
:1046900085038D6922F0400243EA8503436084610B
:1046A00049688163026230BD002C014030B5026A66
:1046B00022F480720262036A4268C46923F40073C0
:1046C00024F073050C682C438D6843EA05230C4DD8
:1046D000A8420ED1CD6823F4006343EA05234D6957
:1046E00022F4405242EA05128D6923F4806342EAC3
:1046F00005124260C4614968C163036230BD0000B5
:10470000002C014030B5026A22F480520262046A31
:104710004268C3690D6823F4E64343EA05238D68C4
:1047200024F4005444EA0534064DA84204D14D69EE
:1047300022F4804242EA85124260C3614968016402
:10474000046230BD002C014010B5036A046A24F0F5
:1047500001040462846924F0F00444EA021423F0A2
:104760000A020A438461026210BD10B5036A23F095
:10477000100303628369046A23F4704343EA02323C
:1047800024F0A00343EA01118261016210BD000020
:1047900070B504460420216B1F4D204E8860216BAC
:1047A00041F215304860216B0020C860216B082061
:1047B00008613146686AFBF761FDFBF77EFF216BFC
:1047C000001208753146686AFBF758FDFBF775FF64
:1047D000216B48753146A86AFBF750FDFBF76DFF6A
:1047E000216B001288753146A86AFBF747FDFBF77D
:1047F00064FF216BC875216B687F0876216B287F69
:1048000048760748226B818C090A9176216B90F8D3
:104810002400C87670BD00000C0000200000C842D3
:10482000A42000202DE9F04138490546012091F8E7
:1048300092200023364C022A5DD0012A63705DD09D
:10484000A370E07091F8F821002A5AD084F804305F
:1048500091F8D110012956D063712D48FCF7D2FA96
:10486000296B04202A4E8860296B41F21630203EC5
:104870004860286B284FC360296B082008612548D1
:10488000296B407B087539463068FBF7F7FCFBF76E
:1048900014FF296B0012487539463068FBF7EEFCAF
:1048A000FBF70BFF296B887539467068FBF7E6FC50
:1048B000FBF703FF296B0012C87539467068FBF7D8
:1048C000DDFCFBF7FAFE296B08763946B068FBF78A
:1048D000D5FCFBF7F2FE296B001288763946B068EA
:1048E000FBF7CCFCFBF7E9FE296BC876296B207837
:1048F0004876BDE8F0816070A37000E0A070E370BE
:10490000A0E72071A4E76071A7E70000300B00204A
:10491000FC20002008210020000020412DE9F04764
:104920007648774C774F0168012681F00041E160BD
:10493000806880F00040C4F8D80197F894000328FC
:104940000CD002280AD084F8B0636F4D286AB0F505
:10495000FA6F07D2401C2862BDE8F087022084F875
:10496000B003F2E7FCF7D0FBFCF724FB674890F8B4
:104970002800012801D184F8B461654890F8280026
:10498000012801D184F88063687848B994F8B401AB
:1049900030B1D4F8C011A068FBF76AFC60616E709A
:1049A000FCF74AFC0028D7D15A48407F03285FD043
:1049B00001285FD197F8F801B946012805D1D4F84C
:1049C000C011A068FBF754FC6061534FDFF83081E1
:1049D00097F82A00A8F11008012809D198F80400D6
:1049E00030B94E49D4F8D401FBF7F0FBC4F8E0012C
:1049F00097F82F00012801D048B111E098F809007C
:104A000070B9D4F8D4016862A068A86208E098F888
:104A10000900012804D1686AC4F8E001A86A60614D
:104A200099F89400012807D030B1072804D0032852
:104A30001ED002281CD01DE084F89863B7F912003C
:104A4000FBF720FE364D2946FBF718FC6169FBF7A2
:104A500012FC6061B7F91000FBF714FE2946FBF762
:104A60000DFCD4F8E011FBF706FCC4F8E00101E00E
:104A700084F8986394F89903022894F8980302D074
:104A800001280CD001E0012803D0C0B2022816D0C2
:104A900023E0D4F8D401C4F8E001A068606194F880
:104AA000B401012802D16069FFF7BEFA94F88003CF
:104AB000012812D1D4F8E00100F08CFA0DE094F84E
:104AC000B401012802D15046FFF750FB94F880034F
:104AD000012802D1504600F0E3FA94F8980384F8D4
:104AE00099030D49064810222631103804F56674E2
:104AF000FBF75AFB207E60762EE70000FC0D0020BD
:104B000010050020300B0020B8000020101B0020F2
:104B1000341900200C000020A420002000003443A1
:104B20006F12833B084800B5012180F898130022DA
:104B300080F8852380F8842380F8B013FFF7FAF912
:104B40005DF804EB00F0DEB9100500200148FEF727
:104B500015BB00001403002010B5406A0021C18578
:104B6000C184FEF70AFB10BD70B5446A2068406935
:104B700094F83910C0F3C0100025212904D118B1D0
:104B8000E584204600F046F82068406994F83A1021
:104B9000C0F38010222904D118B1E585204600F029
:104BA0002BF8E06B40F01000E0632046FEF7E5FADA
:104BB00070BD10B50146406A09680968890613D4BA
:104BC0000021C1850168CA6822F48072CA60016848
:104BD0004A6922F001024A6101684A6922F04002F2
:104BE0004A61202180F83A10FEF746FC10BD10B54E
:104BF000406AFEF767FC10BD0168CA6822F4907233
:104C0000CA6001684A6922F001024A61202180F8E5
:104C10003A1070470168CA6822F0C002CA602021B9
:104C200080F83910704710B590F83A10222901D059
:104C3000022010BD8168B1F5805F11D001690029A3
:104C400001681FD0496801F07F03816A4A1C8262B3
:104C50000B70C18D491E0904090CC18518D02BE0C9
:104C60000269816A002A0268526805D0D2B20A80BD
:104C7000816A491C8162ECE7C2F308020A80816AFA
:104C8000891CF7E74A68816A4B1C83620A70E0E777
:104C90000168CA6822F02002CA600168CA6822F46A
:104CA0008072CA6001684A6922F001024A612021CB
:104CB00080F83A10FEF7E0FB002010BD2DE9F0412E
:104CC000044600680169E26821F440511143016122
:104CD0002169A0680843616908432168CA6841F2F4
:104CE0000C639A430243CA6020684169A26921F4B7
:104CF0004071114341614C49206864253226884245
:104D00003CD1FDF7DDFC00EBC00101EB0010616858
:104D10008900B0FBF1F7FDF7D3FC00EBC00101EB1C
:104D200000106168B0468900B0FBF1F0B0FBF5F00F
:104D30006FF01801484307EB800106EB0110B0FB50
:104D4000F5F000F0F006FDF7BBFC00EBC00101EB55
:104D5000001061688900B0FBF1F0B0FBF5F006EBE4
:104D60000016FDF7ADFC00EBC00101EB001061681F
:104D70008900B0FBF1F7FDF7A3FC3BE0FDF790FCE9
:104D800000EBC00101EB001061688900B0FBF1F796
:104D9000FDF786FC00EBC00101EB00106168B04636
:104DA0008900B0FBF1F0B0FBF5F06FF0180148435B
:104DB00007EB800106EB0110B0FBF5F000F0F00608
:104DC000FDF76EFC00EBC00101EB0010616889008B
:104DD000B0FBF1F0B0FBF5F006EB0016FDF760FC60
:104DE00000EBC00101EB001061688900B0FBF1F736
:104DF000FDF756FC00EBC00101EB00106168890073
:104E0000B0FBF1F0B0FBF5F06FF01801484307EB91
:104E1000800108EB0110B0FBF5F0216800F00F00F5
:104E200030448860BDE8F0810038014090F83910C6
:104E3000212901D0022070478168B1F5805F016AA5
:104E40000BD04A1C0262026809785160C18C491E6D
:104E50000904090CC1840ED017E009880268C1F367
:104E60000801516001690029016A02D0491C0162F0
:104E7000ECE7891CFBE70168CA6822F08002CA607F
:104E80000068C16841F04001C160002070472DE911
:104E9000F041984617460E460446069D1DE0681CE4
:104EA0001BD02DB1FDF750FAA0EB0800A84214D991
:104EB0002068C16821F4D071C1602068416921F087
:104EC00001014161202084F8390084F83A00002073
:104ED00084F838000320BDE8F0812068006836EAD5
:104EE000000004D00020B842D9D00020F3E7012010
:104EF000F9E700000148FEF741B900005403002023
:104F0000FEE70000F0B524482749284EC0F80812F3
:104F10000021C0F80C12C0F81012C0F82412C0E929
:104F20008516234EC0E987611E4DC0E97F51C0F848
:104F3000041200F5F8700122184B194C80E81C008F
:104F40001C4FE0E921271C4F87601C4FC7601C4F96
:104F500087614FF07D57C0E907711A4F4163C0E97F
:104F60000917194FC0E90B71184F076100F1840C44
:104F700047618CE83C00164AC0E928215207C0F876
:104F8000B810C0E92A124FF07E52C0E92C21C0F8B7
:104F90009410C0E92616F0BD1005002000002F4433
:104FA00000004842000048C2000070410000A041DB
:104FB0000000A0400060EA4600803B4500803BC501
:104FC0000000A042000070420000F0410000FA43DF
:104FD0000AD7233C2DE9F041DFF8B8802E4E2F4C44
:104FE00000F06AFA0146C4F8E001D4F8D401FBF7F6
:104FF000ADFB09D2D4F8D411D4F8E001FBF738F9AD
:10500000B04213DB41460BE0D4F8E011D4F8D401F0
:105010000D460746FBF72CF9B04204DA394628461C
:10502000FBF726F902E04146FBF725F905461B4848
:1050300094F8B02300F51C7800F5F67600F53D777E
:1050400094F8B103012A02D001280BD00EE0022807
:1050500003D131463846FEF715FF85F000410022A6
:10506000304607E039463046FEF70CFF85F0004138
:1050700000223846FEF7A8FDC4F8DC010246D4F849
:10508000D811404604F5EC74FEF79EFDE060BDE8E3
:10509000F08100000000B4430000344310050020FC
:1050A00010B5084C04F5EE70D4F8F41104F5EC7466
:1050B000FBF728FCD4E900120348FEF785FDE06009
:1050C00010BD00001005002080070020FEE702E070
:1050D00008C8121F08C1002AFAD170477047002083
:1050E00001E001C1121F002AFBD1704710B5FEF785
:1050F00019FBFEF7E9FAFEF79BFB2748FEF742FA99
:1051000000212648FDF7DEFF04212448FDF7DAFFE1
:1051100008212248FDF7D6FF0C212048FDF7D2FFD9
:105120001F494FF47A700860091D0860FEF7EAFC19
:10513000FEF7BEFCFEF770FAFEF79AFA1948FBF785
:1051400017FC1948FBF714FC16480068416941F048
:105150000201416114480068416941F00201416166
:10516000FFF7E0FCFFF70CF9FEF7EAFBFEF762FC45
:10517000FEF724FC0D4C012202212046FDF7DFF84A
:10518000002201212046FDF7DAF80122BDE8104097
:1051900008210748FDF7D3B80C00002014020020B6
:1051A000342C01408C010020D0010020000C014073
:1051B000001001402DE9F04F8BB00024DFF8708122
:1051C0000A94CDE908485D4D07940394049405942E
:1051D000584F594E0694DFF868918DE8E000434639
:1051E0004A4601215748FEF759FECDE908480A947E
:1051F000079403940494059406948DE8E0004346D4
:105200004A4601215048FEF749FECDE908480A9474
:10521000079403940494059406948DE8E0004346B3
:105220004A4601214948FEF739FECDE908480A946B
:10523000079403940494059406948DE8E000434693
:105240004A4601214248FEF729FE0A94089409942F
:10525000059407940394049400950694CDE90164A1
:1052600043463C4A01213C48FEF718FE3B48CDE945
:10527000070409943A480A9403940494CDE905403C
:105280003A48384A38498DE80700DFF8E4A0324848
:105290005346384A01218430FEF700FE08940994F1
:1052A0000A940794039404940594DFF8CC90069430
:1052B000DFF8C8B08DE8A00243465A4601213048C5
:1052C000FEF7ECFD089409940A940794039404945F
:1052D000059406942A488DE8A00243465A460121C7
:1052E0008430FEF7DBFD089409940A940794039434
:1052F00004940594234F06948DE8E00043465246FB
:1053000001212148FEF7CAFD089409940A940794E4
:1053100003940494059406948DE8E00043465246B5
:1053200001211A48FEF7BAFD0BB0BDE8F08F00006E
:105330000000FA43CDCCCC3D0000A0400000FAC3F1
:1053400000803B45CC0E0020A810002084120020D5
:10535000601400200040B545B815002000409C4571
:1053600000401C4660E5503D0000E0400000FAC4EB
:105370000000FA440080BB456F12833A00401C4590
:10538000941700200AD7233CAC1D0020881F002062
:10539000FCF7E8FF3B48416821F0E061416041686B
:1053A0004160FFF75FF8FFF7A1FEFFF703FF2C2234
:1053B00035493648FEF714F80028F8D1242234493C
:1053C0003448FEF70DF80028F8D1334C334D002750
:1053D000206840F0010020602068C10510D5304EE3
:1053E00020F480702060716830468847316830460C
:1053F00088472C48C16888472B48C1688847EBE735
:10540000C10425D520F4805020606868401C686085
:105410002968491C29600A2900D12F60012805D07C
:10542000022807D003280DD06F60D5E71F48FFF78B
:10543000AFF902E01D48FFF7F5F900211B48FCF722
:1054400063FBC9E7242212491248FDF7C9FFC3E7ED
:105450001748184ED0F8E0113160D0F8D4117160BF
:10546000D0F8DC11B160D0F8D811F160D0F8E401C7
:1054700030612868FBF706F9F0612021304600F022
:105480007FF8A9E7000001408404002054030020B5
:105490006004002014030020B4000020000000205D
:1054A0000C000020B0040020D80400208C01002053
:1054B00010050020EC00002070B5074C074D02E0FD
:1054C0002146FAF783FEA842FAD201E0FAF7D0FEAD
:1054D00021468842FADA70BD0000B44300008080A3
:1054E00010B50168491C0160322907D900240471F4
:1054F0000448016888470448046010BD0121017117
:1055000010BD0000A4200020B40000200168491C48
:105510000160052908D900210171054840F84C1F98
:105520000171022141717047012101717047000032
:105530000C0000200168491C0160032904D90021E6
:10554000017103480168084701210171704700009B
:10555000A42000200168491C0160072908D9002106
:10556000017105481521A0F8A01004494167704752
:1055700001210171704700000C0000200000A841CB
:105580007CB504460DA00D46006800900CA04FF4B9
:105590007A76006801903346022269460948FDF791
:1055A00092FFAAB2334621460648FDF78CFF3346E8
:1055B000022201A90348FDF786FF7CBD03FC000021
:1055C000FC03000054030020000000000000000065
:1055D0000102030406070809000000000102030499
:1055E0000056000800000020EC000000CE5000082B
:1055F000EC560008EC0000202C280000DE500008CB
:1056000000000000000000000000000085350008D8
:10561000000000000000000000000000000000008A
:10562000000000000000000000000000000000007A
:10563000000000000000000000000000000000006A
:10564000000000000000000000000000000000005A
:10565000000000000000000000000000000000004A
:10566000000000000000000000000000000000003A
:10567000000000000000000000000000000000002A
:10568000000000000000000000000000000000001A
:10569000000000000000000000000000000000000A
:1056A00000000000000000000000000000000000FA
:1056B00000000000000000000000000000000000EA
:1056C00000000000000000000000000000000000DA
:1056D00000000000000000000000000000000000CA
:0C56E000000000000000000000A24A04CE
:04000005080001519D
:00000001FF
